:100000000C94C9060C94E6060C94E6060C94343263
:100010000C94E6060C94E6060C94E6060C94E606B0
:100020000C94E6060C94E6060C9480220C94C221F3
:100030000C943F290C94E6060C94E6060C94E60614
:100040000C94E6060C94E6060C94E6060C94E60680
:100050000C94E6060C94ED230C94E6060C94E6064C
:100060000C94E6060C94E6060C94E6060C94E60660
:100070000C94E6060C94E6060C94E6060C94E60650
:100080000C94E6060C94E6060C94E6060C94E60640
:100090000C94E6060C94E6060C94E6060C94E60630
:1000A0000C94E6060C94E6060C94E606710F8C0F91
:1000B000930FED10ED10CC0FE40FF70F57105C10FD
:1000C000ED10ED10ED106510E7135B14EF13B9138D
:1000D000BD13F313C013F6130114CB135114CF1334
:1000E0000514D31309143314D7130D143D14DD1361
:1000F00013141D14C413FA13C713FD13E2131814B9
:10010000291449144B14B513EB1364148D14931470
:100110007E14841499149F14A51453155315821535
:100120008215201720172017201716168A169B16DF
:100130009B16CF1FF61FA021F61FA0213E20612095
:10014000A0215C21702100DA0281FFD9F1DB20A41B
:10015000A62EAF00A0C0D30000A1C8D30000AED52A
:1001600080A81F408D142000000000000000000047
:10017000000000000000000080C0E0F0F0F898F8F7
:10018000F8F8F0702000000000000060C08000005F
:100190000000C0F0F0F0E0C0877FFFFFF1C3030371
:1001A00003010100000000000000000103071F3EE2
:1001B00078F7FF7F3D03070F1E3D7FFFFFFFFC78B1
:1001C000000000000000000000000000000000002F
:1001D0000000000000000000000080E0F0F0F8984F
:1001E000F8F8F8F070200000008000000000C0F86F
:1001F000FC3EDEFEFCF80000E0FEFF7F070103038B
:10020000030101000000000000071E3C78FFFF7F93
:100210000100071F3F7C78FFFF7F07000000000000
:1002200000000000000000000000000000000000CE
:1002300000000000000000000000000000000000BE
:1002400080800000000000000000C00000000000EE
:1002500000000000000000000000F8FCFEFE1F3F50
:1002600039393F3F1E1E0C000000010F3E7870F828
:10027000FCFE7E3E3C3C787878F0F1FF7F7F3E00CC
:10028000000000000000000000000000000000006E
:10029000000000000000000000008080C0C060601E
:1002A000C0C0C0800000000000002060C0800000CE
:1002B00000000000000000003E7FFFFFE7C70E0EB9
:1002C0000F0F0707030000000000000001071F3E9A
:1002D00078F0FC7E1E1F0F0E1E1C3D7FFFFFFFFCF3
:1002E0007800000000000000000000000000000096
:1002F0000000E0F0F0F8F8CCCCF8F8F0F060000086
:1003000000000000000000000000000000000000ED
:1003100000000F3F7FFCF9F1E1C181000000000007
:10032000000000000000000000000000000C387019
:1003300060E0E0F0F0F8F9FFFFFFFFFF7E1C000037
:1003400000000000000000000000000000000000AD
:100350000000E0F0F0F8F8CCCCF8F8F0F060000025
:10036000000000000000000000000000000000008D
:1003700000000F3F7FFCF9F1E1C1810000010102A3
:10038000060C040000000000000000000000387CA3
:1003900060E0E0F0F0F8F9FFFFFFFFFF7E1C0000D7
:1003A0000000000000000000000004F6B8F8D8F0DB
:1003B000E0C000000080C0E0E0F0F0F0F0E0E0C05D
:1003C00080000000000000000080C0E1F3FB7F1F00
:1003D0000F0000F0FFFF3F030100000080C1F3FFAA
:1003E0007F1F000080C0E0301E3F3F7FF9F0F070BB
:1003F000783C3F1F0F03000000001C3F7F7FFBF194
:10040000F0783C1E0F030000FD377A585A000004B4
:10041000E6D6B4460200210116000000742FE5A3C1
:10042000E008E2024C5D003D8889C65436C3174F90
:10043000E4E62B87DC61F128B5AEA0A33C3CF45F79
:100440007424B52C3D20C7689B3A8E08CE16E28FE7
:10045000DD74FFA04F08D43D201DD0558F11BBB1D6
:100460003287318A341491884A492E35E0342D0C74
:100470004017CB8358625A56E00D9F62DA4BAE5B51
:1004800045BF184E55F47FF8F043B3ACFC7DFD58E2
:1004900015E2FA17D277DF3B6879E083559328722B
:1004A000645636A10E4450BA362AA51C1260B21CFE
:1004B000CD8E2EC3ADD4C453DE141647C9BD5CD057
:1004C0001B0E464ECFBEE71CF519EC6680457593B2
:1004D00056721F145724C49F4EBB70BEFE38CEB355
:1004E0003373590C8C1039AFE20F1DD2AFEB1522CC
:1004F0005800EAB07537139C2853194C8E9B0E1187
:10050000ECB67E4618CB6D85F88B888160F8CA29D9
:10051000DB6CF78B77CCC113DE577FE73B2C303693
:10052000C13A983A6E529F5ACB8489F488850595D2
:10053000C0902309D86D3A8B0AB5DB5503FBBCDDAF
:1005400028C9C25BF9AE194414EC9BB101CC24015B
:100550002BA323505BEABC0FEFF720336DCB85371D
:100560002BE5CD4DAAA5C4F3848B8774D06D8A9FEB
:10057000D5FA67BAECA93C99CE60C895BB771056FE
:10058000349BA65BE9DDBADE0C50D699110F6521CC
:10059000FF51E73A3D79B023324E5A712ECD3AA839
:1005A00087B763480CB2B4A6DA22DEB99AE187F8BD
:1005B000F54910CFC83AB5126F2EB4D5495ECEA119
:1005C000D681DD4D17B871B1565DA5170CB4C305C2
:1005D000EBB5181BE55BFBE3F0EF9DA14491A18F08
:1005E0000B2407354580F44EE7C19E0D6D98827649
:1005F0001F5F6AEDDC5199485609D6C5EED28F8D42
:1006000008A74F91E087F0C4BD34505878E68709B9
:1006100012F0B0B37E66CFE772FC2FC09E832AE84B
:10062000A8C21A396D244D759A22E08AFF8292364B
:10063000DC2AE2D08CD422A86B56EDF5EAE81DBD89
:10064000249E2371F9646BAEE36372BC6464210C75
:10065000D4BE7FCAF860376092E00C632D2C8F3ACD
:10066000B1CFF84722305B8156FBF909FD928D022C
:10067000AFDFAC00C8E4FDC5E544F4430001E80485
:10068000E311000063CCEC15B1C467FB020000006D
:100690000004595A0660FF0961A10109621500268C
:1006A000FF009520750881020963150026FF00955B
:1006B0002075089102C005010906A101050719E08E
:1006C00029E7150025019508750181029501750836
:1006D00081010507190029FF150026FF0095067501
:1006E00008810005081901290515002501950575E2
:1006F000019102950175039101C0090242000201B6
:1007000000A0FA0904000001030101000921110100
:1007100000012244000705810308000109040100CB
:100720000203000000092111010001222200070537
:1007300082032000010705030320000112010002CB
:100740000000000832FC87020200010203011C03C2
:100750007600690061006C003A00660036003400E3
:100760006300320062003300630000001603530090
:100770006F0066006C0065002000430068006F0099
:1007800063000000140342007200690061006E0003
:1007900020004C006F0077000000040309040708E4
:1007A0007F0807003E5B4F5B3E003E6B4F6B3E0099
:1007B0001C3E7C3E1C00183C7E3C18001C577D579C
:1007C0001C001C5E7F5E1C0000183C180000FFE748
:1007D000C3E7FF00001824180000FFE7DBE7FF0075
:1007E00030483A060E00262979292600407F050563
:1007F0000700407F05253F005A3CE73C5A007F3EFA
:100800001C1C0800081C1C3E7F0014227F221400C0
:100810005F5F005F5F0006097F017F0000668995CA
:100820006A0060606060600094A2FFA29400080407
:100830007E04080010207E20100008082A1C0800F2
:10084000081C2A0808001E10101010000C1E0C1E98
:100850000C0030383E383000060E3E0E0600000018
:100860000000000000005F0000000007000700001B
:10087000147F147F1400242A7F2A12002313086493
:100880006200364956205000000807030000001C93
:10089000224100000041221C00002A1C7F1C2A006B
:1008A00008083E08080000807030000008080808AA
:1008B00008000000606000002010080402003E51A3
:1008C00049453E0000427F400000724949494600C8
:1008D0002141494D33001814127F1000274545452A
:1008E00039003C4A49493100412111090700364984
:1008F00049493600464949291E00000014000000FD
:1009000000403400000000081422410014141414A4
:1009100014000041221408000201590906003E415A
:100920005D594E007C1211127C007F494949360006
:100930003E41414122007F4141413E007F494949BA
:1009400041007F09090901003E41415173007F08C0
:1009500008087F0000417F4100002040413F010026
:100960007F08142241007F40404040007F021C026B
:100970007F007F0408107F003E4141413E007F0917
:10098000090906003E4151215E007F0919294600F0
:1009900026494949320003017F0103003F4040409E
:1009A0003F001F2040201F003F4038403F0063149D
:1009B000081463000304780403006159494D43009F
:1009C000007F4141410002040810200000414141E4
:1009D0007F00040201020400404040404000000348
:1009E000070800002054547840007F284444380011
:1009F000384444442800384444287F003854545430
:100A0000180000087E09020018A4A49C78007F0842
:100A10000404780000447D4000002040403D000078
:100A20007F102844000000417F4000007C047804CF
:100A300078007C0804047800384444443800FC18EA
:100A40002424180018242418FC007C08040408003E
:100A500048545454240004043F4424003C404020A3
:100A60007C001C2040201C003C4030403C004428BE
:100A7000102844004C9090907C004464544C4400F6
:100A800000083641000000007700000000413608F1
:100A900000000201020402003C2623263C00000064
:100AA00000000000404040F0F8F8FF38FFF8F83F41
:100AB000F8F8FF38FFF8F8F0404040000000000070
:100AC0000080C0C0C0800000C0C08000000080C0A6
:100AD000C000C0C0000080C0C00000000000C0C056
:100AE000C0C0C000C0C00000000000000000000046
:100AF00000000000000000000000000000000000F6
:100B000000000000000000000000000000000000E5
:100B100000000000000000000000000000C0F0F82D
:100B2000FC3E1E06010000007F4141417F007F41E5
:100B300041417F000080C0E07E5B4F5BFEC0000053
:100B4000C000DCD7DEDEDED7DC00C0000000000025
:100B50000000000000000000000000000000000095
:100B600000000000494949FFFFFFFFE0DFBFBF0071
:100B7000BFBFDFE0FFFFFFFF494949000000000061
:100B80001F3F6060E0BF1F007F7F071E381E077F8A
:100B90007F007F7F0E1F3B716000000000007F7FA1
:100BA0000C0C0C007E7E007F7E0303007F7E03031F
:100BB0007E7E03037F7E000F3E703C063C703E0F3E
:100BC00000327B49493F7E007F7E0303001E3F6960
:100BD000696F2600000000000000000000030F1FE6
:100BE0003F3C7870600000007F4141417F007F41C1
:100BF00041417F00307B7F7830202030787F3B0080
:100C000003000F7F0F0F0F7F0F0003000000000095
:100C100000000000000000000000000000000000D4
:100C200000000000010101070F0F7F0F7F0F0F7EF3
:100C30000F0F7F0F7F0F0F07010101000000000061
:100C400000000000000101000000000000000000A2
:100C50000000000000000000000000000000000094
:100C60000000000000000000000000000000000084
:100C70000000000000000000000000000000000074
:100C80000000000000000000000000000000000064
:100C90000000000000000000000000000000000054
:100CA0000000000000000000000000000000000044
:100CB0000000000000000000000000000000000034
:100CC0000000000000000000000000000000000024
:100CD000000000000000000000000000000000AF65
:100CE00000AE000000000000000000000000000056
:100CF00000000000000000000000000000000000F4
:100D00000000000000007E0F00D4FFFFFFC70000BE
:100D1000007800000000000000002A2B28000000DE
:100D2000000000000000000000000000002900009A
:100D300000002C1E3420212224342627252E362D77
:100D40003738271E1F202122232425263333362E11
:100D500037381F0405060708090A0B0C0D0E0F1083
:100D60001112131415161718191A1B1C1D2F3130C8
:100D7000232D350405060708090A0B0C0D0E0F106C
:100D80001112131415161718191A1B1C1D2F3130A8
:100D9000354C11241FBECFEFDAE0DEBFCDBF11E02E
:100DA000A0E0B1E0EAEEFEE602C005900D92AA3C9A
:100DB000B107D9F725E0AAECB1E001C01D92AC3E25
:100DC000B207E1F70E94E8060C9473370C94000018
:100DD000ACE3B0E0EEEEF6E00C94693385B78068E2
:100DE00085BF85B7806885BF84B7877F84BF0FB60E
:100DF000F894A895809160008861809360001092BB
:100E000060000FBE90E080E80FB6F8948093610018
:100E1000909361000FBE88E598E19093CB01809399
:100E2000CA010E94142D0E9406220E942522809150
:100E3000E20084608093E20078948091CA02882363
:100E4000A1F01091E9001F709091EC00892F817042
:100E500090FD80E8182B1092E9008091E80083FD56
:100E60000E94EF1E1F701093E90082E084BD93E0A2
:100E700095BD9AEF97BD80936E001092CC011092B1
:100E8000CD011092CE011092CF010E94B72981119D
:100E900002C00E94BF2A88EC90E02091E30027FD69
:100EA0000EC0AFE3BCE91197F1F700C00000019755
:100EB000A1F70E9406221092CA0280E001C081E0E0
:100EC0008093CF038093D0038093000181110E940F
:100ED000EF3188E0EEEBF3E0DF011D928A95E9F750
:100EE0008091000191E0892780932B02809100017D
:100EF00090932E028091000180910001811106C023
:100F000084EF8093450185EF8093460160E080E0A7
:100F10000E94302B61E080E00E94302BEFE8F1E08E
:100F20003197F1F700C0000010E080912E021817F1
:100F300090F460E0812F0E94142B082F61E0812F34
:100F40000E94142BE12FF0E0E45DFD4F880F082B89
:100F500000831F5FEACF8091000180910001882308
:100F600011F090E001C095E09093DB0185E0891BD2
:100F70008093DA010DE911E092EAE92E91E0F92E71
:100F8000D8018D918D018F3F11F00E94791AE016E2
:100F9000F106B1F702EA11E088EAE82E81E0F82EC6
:100FA000F80181918F018F3F11F00E94791AE016AC
:100FB000F106B1F78AE0E7E6F2E0DF01282F1D92A3
:100FC0002A95E9F7E0EDF1E0DF011D928A95E9F756
:100FD00080E090E00E94C133853E9E4F21F40E9444
:100FE000B729811163C065EE7EEF80E090E00E943A
:100FF000F53360E082E090E00E94D73381E0809397
:10100000DC0161E083E090E00E94D73360E074E1AE
:1010100084E090E00E94F53360E086E090E00E947A
:10102000D73360E087E090E00E94D73340E050E0A3
:10103000BA0188E090E00E94E93360E083E290E04A
:101040000E94D73360E08CE090E00E94D73360E0EC
:101050008DE090E00E94D73319821A821B821C8295
:101060001D821E821F82188648E050E067E170E012
:10107000CE0101960E94C73340E050E0BA018FE1F3
:1010800090E00E94E93380E00E9498290E94BF2AE4
:1010900040E050E0BA018FE090E00E94E93340E088
:1010A00050E0BA0183E190E00E94E93382E090E0F1
:1010B0000E94B9338093DF0184E090E00E94C13345
:1010C0009093DE018093DD010E94BB1CEFEFF6E7F9
:1010D00021E0E150F0402040E1F700C000000E9414
:1010E000BB1C8091670280FF08C06FEF7FEF80E03C
:1010F00090E00E94F5330E94DC2383E090E00E94A0
:10110000B9330E94B32783E080935E0280E280932C
:10111000B1030E947F306BE070E08DE591E00E94AA
:10112000AB2C882309F443C080915E0265E070E037
:1011300081FD3AC088E591E00E94AB2C8823B9F18B
:101140006DE070E086E491E00E94AB2C882379F199
:101150000E943E24DC01CB01805A9541AF4FBF4F26
:101160008093B8039093B903A093BA03B093BB03E1
:10117000EAEEF3E080E092E0DF019C011D92215055
:101180003040E1F7F093EB05E093EA058FEF9FEF36
:101190009093E9038093E80381E08093BD038093FB
:1011A000BC0310925F0203C083E591E0C5CF80913C
:1011B000CF03811102C00E94F23181E091E090934F
:1011C000D2038093D10322242394312C8091CA022C
:1011D000853009F045C010E400E1A2E1FA2E8091CB
:1011E000CA02853009F038C08091CA02843039F1D2
:1011F0000E94B82C0E94B82C1092D30348E150E012
:101200000FB6F894A895409360000FBE109360004D
:1012100083B7817F846083BF83B7816083BF789405
:10122000889583B78E7F83BF0FB6F894A895809179
:101230006000886180936000109260000FBE0E9481
:10124000BB1CE7E6F2E081918111D1C781E792E012
:101250008E179F07C1F7C3CF0E94B6270E9482292D
:101260000E94BB1CF0EEEF2EF1E0FF2EA7E6B2E0ED
:10127000BAAFA9AF2AEE31E0F70191918D9189279C
:101280002E173F0719F08823C1F306C0811104C04F
:101290000E94371C18AE3CC08090CF03E7E6AE2E0C
:1012A000E2E0BE2E10E077247394F50191905F0187
:1012B000D701CC90C92411F100E0DD24D3948C2D0A
:1012C0008D21B1F08820A1F00AAB1BAB0E9433291D
:1012D0009DAB8CAB7EAA91E0892D8D2109F490E025
:1012E0009FAB4AA95BA96CA97DA98EA90E949D17F5
:1012F0000F5FDD0C063019F7F70190821F5FFFEFDB
:10130000EF1AFF0A1A3089F60E94901AE1E0E8AF5E
:101310008091CF03882309F4FEC08091CD03909182
:10132000CE03892B79F18091EA019091EB010E9423
:101330002F248C01BE01655D7F4F87E0DB011D928C
:101340008A95E9F78091CD039091CE030E94F82C05
:1013500080179107B8F48091CD039091CE0399271F
:101360008830910540F474E0880F991F7A95E1F771
:101370008F5C9C4F02C080E090E0FC01258122FF41
:101380000E94EF29C090F701D090F8010D2C000CBD
:10139000EE08FF0810910B01412F50E0E9EFF1E05A
:1013A00081E090E04817590764F0219131912901BB
:1013B000330F66087708C40CD51CE61CF71C019691
:1013C000F1CFF7FE03C0C12CD12C76016091F3015F
:1013D0007091F4018091F5019091F6010E9413241F
:1013E0004B015C01A0E6BAEEA70196010E94813490
:1013F0002B013C01F8EC1F9F90011124C901330F10
:10140000AA0BBB0B9C01AD01280D391D4A1D5B1DAC
:10141000A5E0B0E00E9481349B01AC01C301B201A0
:101420000E94333429013A0157FD0CC021EF4216C6
:101430005104610471044CF060EF462E512C612C74
:10144000712C03C0412C512C320139EC83169104CC
:10145000A104B10414F18091F20190E0019669E1D8
:1014600070E00E941F348093F201880F991FFC01E5
:10147000E950FE4F11821082183110F41F5F01C035
:1014800018E110930B010E943E246093F3017093C6
:10149000F4018093F5019093F60142E0C416D10463
:1014A000E104F1041CF4412C512C32016091EE0155
:1014B0007091EF018091F0019091F1010E9413244D
:1014C0006B017C01653671058105910584F00E94F0
:1014D0003E246093EE017093EF018093F0019093AE
:1014E000F101809130028093ED014092EC01109166
:1014F000ED01A091EC01B0E0A11BB109A70196019B
:101500000E948C3424E630E040E050E00E945534E4
:10151000120F109330028091CF03882321F00E9494
:10152000762BD82E01C0D12C80912F02882351F028
:1015300010922F028091C0038093C1038091BE035B
:101540008093BF03E12C80912E02E81608F042C080
:1015500061E08E2D0E94142B182F60E08E2D0E94CA
:10156000142BE12FEE0F8E2B0E2D10E0D801A45D71
:10157000BD4FEC912E2F237030E0482F50E0241700
:10158000350731F1EE0FEE0FE82BEC9380912B0233
:101590008E0DEF70F0E0E855FE4F075D1D4FF080B7
:1015A000D8019C91F90EFC92B3E0BF1514F460E0F1
:1015B00004C0EDEFFE161CF461E00E94512B8F2D4C
:1015C000FF0C990B64E070E00E941F34D8018C93EB
:1015D000E394B9CF8091CF03882319F00E94762B32
:1015E000D82ADD2021F00E94901AB1E0B8AF809196
:1015F000BD03882309F451C2809160029091610279
:101600000E942F24C29708F43DC10E943329909371
:1016100061028093600260E080E00E94942C8091DF
:10162000300290E090933D0280933C020E94822918
:1016300080933B028091CF038823A1F06091370211
:10164000709138028091390290913A020E941324DD
:10165000613375478105910518F00E94B82C12C1BD
:101660000E94D22C8091CF0362E0882309F4C9C084
:1016700080E00E94942C60E08FE491E00E94792C3D
:1016800063E080E00E94942C809136020E94331126
:10169000813069F040F0823071F0833089F460E08D
:1016A00081E691E00BC060E085E591E007C060E075
:1016B0008BE591E003C060E087E691E00E94792C21
:1016C00066E080E00E94942C60E08DE691E00E944C
:1016D000792C67E080E00E94942C60913B02669533
:1016E000617082E791E00E94792C68E080E00E94BE
:1016F000942C60913B02617011E0612787E791E0D3
:101700000E94792C69E080E00E94942C60913B0259
:1017100062FB662760F98BE791E00E94792C60916B
:1017200032027091330280913402909135020E940E
:1017300013246D3271408105910508F4A3C00E9405
:101740003E2460933202709333028093340290936C
:10175000350280910C0181110FC06FE00E94942C22
:1017600060E080E891E00E94792C6CE080E00E94CB
:10177000942C10930C010DC06CE080E00E94942C1E
:1017800060E080E891E00E94792C6DE080E00E94AA
:10179000942C8091310290E001968170992780937A
:1017A000310220913C0230913D022B30310564F42E
:1017B0009101281B390B40E6429FC001439F900DC9
:1017C000112488519D4F0EC02932310574F49101C6
:1017D000281B390B40E6429FC001439F900D112406
:1017E000885D9D4F0E94272F4DC09101281B390B0A
:1017F00040E6429FC001439F900D112488599E4F9F
:10180000F1CF80E00E94942C60E086E891E00E9495
:10181000792C63E080E00E94942C60E08CE891E0F9
:101820000E94792C67E080E00E94942C88EA93E083
:101830000E94272F6DE080E00E94942C80913D0251
:101840008F9380913C028F9382E991E09F938F93D5
:101850008E010F5F1F4F1F930F930E94C03460E0F3
:10186000C8010E94792C6EE080E00E94942C60E018
:1018700088E991E00E94792C0F900F900F900F90C3
:101880000F900F908091E8039091E903892B31F438
:101890008091BC03882309F400C1E8C08091BD0396
:1018A0008823B1F380915F028111F2CF0E94D22C84
:1018B0002091E8033091E9032115310549F380E0D7
:1018C000682E712C7101082E02C0EE0CFF1C0A94C8
:1018D000E2F7A70142235323452B11F48F5FF0CF8A
:1018E00090915E02930145E0220F331F4A95E1F784
:1018F00090FF13C085E0369527958A95E1F7220F72
:10190000220F220F20930F0110921201295F2093C2
:10191000100183E08093130111C0220F232F221F97
:10192000330B31958295880F807680930F01209339
:101930001201815E809310012093130124E630E0B0
:1019400047E050E06DE071E088E70E94B430892BF9
:1019500009F09ECF80915E0280FF67C080E2EEE3D7
:10196000F2E0DF011D928A95E9F7B5E0660C771C7D
:10197000BA95E1F7ECEBF1E0FCAFEBAF68EB71E0AF
:1019800010EC412E11E0512EABADBCAD2D91BCAF92
:10199000ABAFFB018191BF01A301480F511DDA01DB
:1019A000A651BC4F4D0130E0225C3D4FF90197E05C
:1019B000AF01421B530BC22C01C0CC0C4A95EAF775
:1019C0008401D12CD8018D918D018C21492F4D1985
:1019D0004770A42E042E000C550BB82F01C0BB0F6E
:1019E000AA94EAF7AB2E51954195510947705527B6
:1019F00001C086954A95EAF7A82A8081A82AA08284
:101A0000D39448E0D412DECF915031969F3F81F6B7
:101A10008BAD9CAD4816590609F0B6CF04E610E030
:101A200020E230E04EE352E00DC0C301A5E0880F94
:101A3000991FAA95E1F7AC0146515C4F04E610E00E
:101A400020E230E060E488E70E944B31892B09F006
:101A50001FCFE094F0948091E8039091E903E8228D
:101A6000F922F092E903E092E80312CF0E943E24AB
:101A70000091B8031091B9032091BA033091BB03D0
:101A8000DC01CB01801B910BA20BB30B8F3F9F4F4F
:101A9000AF4FBF4710F40E94B82CF8ADF1110E946F
:101AA000D22C0E94822990916202891721F08093A2
:101AB00062020E943E248091CA02843009F086CBE3
:101AC00083E08093E9008091E80082FF7FCB8091E2
:101AD000E80085FF23C00E94572381111DC0F0E25A
:101AE000EF2EF12C8E010F5F1F4F09C08091F10086
:101AF000D8018D938D01B1E0EB1AF10869F0809166
:101B0000E80085FDF3CF8091E8008B778093E800B3
:101B10000E945723882399F391E001C090E08091BF
:101B2000E8008B778093E800992309F44FCB00916C
:101B300071021091720289810115110561F08E3FC9
:101B400009F04BC38A81833008F4BFC185508330CC
:101B500008F043C3BAC18B3009F49CC110F585303D
:101B600009F470C0B0F48230D9F130F4813009F05A
:101B700032C31A8289E099C2833009F456C0843096
:101B800009F029C34C816B818A810E94CF2A9D83F1
:101B900052C3873009F41FC308F01DC30E94652A91
:101BA0001CC3803109F4B5C078F48D3009F457C0F6
:101BB00008F453C0FE0131966F018E3009F453C012
:101BC0008F3009F479C007C3823109F4A8C008F442
:101BD000A3C0833109F4CFC08E3F09F476C1FBC2A4
:101BE0008A81823009F420C3833051F0813009F0BA
:101BF000F2C20E943E249B838C837D836E83EDC260
:101C00008091C6039091C703892B09F4E6C2FE01B7
:101C10003396CE010D96A9ADBAAD2D91BAAFA9AF4D
:101C20002193E817F907B9F7D8C28A81823009F001
:101C3000D2C26B817C818D819E810E947A340E9408
:101C40009329CBC22D813E813227232732274C8115
:101C50006B818A810E943E2AC0C280E15EC082E020
:101C60008A8388E022C20A811B811027012710275E
:101C7000AC80B12CBDE1AB16B10408F0AEC27F015F
:101C8000C80188509E4F97012C193D092A153B0524
:101C900008F0A3C20830E2E01E0730F40E94B93316
:101CA000D70114968C9302C0F70114820F5F1F4F67
:101CB000FFEFEF1AFF0AE4CF8091C6039091C703AC
:101CC000892B09F48AC20A811B811027012710275A
:101CD000EC80F12C2DE1E216F10408F07EC25F01E8
:101CE000C80188509E4F95012C193D092E153F05BE
:101CF00008F073C2083032E0130728F4D5011496B7
:101D00006C910E94D7330F5F1F4FBFEFAB1ABB0A16
:101D1000E7CF0E94192A61C283E08A835EC20A81EA
:101D20001B81102701271027CC80D12CEDE1CE1686
:101D3000D10408F052C29E012F5F3F4F5901790133
:101D4000C801889697012A193B092C153D0508F012
:101D500044C2083631E0130730F40E94B933D7018A
:101D600014968C9302C0F70114820F5F1F4FFFEF90
:101D7000EF1AFF0AE5CF0A811B81102701271027E0
:101D8000CC80D12C2DE1C216D10408F026C2380136
:101D900038E2630E711C083641E0140708F01DC2DA
:101DA00088E691E0801B910B8C159D0508F415C207
:101DB0008091C6039091C703DE0111965D01892BC6
:101DC00011F075015EC000FF0FC0C80187960E9428
:101DD000B93390E0982F88272D81822B81159C475D
:101DE00031F48FEF8D8303C0E12CF12C03C0EE247E
:101DF000E394F12CC8018C0D9D1D460180FF1BC092
:101E0000E1E08E1A910855E0452E512C4C0E5D1ED6
:101E1000480C591CC3018C0D9D1D0E94B933D20181
:101E20002C9130E0322F2227282B21153C4719F422
:101E30008FEFF2018083F501EE0DFF1D2FEFCF0133
:101E40008A199B098815990508F0BBCF848190E019
:101E5000982F88273581832B81159C4711F4248383
:101E600025833296ECCF083641E0140728F4D701D9
:101E700014966C910E94D7330F5F1F4FBFEFEB1A80
:101E8000FB0AC801889697012A193B092C153D05C4
:101E900050F3A3C18091C6039091C703892B09F425
:101EA0009CC140E250E0BE016F5F7F4F82E00E9424
:101EB0008A23EFEFF1EE24E0E150F0402040E1F71B
:101EC00000C000000E94DC2388C1EA818E2F90E0D0
:101ED0008E30910508F081C1FC01EA5AFF4F0C9445
:101EE000743488E0E7E4F1E0DE01919601900D9210
:101EF0008A95E1F7FE01319680E2DF011D928A9515
:101F0000E9F786E0898388E0B096DE0115960190B6
:101F10000D928A95E1F761C18CE8898382E08A831A
:101F20001B821C825AC18C8190E0982F88272B81BC
:101F3000820F911D092E000CAA0BBB0B35E0880FF8
:101F4000991FAA1FBB1F3A95D1F7AC01BD01405E96
:101F50005F4F6F4F7F4F481759076A077B0708F499
:101F60003CC18C38E2E09E07A105B10508F035C1FF
:101F70004D38F2E05F076105710520F04CE852E052
:101F800060E070E0481B590BBC01685F7B4FCE01DD
:101F900001960E94A03321C140E250E06FEF70E053
:101FA000CE0101960E94B9348091C60389830A83C9
:101FB0001B821C8285E08D831E8283E08F831886BE
:101FC00088E089871A8609C121E030E030937202E7
:101FD0002093710282E390E0909366028093650201
:101FE0000E9433299093640280936302F6C0012B10
:101FF00009F453C0E0ECF1E064EC71E024EC31E072
:1020000001E010E0DB018D91BD0190E089599D4F09
:10201000DC018C91482F50E0C101019002C0880F73
:10202000991F0A94E2F78423952341E050E0892B1D
:1020300011F440E050E0042315232E173F0711F759
:1020400080916302909164020E942F24853691054D
:10205000F0F0012BE1F00E94332990936402809309
:1020600063028091650290916602019790936602E7
:1020700080936502892B89F410927202109271028A
:10208000E1E0F0E0F093C703E093C60306C082E30B
:1020900090E090936602809365028091C6038983E5
:1020A000809171028A83809165028B8396C0109221
:1020B000C7031092C60391C040E250E06FEF70E09A
:1020C000CE0101960E94B93488C08B81813069F0BD
:1020D00018F0823009F181C0FE01319680E2DF0103
:1020E0001D928A95E9F788E077C08C819AE0F92EF5
:1020F0008E010F5D1F4FF8012F2D11922A95E9F7E0
:10210000B8010E94292A8983F801DE011296019004
:102110000D92FA94E1F761C06C818AE0FE01359678
:10212000DE01919601900D928A95E1F789A19AA11D
:1021300081153CE7930741F42091C6033091C70312
:10214000232B11F480E090E09AA389A38BA19CA19A
:1021500081154CE7940741F42091C6033091C703E1
:10216000232B11F480E090E09CA38BA38DA19EA172
:1021700081155CE7950741F42091C6033091C703B0
:10218000232B11F480E090E09EA38DA38FA198A54E
:102190008115ACE79A0741F42091C6033091C7033B
:1021A000232B11F480E090E098A78FA3683070F49F
:1021B000BAE06B9FB001112468557E4F4AE050E0B1
:1021C000CE0181960E94FB3380E001C08FEF8983AE
:1021D0000E94142D02C08FEF898340E250E0BE01BF
:1021E0006F5F7F4F82E00E948A230C94E608809103
:1021F000C902882311F40C94EF0809BDF9BC09B495
:1022000000FEFDCF8091D8008F7D8093D800809113
:10221000E00082608093E0008091E00081FDFCCFCF
:102220000E94B6270C94EF0887E290E00E94B93331
:102230001B821C821D828E83D0CF0E94B6272FEF77
:1022400084E39CE0215080409040E1F700C0000012
:102250009AE088E10FB6F894A895809360000FBECD
:1022600090936000FFCF982F92959F7019F0892F5F
:1022700024E001C020E0982F9695969511F02E5FEE
:10228000892F982F969509F02F5F822F0895A6E049
:10229000B0E0EDE4F1E10C94783326E0FC01DE01DE
:1022A000119601900D922A95E1F7FC012581898113
:1022B0009A81222359F0662349F00E94E824182FBE
:1022C000682F89819A810E94292703C00E94F526E0
:1022D000182F69817A81812F0E94F21A2696E3E0F5
:1022E0000C9494339C013A9521153F4130F5BC0183
:1022F00066277270AC01442754709C012227387005
:1023000094FF0FC090FF02C080E101C080E0672B06
:1023100009F08062452B09F08064232B79F08068F6
:102320000895892F8170672B09F08260452B09F091
:102330008460232B19F08860089580E00895A4E05C
:10234000B0E0E5EAF1E10C946A33FC012481222338
:1023500009F4EFC57C0161E00E9447118C01F7018F
:102360008581882331F1E091CD03F091CE03309740
:1023700001F10E171F07E9F0FF27E830F10540F4DF
:1023800064E0EE0FFF1F6A95E1F7EF5CFC4F02C0BF
:10239000E0E0F0E085818460858311830083CF01D4
:1023A0000E94EF291092CB0361E0C7010E94471100
:1023B0008C01F7018581882349F1C8019A9581151F
:1023C0009F4418F4C801992708C00F3F110509F070
:1023D00010F4C80102C080E090E09C012450310953
:1023E0002432310518F08B970E9780F4E091F201BA
:1023F000F0E0EE0FFF1FE950FE4F808191818F3F8B
:102400002FE7920719F0019691838083F701858168
:10241000882309F4C0C0C80197578038910508F097
:1024200005C1D02EFFE0F01708F4AAC28FEF93E0A9
:102430000E94B9338111A4C208EF11E0DD2071F0D0
:10244000011524E0120709F49BC2C8010E94B933A8
:10245000811101C0DA940F5F1F4FF0CF54E0552E69
:10246000AE014F5F5F4F3A0144244A94F301252D9A
:1024700011922A95E9F768013FEFC31AD30AC80100
:102480000E94B9338983882309F47AC2813009F024
:102490007EC0580142E0A40EB11CC6010E94B933AF
:1024A000382E8A83882309F46BC28FEF830D833023
:1024B00060F4680153E0C50ED11CC5010E94B93318
:1024C0008B83811164C08601D1CF8BEF830D833064
:1024D00078F5480183E0880E911CC5010E94B9334C
:1024E0008B83811102C06401EECF680194E0C90EB4
:1024F000D11CC4010E94B9338C83882321F32B8122
:102500003C812130EFEF3E0718F0922F80E001C0B0
:10251000C901F6E03F1631F027E0321631F00E9493
:102520007B2ED1CF0E94412ECECF0E94B92DCBCF92
:1025300034E0331611F06501C6CFC5010E94B933EE
:10254000B82E680144E0C40ED11CC80103960E9455
:10255000B933BB2009F414C2882309F411C2282F0F
:1025600030E021503109429EA001439E500D1124BC
:102570008B2D90E00197840F951F019708F4A3CF4E
:10258000EFE9FFE03197F1F700C00000F6CFC3019B
:102590000E94752F98CF680127E5D21A3FEFC31626
:1025A000D10411F008F04CC06EED73E08C2D0E9448
:1025B000292A892BB9F5C60144E0880F991F4A954D
:1025C000E1F7FC01EF5CFC4F22812130C9F420913E
:1025D000DE033091DF03232B29F12091E0033091BA
:1025E000E103232BF9F02091E2033091E303232B45
:1025F000C9F42091E4033091E503232B49F012C084
:10260000223081F42091E2033091E303232B51F037
:10261000FC01EA5CFC4F20812E7F20838F5C9C4F65
:102620000E94EF29F7018581882351F00E943E2402
:1026300060933702709338028093390290933A0284
:10264000C80197558F3F910511F008F062C05801FD
:10265000BB24F8E0AF16B1040CF092C1C50134E020
:10266000880F991F3A95E1F79C012F5C3C4F690157
:10267000F7012581AC014A5C5C4F5A01FA01808167
:1026800020FB80F98083F7018581882341F10E9436
:1026900033299093EB018093EA01F60182818F5FE9
:1026A00082839091CB038091CC03892B838380918B
:1026B000860284834681578166857785C6010E949C
:1026C000D029F501808181FF03C090E080E002C045
:1026D000902F812F9093CD038093CE031AC0F601E3
:1026E0004485558566857785C6010E94D029F50108
:1026F000808181FF0EC0C6010E94D6298091CD0342
:102700009091CE030817190721F41092CE0310926E
:10271000CD034801A12CB12CF801E851FC47E7306A
:10272000F10508F4E7C0F7018581882309F43CC16D
:102730001092CA03C8019057839708F00CC184E037
:1027400090E00E94C1339093DE018093DD01F4019B
:10275000E150F047E232F10520F4EC59FF4F0C94C0
:1027600074348091DD018160ACC08091DE018860AD
:10277000B4C08091DD018260A4C08091DD0120C0E1
:102780008091DD0188609DC08091DE011EC0809136
:10279000DE018260A2C08091DD01806192C08091E3
:1027A000DD0180628EC08091DD0180648AC00E945C
:1027B000B6278091DD01806884C08091DD0188604A
:1027C00084607FC08091DE018260816086C08091DC
:1027D000DD018E7F76C08091DE01877F7EC0809193
:1027E000DD018D7F6EC08091DD0120C08091DD0113
:1027F000877F67C08091DE011EC08091DE018D7FE2
:102800006CC08091DD018F7E5CC08091DD018F7D89
:1028100058C08091DD018F7B54C00E94B627809103
:10282000DD018F774EC08091DD01877F8B7F49C0AE
:102830008091DE018D7F8E7F50C08091DD0182FB13
:10284000222720F991E0922790FB82F990FB83F9EF
:1028500038C08091DE01982F909591708E7F892BE2
:1028600090FB81F93AC08091DD0186FB222720F997
:1028700091E0922790FB86F924C00E94B6278091B0
:10288000DD0187FB222720F991E0922790FB87F951
:1028900018C061E001C060E08EE090E00E94D73394
:1028A0001EC08091DD0184FB222720F991E0922750
:1028B00090FB84F906C08091DD01982F909590FBE4
:1028C00080F98093DD010BC08091DE0183FB22271C
:1028D00020F991E0922790FB83F98093DE016091CB
:1028E000DD017091DE0184E090E00E94F5330E94EA
:1028F000B62746C0EA57FF4F0C94743406E221EE27
:1029000041EE6AE17CE705C007E225EE45EE6BE1AA
:102910007CE7C7010E942C2D33C006E221EE40EE79
:1029200068E17CE7F6CF07E225EE44EE69E17CE75B
:10293000F0CF06E221EE42EE6CE17CE7EACF07E25F
:1029400025EE46EE6DE17CE7E4CF08E221E045EEBE
:102950006EE17CE7DECF0631FCE71F07A9F5809129
:10296000CC038A7A91E009F490E09093730281118C
:1029700019C069E284E792E00E9468290E94701CF5
:1029800080913003877009F4D4C2F70185818823D0
:1029900009F4CFC28091DE0182FFCBC282E00E94A7
:1029A0009027C7C265E3E6CF06312CE7120709F48A
:1029B0006BC207373CE7130709F4ACC208374CE792
:1029C000140709F4ADC21AC007373CE7130709F42E
:1029D0009FC208374CE7140709F49EC20330FCE796
:1029E0001F0709F481C208F063C201153CE7130711
:1029F00009F46CC201301C4709F47CC2F7018581DF
:102A000000811181882349F0C8010E94E824D82E52
:102A1000682FC8010E94292704C0C8010E94F5261A
:102A2000D82EB8018D2D0E94F21A0E940F1B8C0126
:102A3000A82EF701C580D680D2942FE0D2228091B3
:102A40003003877001F1CC20F1F0812F807F80343A
:102A500069F080E2800F8830B0F0812F807E803274
:102A600029F4F1E0F01778F4DD2069F08091DE01BF
:102A700082FF09C082E00E94902780913003877016
:102A8000BB24B3948111B12C912E92949FE0992292
:102A9000892D90E08C30910508F0D2C1FC01E357FC
:102AA000FF4F0C947434812F807F1F70882311F0A6
:102AB0001295107FCC20B9F0112309F4AFC180E248
:102AC000800F883010F0A11006C08091CC03182B25
:102AD0001093CC0305C08091CB03182B1093CB032C
:102AE0000E94701C9BC1802F0E94E627112309F4CD
:102AF000A7C1005E812F083068F1AA2059F10E9419
:102B0000121C2AC0812F807F1F70803211F0129515
:102B1000107FAA2029F021E0A21609F462C06DC03E
:102B20008091DE0182FD1BC0CC2069F0112339F0B9
:102B30008091CC03182B1093CC030E94701C80E072
:102B40000E9408287DC180E00E94E627112309F435
:102B500077C1812F0E94191C0E94701C71C1CC206A
:102B600061F1DD2009F44DC031E0D31212C0809133
:102B700086028123181709F463C10E9433299093B8
:102B800085028093840280918602182B109386021E
:102B900057C145E0D41254C1812F0E94DC27812FF8
:102BA0000E945B1C80912D03912F9823191709F423
:102BB00047C1182B10932D0343C1DD2041F051E094
:102BC000D5123EC18091CC03812309F439C1812FF4
:102BD0000E94D527812F0E945B1C812F0E947124A7
:102BE0002FC1CC2029F085E08D1508F429C109C03A
:102BF00094E09D1508F424C115C0CC2031F0D1100B
:102C00000DC1812F0E94DC271BC1DD2059F0093343
:102C100009F013C1EFEFF7EE23E0E150F040204060
:102C2000E1F709C1812F0E94D5270AC1812F837046
:102C3000A9F5C11009C1402F429546954770440F30
:102C4000440F802F8F7090E09C01042E01C0220F52
:102C50000A94EAF704FF08C08FE090E001C0880FF3
:102C60004A95EAF7809501C080E016951695137095
:102C7000123069F088F49091DC01113019F0822B48
:102C8000892302C0922B892B0E94B327DDC0822B9F
:102C90009091DC018927F8CF822BF6CFCC2019F058
:102CA000812F817001C08695882309F4CDC0402F03
:102CB000429546954770440F440F802F8F7090E0E7
:102CC0009C01042E01C0220F0A94EAF704FF08C0F9
:102CD0008FE090E001C0880F4A95EAF7809501C027
:102CE00080E0169516951370123059F078F4909193
:102CF0003602113019F0822B892309C0922B892BBF
:102D000006C0822B90913602892701C0822B0E9437
:102D10005E279AC01F70CC2039F0812F0E94A72710
:102D2000802F0E94DC2790C0802F0E94D527812F02
:102D30000E94832789C0802F32EFA31691F13A15A4
:102D400038F040EFA41659F051EFA51619F161C003
:102D500093EFA91669F1E4EFAE16C1F05AC0CC208A
:102D600081F0F4E0FD1508F46BC01F7181E090E084
:102D7000012E01C0880F0A94EAF790913602892744
:102D800022C025E02D1508F45BC0EFCF8091DE0155
:102D900082FD1CC0CC2039F0812F8F710E94A727A3
:102DA0004FC0CC20C9F3812F8F710E94832748C068
:102DB000CC2041F01F7181E0012E01C0880F0A94E0
:102DC000EAF701C080E00E945E273AC0CC2091F073
:102DD000809130038770843039F40E946A24812FF7
:102DE0008F710E9483274EC034E03D1508F44AC01D
:102DF00063E006C044E04D1540F40E946A2464E09C
:102E0000812F8F710E945A283DC081E00E94902737
:102E100039C0CC2029F0DD2009F4BECF802F90CE20
:102E2000DD2009F2893349F45FEF87EE93E05150DA
:102E300080409040E1F700C00000802F0E94E6270C
:102E400088EF890D843010F40E948229BB20A9F0FC
:102E50008091300380FD11C0F7011582869586951B
:102E600086950E94A727C7010E949F118091300379
:102E70008695869586950E94832760E0C7010E940B
:102E8000471157C0B12CE0CF8091730281110EC061
:102E900089E2E4E7F2E02AE732E09281891301C097
:102EA000128231962E173F07C1F768CD85E3F1CF27
:102EB0000B355CE7150741F10C358CE71807E1F09D
:102EC0000A351C4709F09ACD81E01FC00E94B62741
:102ED000EFEFF4E32CE0E150F0402040E1F700C0D8
:102EE00000000E94DC234CCD6FEF7FEF80E090E08C
:102EF0000E94F5330E941D118091DE0182FB88271C
:102F000080F991E0892701C080E00E94201C76CDE5
:102F100081E003C081E005C082E00E94A72703C0D2
:102F200082E00E94832743E062E081E00E94612703
:102F300027CD2496E1E10C948633ABE1B0E0E3EADF
:102F4000F7E10C9477334E8B5F8B688F798F8A8F84
:102F50009B8F91111092CB038E01015F1F4F87E071
:102F6000D8011D928A95E9F786E0FE017696D80190
:102F700001900D928A95E1F78091DE0182FF26C0D3
:102F80000E94332920912E0330912F03821B930B33
:102F90008838934140F08091300382FB992790F963
:102FA00081E0892701C080E080FF03C082E00E94A9
:102FB00090270E9433292091840230918502821B40
:102FC000930B8838934110F00E94071C8B8988234B
:102FD00021F061E0C8010E94471187E0FE013F96A1
:102FE000DE01189601900D928A95E1F7CE010896C0
:102FF0000E94472581113BC087E0FE013896DE0123
:10300000119601900D928A95E1F76C85662379F10E
:103010002091F30230E0C901019687709927409111
:103020002C0350E084179507A1F06D8397E0929FE1
:10303000D001939FB00D1124AC50BD4FFE013196CD
:1030400001900D929A95E1F78093F3020E947B2400
:103050000EC00E94B6271092F30210922C03ECEEE1
:10306000F2E087E0DF011D928A95E9F719C017E0C9
:1030700080912C039091F302891791F0189FC00161
:1030800011248C509D4F0E944725882349F0809140
:103090002C0390E001968770992780932C03E8CF4A
:1030A0006B96E4E00C94933381E080932F020895B3
:1030B00080E008959091DD0192FF10C041E0282F3B
:1030C0002471243009F040E031E0282F28712830A5
:1030D00009F030E0431711F02CE0822793FF10C075
:1030E00041E0282F2471243109F040E031E0282FFD
:1030F0002871283109F030E0431711F02CE08227C5
:103100003091DE0130FF10C051E0282F21712130B5
:1031100009F050E041E0282F2871283009F040E004
:10312000541711F029E0822731FF10C041E0282F09
:103130002171213109F040E031E0282F2871283138
:1031400009F030E0431711F029E0822794FD877ED3
:1031500008958238910569F1B0F48133910509F43D
:1031600075C048F48932910509F467C08A32910527
:1031700009F471C008958533910509F459C0893364
:103180009105B9F00895833E910589F138F4803EA8
:103190009105D1F0823E910529F10895863E910571
:1031A000C9F1873E9105D9F1843E910509F06CC0C3
:1031B00027C02091DD0120FD57C021FD55C0209181
:1031C000DE0123FD5BC008958091DD0180FD48C0D4
:1031D0008091DE0180FF48C08091DD0184FD46C002
:1031E00083EE51C08091DD0182FF3CC0F5CF80911C
:1031F000DD0182FD37C08091DE0180FD35C0ECCF5E
:103200008091DE0181FF36C08091DD0184FD2EC0FA
:1032100087EE39C08091DD0183FF2AC0F5CF809110
:10322000DD0183FD25C08091DE0181FD23C0ECCF4F
:103230008091DD0185FD22C01FC08091DD0185FDEB
:103240001BC08091DE0183FF19C00AC08091DD019F
:1032500086FD16C017C08091DD0186FD13C010C029
:1032600089E311C082EE0FC080EE0DC080E00BC07C
:1032700086EE09C084EE07C085E305C089E203C07D
:103280008AE201C081E390E00895A0E0B0E0EBE4C1
:10329000F9E10C9471337C015B016A018091B80201
:1032A0008A3018F001E010E002C00AE010E0C1E04E
:1032B000D0E0B501C701F6010995811115C021962D
:1032C0000C171D0794F0CC9F9001CD9F300D300D51
:1032D000112480E090E045E34A95F1F70000019663
:1032E00082179307C1F7E5CF81E0CDB7DEB7EAE0FB
:1032F0000C948D33A1E0B0E0E0E8F9E10C946D337B
:10330000C62E4A015901682E880F7708C3010E9412
:10331000DA32882309F466C0C30123E0880F991FBD
:103320002A95E1F7FC01EC5EFE4F438150E0411528
:10333000510511F041E050E0FC01EC5EFE4F64816C
:1033400075816F557D4FCE0101960E94B034F40116
:1033500060817181828193810E941324643671059A
:103360008105910538F4B701C8010E94FD2A9981B1
:103370008917D1F10C2C000CDD08C6010E94DA324D
:10338000782E8823E1F0E114F104C9F0960183E07E
:10339000220F331F8A95E1F7F901EC5EFE4F43815E
:1033A00050E0E416F50608F4A701F901EC5EFE4FC3
:1033B000648175816F557D4FC5010E94B034B7019E
:1033C000C8010E94FD2A91E02981281390E0D92E9E
:1033D000D72089F00E943E24F401608371838283A8
:1033E000938309C0D12C02C0DD24D394A701B80176
:1033F000C5010E94B0348D2D2196EEE00C948933E6
:10340000A8E0B0E0E6E0FAE10C94753388E0E82E3D
:10341000F12C08EA12E09E012F5F3F4F4DE952E088
:1034200063E082E00E947A19182F882389F1909135
:10343000A70280919C02981759F120E09091AB026D
:103440008091AA028917C9F0E92FF0E0EB55FD4FF2
:10345000878187FB662760F99F5F93709093AB022B
:103460009091A9029F5F9093A9028F770E94512BA0
:1034700021E08111E3CF10E002C0222329F084E093
:1034800090E00E94DA3218238091A70280939C0278
:10349000812F2896E6E00C949133A5E0B0E0E3E5B7
:1034A000FAE10C9473336B0185E0E82EF12C02EA0B
:1034B00012E09E012F5F3F4F48E952E061E080E05B
:1034C0000E947A19882349F095E0FE013196A3E91C
:1034D000B2E001900D929A95E1F795E0E3E9F2E010
:1034E000D60101900D929A95E1F72596E8E00C94AB
:1034F0008F33F894E82FE295EF70F0E031A1282F98
:103500002F7081E090E001C0880F2A95EAF7982F8C
:103510009095932391A392A1892B82A378940895E7
:103520000F931F938091CF03882319F00E943E24AC
:103530000EC00E943E240091CC011091CD0120913B
:10354000CE013091CF01600F711F821F931F1F9119
:103550000F910895A4E0B0E0E0EBFAE10C94793328
:103560006091B4027091B5028091B6029091B70259
:103570000E941324643671058105910570F10E9443
:10358000901ADC01CB010296A11DB11D89839A839B
:10359000AB83BC8380913D0190913E018F559D4F3F
:1035A00040913C0150E04530510510F044E050E0BE
:1035B000BE016F5F7F4F0E94B03485E090E00E94B3
:1035C000DA32882359F00E943E246093B40270934B
:1035D000B5028093B6029093B70281E02496E2E0B0
:1035E0000C9495332091710230917202232BA1F437
:1035F000703F39F4603F81F48091D4039091D503FA
:1036000008957A3048F4663038F4833028F4462F31
:10361000672F0E94CF2A089580E090E008951F93BD
:10362000CF93DF930E94A918EC01C11582E5D8075A
:10363000C8F5C11590E5D90708F0BBC0C83ED10553
:10364000C0F4C03ED10508F0DDC0C53AD10550F444
:10365000C430D10508F0D6C0219709F0D0C081E070
:1036600090E0D1C0CD3CD10508F4C9C0CE01906531
:10367000CAC0C11580E4D80708F05AC0C11590E24D
:10368000D90708F0AFC0C11581E0D80708F4B7C06A
:103690008D2F0E945A18182FCE0199270E94A91821
:1036A0001F71ABC0C03892E5D90720F5C03682E55E
:1036B000D80708F061C0C03492E5D90708F04AC0C5
:1036C000C03282E5D807F0F54C2F4695469590E23A
:1036D000499FA0011124C37021E030E0C90102C05C
:1036E000880F991FCA95E2F7EA01C82BD92BCE01A2
:1036F0009D6889C0C03C92E5D90768F48C2F8F7112
:10370000C03AD24508F04CC090E0D82FCC27CE016B
:10371000846F906A78C0C03E82E5D80708F06FC019
:10372000CF71DD27DC2FCC27CE01806F906A6BC074
:10373000CE0199270E94A918CC27DF70D06A8C2B64
:103740009D2B61C0CF71D0E0DC2FCC27CE01816FE3
:10375000906A59C08C2F8F718695869590E2899FCB
:1037600090011124C37081E090E002C0880F991F7E
:10377000CA95E2F79C6811C08C2F8F71869586954B
:1037800090E2899F90011124C37081E090E002C013
:10379000880F991FCA95E2F79A68822B932B33C042
:1037A0000E945A188F7190E0D82FCC27CE019062DA
:1037B0002AC08C2F8F710E945A1895E0D695C79514
:1037C0009A95E1F7CF70D0E0DC2FCC27282F30E09E
:1037D00084FF05C084E0220F331F8A95E1F7D0698A
:1037E000CE01DBCF8D2F8F710E945A18182FCE017A
:1037F00099270E94A9181F719062912B04C080E044
:1038000090E001C0CE01DF91CF911F91089580918A
:103810008602882331F0109286021092850210925F
:103820008402089580959091CB0389238093CB03E4
:10383000089580959091CC0389238093CC030895BB
:103840009091DE0192FB222720F9281779F080FB66
:1038500092F99093DE016091DD017091DE0184E0C8
:1038600090E00E94F53382E00E9490270895A6E040
:10387000B0E0EDE3FCE10C9477330E9433298C0136
:1038800080918702909188020817190781F01982A8
:103890001A820E943329682F49815A81792F80E04A
:1038A00090E00E949D17109388020093870226964D
:1038B000E4E00C94933390918602292F282379F029
:1038C0008095892380938602882319F00E943329EA
:1038D00002C080E090E09093850280938402089576
:1038E000CF93C091CC038091CB03C82B80918602EB
:1038F0008823F1F00E9433292091840230918502BF
:10390000821B930B8838934110F00E94071C809112
:103910008602C82BE6E7F2E097E080E0915029F0BC
:1039200021912223D9F38F5FF9CF81110E94071CC7
:10393000C093740248E050E06CE772E084E792E0E4
:103940000E94A334892BA9F088E0E4E7F2E0ACE719
:10395000B2E001900D928A95E1F7E091D103F091E8
:10396000D203309731F00280F381E02D84E792E0BA
:103970000995CF910895AFE0B0E0E1ECFCE10C9443
:103980006C33AE014F5F5F4F7A018AE0DA011D921E
:103990008A95E9F70DE911E06A0182EA682E81E073
:1039A000782EAA24A394B12C28EA822E21E0922E0C
:1039B000F80180818F3F09F440C0F894E82FE29528
:1039C000EF70F0E021A18F70A50102C0440F551FD8
:1039D0008A95E2F7CA01922F982B91A392A1809524
:1039E000892382A3789400C0E2EAF1E0512C31E00F
:1039F00021912F3F89F0A22FA295AF70B0E0909651
:103A00008C9190E02F7002C0959587952A95E2F7EA
:103A100080FD02C0832F01C080E0582A330F8E162C
:103A20009F0631F7D8018C918F3F11F00E94791ACF
:103A3000B0EABA95F1F7F60150820F5F1F4FFFEF22
:103A4000CF1ADF0A6016710609F0B2CF4AE050E0E3
:103A5000B70180ED91E00E94A334892B99F08AE0B0
:103A6000F701A0EDB1E001900D928A95E1F781E0B8
:103A700080938B020E94332990938A02809389025B
:103A8000F12C27C080918B028823D1F30091DB01B8
:103A90008091890290918A020E942F24059780F3D9
:103AA00010E009591D4F45E050E060ED71E0C8019C
:103AB0000E94A334892B09F4D8C085E0E0EDF1E041
:103AC000D80101900D928A95E1F7FF24F3941092AA
:103AD0008B028091CF03E091DB01882309F471C050
:103AE0006E012BE0C20ED11C85E0D6011D928A9595
:103AF000E9F70E2F10E009591D4F8091B8028A3066
:103B000048F44DE45AE1B601C8010E9445198823E2
:103B100069F10AC080918C0290918D020E942F243D
:103B2000843F914070F733C040E05AE1B601C801CC
:103B30000E9445198823D1F04AEA5AE1B601C8012A
:103B40000E944519882391F01092B8028091DA0101
:103B500090E045E050E0B60189599D4F0E94A334A2
:103B600021E020939202892BF1F479C08091B80270
:103B70008F3F19F08F5F8093B8028091B8028A302E
:103B800028F30E94332990938D0280938C028091B8
:103B90009202882309F463C085E0F60111928A95A8
:103BA000E9F710929202A091DA01B0E0A959BD4F55
:103BB00085E0FE013B9601900D928A95E1F781E048
:103BC0004FC0F0E0E959FD4F85E0A2EAB2E0019074
:103BD0000D928A95E1F765E070E082EA92E00E943A
:103BE000FD2A8093A10288E0EEEBF3E0A8EAB2E0C0
:103BF00001900D928A95E1F768E070E088EA92E022
:103C00000E94FD2A8093A7028090B0029090B1029A
:103C1000A090B202B090B30280918E0290918F0278
:103C2000A0919002B091910288169906AA06BB064F
:103C3000B1F080928E0290928F02A0929002B09288
:103C400091020E943E24861A970AA80AB90A809215
:103C5000CC019092CD01A092CE01B092CF0180E034
:103C60008F292F96EFE00C948833F12C30CF809180
:103C7000CC0287FF11C08091E80082FD05C08091D1
:103C8000CA028111F8CF11C08091E8008B770BC078
:103C90008091CA02882349F08091E80080FFF8CF24
:103CA0008091E8008E778093E8000895982F9730F0
:103CB00068F59093E900981739F07091EC00209125
:103CC000ED005091F00003C0242F762F50E021FD2D
:103CD00002C09F5FECCF3091EB003E7F3093EB0052
:103CE0003091ED003D7F3093ED003091EB0031607D
:103CF0003093EB007093EC002093ED005093F000B4
:103D00002091EE0027FDE5CF80E008958F7080932D
:103D1000E90081E008952091D2023091D302261764
:103D2000370748F06115710539F42091E8002E77C6
:103D30002093E80001C0B901FC0120E06115710584
:103D400079F18091CA028823F1F18530F1F18091F7
:103D5000E80083FD3CC08091E80082FD2EC0809188
:103D6000E80080FFEBCF2091F3008091F20090E01B
:103D7000922B6115710551F08830910538F421912D
:103D80002093F100615071090196F3CF21E008976B
:103D900009F020E08091E8008E778093E800CECF94
:103DA0002111CFCF0AC08091CA02882361F08530EB
:103DB00061F08091E80083FD0AC08091E80082FFF5
:103DC000F2CF80E0089582E0089583E0089581E0D5
:103DD00008950895089508958091BF020895AAE274
:103DE000B0E0E5EFFEE10C947833ECECF2E080918A
:103DF000F100819322E0E43DF207C9F78091CD0202
:103E0000833009F461C030F4813071F0823009F4FC
:103E10009BC0B2C08A3009F487C08B3009F46CC0F3
:103E2000893009F0A9C020C08091CC02813A09F004
:103E3000A3C08091E800877F8093E8008091D00242
:103E40009091D102892B21F468E080EC92E003C0CC
:103E500060E080E090E070E00E948B1E8091E800BE
:103E60008B778093E80088C08091CC02813209F082
:103E700083C08091D0029091D102892B09F07CC03F
:103E80008091E800877F8093E8008091E80082FDC0
:103E900005C08091CA028111F8CF6EC02091F30055
:103EA0008091F20090E0922B029731F48091F10022
:103EB000813011F0863021F48091F1008093BF02AF
:103EC0008091E8008B7754C08091CC02813A09F050
:103ED00053C08091D0029091D102892B09F04CC03F
:103EE0008091E800877F8093E8008091E80080FF60
:103EF000FCCF8091440137C08091CC028132E1F542
:103F00008091D0029091D102892BB1F58091E80087
:103F1000877F8093E8000E94371E8091CE028093B5
:103F200044010E94B62728C08091CC02813221F53D
:103F30008091E800877F8093E8000E94371E80917F
:103F4000CF028093BE0218C08091CC02813AA1F4C6
:103F50008091E800877F8093E8008091E80080FFEF
:103F6000FCCF8091BE028093F1008091E8008E77B3
:103F70008093E8000E94371E8091E80083FFE0C133
:103F80008091CC029091CD02492F50E04A305105EA
:103F900008F0D6C1FA01E756FF4F0C94743480380C
:103FA00021F0823809F0CCC108C08091C8029091FC
:103FB000C902992389F082600FC08091D0028F706E
:103FC000873008F0BDC18093E9008091EB0085FB4C
:103FD000882780F91092E9009091E800977F9093EC
:103FE000E8008093F1001092F10072C1282F2D7F1C
:103FF00009F0A6C1882319F0823061F0A1C1809137
:10400000CE02813009F09CC1933009F080E08093AA
:10401000C9022EC08091CE0281112AC08091D002A7
:104020008F702FEF280F263008F08AC18093E900A7
:104030002091EB0020FF1CC0933021F48091EB0015
:10404000806214C09091EB0090619093EB0021E0AE
:1040500030E0A90102C0440F551F8A95E2F7409352
:10406000EA001092EA008091EB0088608093EB00F8
:104070001092E9008091E800877F2DC1811160C115
:104080001091CE021F778091E3008078812B80937E
:10409000E3008091E800877F8093E8000E94371E4C
:1040A0008091E80080FFFCCF8091E30080688093DE
:1040B000E300111102C082E001C083E08093CA02D4
:1040C0003FC18058823008F03BC18091CE02909170
:1040D000CF028C3D53E0950779F583E08A838AE22D
:1040E00089834FB7F894DE01139620E03EE051E259
:1040F000E32FF0E050935700E49120FF03C0E295D6
:10410000EF703F5FEF708E2F90E0EA3010F0C796AF
:1041100001C0C0968D939D932F5F243149F74FBF07
:104120008091E800877F8093E8006AE270E0CE012A
:1041300001960E948B1EBAC04091D0025091D102CC
:10414000292F332723303105B1F068F421303105B0
:1041500009F405C12230310509F0F2C082E490E093
:10416000EAEFF6E050C02132310581F1223231050B
:1041700009F439C0E5C0992781309105B9F070F094
:1041800082309105D9F0039709F0DAC0EEE4F7E048
:10419000E4918E2F90E0EEE4F7E032C0EAE9F7E038
:1041A000E4918E2F90E0EAE9F7E02AC0E4E8F7E036
:1041B000E4918E2F90E0E4E8F7E022C0ECE6F7E02F
:1041C000E4918E2F90E0ECE6F7E01AC0411551051E
:1041D00009F4CAC04130510509F0B2C089E090E04D
:1041E000E5E2F7E010C04115510509F4C2C04130C5
:1041F000510509F0A5C082E290E0E4E9F6E003C0D1
:10420000009709F49DC02091E800277F2093E800E3
:104210002091D2023091D3028217930708F49C01B7
:1042200040E02115310589F18091CA02882309F403
:104230003DC08530D9F18091E80083FD37C0809181
:10424000E80082FD2FC08091E80080FFEACF409116
:10425000F3008091F20090E0942B2115310559F084
:104260008830910540F444914093F10031962150FB
:1042700031090196F2CF41E0089709F040E08091C2
:10428000E8008E778093E800CCCF4111CDCF0AC0F3
:104290008091CA02882351F0853041F08091E80076
:1042A00083FD04C08091E80082FFF2CF8091E80096
:1042B0008B778093E80044C0803809F041C080913A
:1042C000E800877F8093E8008091CB028093F10023
:1042D0008091E8008E778093E8000E94371E30C0FE
:1042E00081112EC08091CE029091CF029927029722
:1042F0003CF58091E800877F8093E8001091CE0222
:104300001093CB020E94371E111106C08091E3006A
:1043100087FD02C081E001C084E08093CA0242E0D0
:1043200061EC81E00E94561E42E261EC82E00E9454
:10433000561E42E260EC83E00E94561E8091CA0243
:104340008091E80083FF1AC08091E800877F809306
:10435000E8008091EB0080628093EB000FC082E167
:1043600090E0ECE3F7E04FCF89E090E0ECE0F7E09D
:104370004ACF84E490E0E6EBF6E045CFAA96E3E08E
:104380000C9494331F920F920FB60F9211242F9317
:104390003F934F935F936F937F938F939F93AF93CD
:1043A000BF93CF93DF93EF93FF93C091E900CF705A
:1043B0008091EC00D82FD17080FDD0E81092E900F8
:1043C0008091F000877F8093F00078940E94EF1E28
:1043D0001092E9008091F00088608093F000CD2B6E
:1043E000CF70C093E900FF91EF91DF91CF91BF9122
:1043F000AF919F918F917F916F915F914F913F917D
:104400002F910F900FBE0F901F901895E8EDF0E0E0
:1044100080818E7F80831092E2001092DA001092E9
:10442000E100A0EEB0E08C9181608C9380818F7769
:10443000808319BCA7EDB0E08C918E7F8C93808136
:104440008F7E80831092BD020895A0E0B0E0EBE281
:10445000F2E20C947333C8EDD0E088818F7E8883BC
:10446000E7EDF0E080818160808384E082BF81E0BD
:104470008093BD0288818E7F888302EE10E0F80170
:1044800010821092DA0081EEC82ED12CF601108233
:1044900088818F77888388818068888388818F7DF1
:1044A000888319BC1092CA021092CB021092C902E2
:1044B0001092C80290EEE92EF12CF70180818B7FDB
:1044C000808388818160888342E060E080E00E9490
:1044D000561EF60180818E7F8083F8018081816085
:1044E0008083808188608083F70180818E7F8083D4
:1044F000888180618883CDB7DEB7E8E00C948F3384
:104500001F920F920FB60F9211242F933F934F9348
:104510005F936F937F938F939F93AF93BF93EF932B
:10452000FF938091E10082FF09C08091E20082FF49
:1045300005C08091E1008B7F8093E1008091DA00DB
:1045400080FF2AC08091D80080FF26C08091DA00C9
:104550008E7F8093DA008091D90080FF18C080E1BF
:1045600089BD82E189BD09B400FEFDCF81E0809361
:10457000CA028091BD0281110FC00E9406220E94D2
:1045800025228091E20084608093E20005C019BC7E
:104590001092CA021092BD028091E10080FF17C004
:1045A0008091E20080FF13C08091E2008E7F8093B3
:1045B000E2008091E20080618093E2008091D80067
:1045C00080628093D80019BC85E08093CA028091F4
:1045D000E10084FF30C08091E20084FF2CC080E1C4
:1045E00089BD82E189BD09B400FEFDCF8091D8006C
:1045F0008F7D8093D8008091E1008F7E8093E100D1
:104600008091E2008F7E8093E2008091E2008160E1
:104610008093E2008091CB02882311F084E007C0F0
:104620008091E30087FD02C081E001C083E08093B8
:10463000CA028091CA028091E10083FF27C0809165
:10464000E20083FF23C08091E100877F8093E10037
:1046500082E08093CA021092CB028091E1008E7FAB
:104660008093E1008091E2008E7F8093E200809150
:10467000E20080618093E20042E060E080E00E941E
:10468000561E8091F00088608093F000FF91EF91BA
:10469000BF91AF919F918F917F916F915F914F915A
:1046A0003F912F910F900FBE0F901F901895209162
:1046B000E4003091E50095E64091EC00842F817094
:1046C00040FF23C08091E80080FD1DC08091CA0298
:1046D000882399F0853099F08091EB0085FD11C019
:1046E0004091E4005091E5002417350729F39150DB
:1046F00011F09A01E1CF84E0089582E0089583E00B
:10470000089581E0089580E008954091E80042FF17
:10471000DDCF08950F931F93CF93DF938B01EA01B1
:104720009091CA02943079F58F708093E9008FEFF1
:104730009091E800815095FD06C095ED9A95F1F7AE
:1047400000008111F5CF8091E80085FF1CC00E9418
:104750005723882361F08091E8008E778093E800EA
:1047600012C0F80181918F018093F1002197209769
:1047700091F38091E80085FDF4CF8091E8008E7779
:104780008093E800E4CFDF91CF911F910F910895BE
:10479000CF93DF93EC0148E050E0BC0181E00E9440
:1047A0008A2388E0FE01A0ECB2E001900D928A9588
:1047B000E1F7DF91CF91089587E797E7909301089C
:1047C000809300089AE088E10FB6F894A89580934A
:1047D00060000FBE90936000FFCF78941F920F92FD
:1047E0000FB60F9211248F939F93AF93BF93809135
:1047F000B9029091BA02A091BB02B091BC0201969D
:10480000A11DB11D8093B9029093BA02A093BB027F
:10481000B093BC02BF91AF919F918F910F900FBE4B
:104820000F901F901895CF92DF92EF92FF922FB7C3
:10483000F894C090B902D090BA02E090BB02F09018
:10484000BC022FBFA7019601261B370B480B590B43
:10485000CA01B901FF90EF90DF90CF9008959C01BD
:104860004FB7F8948091B9029091BA02A091BB021F
:10487000B091BC024FBF821B930B08952FB7F894E1
:104880006091B9027091BA028091BB029091BC0212
:104890002FBF089520912C039091F30257E0291720
:1048A000A9F030E0529FF001539FF00D1124EC501D
:1048B000FD4F7181761306C07081781303C0758136
:1048C000741306C02F5F3F4F2770E9CF80E0089533
:1048D00081E008951092300310922F0310922E035E
:1048E000089590912D03292F282321F08095982356
:1048F00090932D03089580912C039091F3028917D2
:1049000019F08F5F8770FBCF0895A0E0B0E0EBE86F
:10491000F4E20C9474338091F20282958F7009F066
:1049200052C08091F102882309F44DC0C0912C033C
:1049300087E0D82E8091F302C81709F444C0D0E074
:10494000DC9E8001DD9E100D1124F801EC50FD4F1E
:1049500084818823A9F191818091ED02981330C060
:1049600090818091EC0298132BC08581811128C021
:10497000E280F3808091EE029091EF02E81AF90A4A
:1049800060E08CEE92E00E9447116CEE72E00E94B3
:10499000F82CE816F906A0F48091F2028F7080617D
:1049A0008093F202F801E650FD4F80818F708061A4
:1049B00080838CEE92E00E949F110E947B2403C0B2
:1049C0002196C770B7CFCDB7DEB7E7E00C94903330
:1049D000CF92DF92FF920F931F93CF93DF936C01DF
:1049E000009136028091DC01082BC2E0D0E010E09B
:1049F000C8010C2E02C0959587950A94E2F780FDB8
:104A000004C02197A8F7F12C09C0FC2EB6018C2F09
:104A10000E94F21A0E940F1B019799F38F2DDF91CC
:104A2000CF911F910F91FF90DF90CF900895CF937A
:104A3000DF93EC010E94E824BE010E94F21A0E945A
:104A40000F1BDF91CF910895FC0124812223D9F01F
:104A5000808191810E94172592959F70963079F000
:104A600010F4925001C09A50923068F4803F69F07F
:104A700018F4883E40F409C0843F29F406C0883EFB
:104A800020F0813F11F080E0089581E00895A4E1D5
:104A9000B0E0EDE4F5E20C946C338C0186E0F801B3
:104AA000DE011F9601900D928A95E1F7F80174805E
:104AB000E5808CEEA82E82E0B82E8091F002811164
:104AC00022C0772009F454C0EE2009F44EC0C8017A
:104AD0000E942425F82E882309F447C087E0F801B6
:104AE000ACEEB2E001900D928A95E1F78091F00270
:104AF000813031F48091EC029091ED020E941725F3
:104B00000E9485246DC1F801C280D380F090F1022B
:104B10008091EE029091EF02FF2009F4FAC05080DC
:104B200061804601881A990A60E08CEE92E00E944A
:104B300047116CEE72E00E94F82C8816990608F076
:104B4000A2C07720A9F08091F202382F307F209107
:104B5000ED02F8019181332371F0291709F463C044
:104B6000C8010E942425811167C0C8010E949F11BD
:104B7000FF24F39435C1291314C02091EC029081D5
:104B800029130FC0E1100DC08F7080618093F20275
:104B90008CEE92E00E949F118091F202F8018683D0
:104BA0001EC1E1103AC040E0662D852D0E944A24C6
:104BB00040E0662D852D0E944A24E82E81110FC108
:104BC0005F86688A8F8598890E941725292F2295EC
:104BD0002F70243020F49F70223028F009C02A5012
:104BE000223080F014C0992349F0811107C013C00E
:104BF000992321F0F8019681907F69F0805E8830DA
:104C000030F409C0803F38F0815F833020F0C80164
:104C10000E949F11EF2CFE2CE3C08091F202816074
:104C20008093F202DCC02091EC02F80190812913FC
:104C300097CFE11095CFB2C0EE2009F496CF209126
:104C4000F202822F82958F7090E002978CF0809113
:104C5000EC029091ED0299878887DB86CA86809165
:104C6000F0028C871D862E87CE0108960E949F1128
:104C700087E0F801ACEEB2E001900D928A95E1F781
:104C80000E94852475CF8091F202982F907F51F475
:104C90008CEE92E00E949F1187E0F50111928A95B7
:104CA000E9F79DC0772009F463CF2091ED02F80168
:104CB000918129130CC02091EC029081291307C027
:104CC000E11005C08683C8010E949F1182C0C801FF
:104CD0000E942425882309F448CFEE2009F445CF0B
:104CE0002091F202822F82958F7090E002970CF44F
:104CF000BFCF8091EC029091ED029A838983DC8290
:104D0000CB828091F0028D831E822F83CE0101968B
:104D1000ADCF4601881A990A60E08CEE92E00E94BD
:104D200047116CEE72E00E94F82C8816990608F084
:104D300050C0772009F41CCFFE2CEE2009F415CFCB
:104D40009091ED02F8018181981335C09091EC02A9
:104D50008081981330C08091EE029091EF02C81AC2
:104D6000D90AF8ECCF16D104E8F48091F20280FD64
:104D700019C082958F70482F50E04115510591F070
:104D80002091F202F80126834F30510541F08F5FE8
:104D9000982F9295907F822F8F70892B8683C801E0
:104DA0000E949F1187E0F801ACEEB2E001900D92F5
:104DB0008A95E1F715C0C8010E942425811158CFBA
:104DC0008091F20281608093F202C8010E949F11DB
:104DD00007C087E0F50111928A95E9F701C0F12C2F
:104DE0008F2D6496EFE00C948833292F9A3078F554
:104DF000863068F590E036E0239F800D911D1124E8
:104E0000682F677023E0969587952A95E1F7FC0156
:104E1000EE0FFF1FE80FF91FEC52FD4F40E050E08E
:104E200080E0219130E0062E02C0369527950A9445
:104E3000E2F721703327042E01C0220F0A94EAF70B
:104E4000822B4F5F5F4F4330510559F7089580E043
:104E50000895292F9A3088F5863078F590E036E06D
:104E6000239F800D911D1124282F277051E001C030
:104E7000550F2A95EAF723E0969587952A95E1F74D
:104E8000FC01EE0FFF1FE80FF91FEC52FD4F20E071
:104E900030E070E04081CB01022E02C096958795EC
:104EA0000A94E2F781708195842785238427819372
:104EB0002F5F3F4F2330310569F708958093360205
:104EC00008959091360221E030E0F90101C0EE0F23
:104ED0008A95EAF7D90102C0AA0FBB1F6A95E2F7CB
:104EE000BD016E2B01C0220F4A95EAF7892F862358
:104EF000681303C0892F822B03C02095822F89233A
:104F00000E945E27089521E030E001C0220F8A95BB
:104F1000EAF720958091360282230E945E27089549
:104F2000909130038095892380933003282F277038
:104F300069F4981759F09091DE0192FF07C08695A9
:104F4000869586950E9483270E946A24089521E011
:104F500030E001C0220F8A95EAF780913602822B59
:104F60000E945E2708958093DC0108951092CC037F
:104F700086E0E6E7F2E0DF011D928A95E9F71092FC
:104F8000CB030E94701C0895882321F00E94121CFC
:104F90000E94701C0895882339F09091CB03892BCF
:104FA0008093CB030E94701C0895882321F00E94F7
:104FB000191C0E94701C0895882339F09091CC032D
:104FC000892B8093CC030E94701C08958823F9F0EC
:104FD0009CEF980F913A60F4E4E7F2E09281891334
:104FE00001C01282319692E0EA37F907B9F70DC095
:104FF00090E2980F983058F4877091E001C0990FB3
:105000008A95EAF7892F0E94191C0E94701C089546
:10501000CF938823A9F1C82F8CEF8C0F813AF0F43D
:10502000E6E7F2E08191C81729F082E0EC37F80753
:10503000C9F70EC0E4E7F2E08AE792E02281C213EA
:1050400001C0128231968E179F07C1F70E94701C13
:105050006C2F84E792E00E94682910C080E28C0FD8
:10506000883070F4C77081E090E001C0880FCA9565
:10507000EAF79091CC03892B8093CC030E94701C9B
:10508000CF9108951F93CF93DF93182FEB010E94C8
:105090000828209741F08FE99FE00197F1F700C0C1
:1050A00000002197F6CF812F0E94E627DF91CF9154
:1050B0001F9108959091DE0192FF10C098E0899FA2
:1050C00090011124262B209330030E94A7270E94D1
:1050D000332990932F0380932E0308950E94A727CE
:1050E00008951F93CF93DF93162FC091EA05D091B7
:1050F000EB058A30B9F42091B103CE018A5E93406A
:10510000622F70E00E945533281B822F66E00E94B8
:105110001334C82FC15008F4A2C060E080E20E949E
:105120007128F8CF8D30E9F4CA5ED3402091B103E5
:10513000622F70E0CE010E945533281B822F9E0102
:10514000280F311D2115324018F080E0C0E0D0E07A
:10515000C80FD11DC651DC4FD093EB05C093EA05B3
:105160007EC096E0FE01A2EBB3E001900D929A950D
:10517000E1F7803E30F086E0FE0111928A95E9F772
:105180000BC0F6E08F9FB00111246256784F46E0C5
:1051900050E0CE010E94A033111137C0C091EA0542
:1051A000D091EB0546E050E0BE0182EB93E00E9417
:1051B000A334892BC9F19E012A5E3340A90185E001
:1051C000569547958A95E1F781E090E0BC0102C0D1
:1051D000660F771F4A95E2F74091E8035091E90383
:1051E000462B572B2B5F3F4F65E0369527956A95E9
:1051F000E1F702C0880F991F2A95E2F7842B952BBF
:105200009093E9038093E8030FC0E091EA05F091E1
:10521000EB059F012A5F3F4F2E173F0709F4BECFD2
:10522000808180958193F8CF9E01245E3340409128
:10523000B103642F70E0C9010E945533481B46300A
:1052400010F4240F311D211582E0380710F020E002
:1052500030E026513C4F3093EB052093EA05DF9177
:10526000CF911F9108952FB7F8948091B902909132
:10527000BA02A091BB02B091BC022FBF08951F9249
:105280000F920FB60F9211248F939F93AF93BF93FA
:105290008091D303811113C08091B9029091BA0219
:1052A000A091BB02B091BC024196A11DB11D80939B
:1052B000B9029093BA02A093BB02B093BC02BF9113
:1052C000AF919F918F910F900FBE0F901F901895E7
:1052D0009C01FC0132969FEF80E04191461789F0D6
:1052E0009F3F19F4411101C0982F8F5F8630A9F7B5
:1052F0009F3F39F0F901E90FF11D97FDFA9562839F
:10530000089508958091CF03882359F0E091D10347
:10531000F091D203309729F00190F081E02D0995AA
:10532000089580E0089587E290E00E94D7330895C1
:10533000CF93C82F811102C06FEF01C068EF84E2E4
:1053400090E00E94D733C11102C06FEF01C064EE3C
:1053500085E290E00E94D733C11102C06FEF01C017
:105360006EEE86E290E00E94D733CF91089584E2FA
:1053700090E00E94B933883F81F485E290E00E947A
:10538000B933843E51F486E290E00E94B93391E053
:105390008E3E09F090E0892F01C080E08170089571
:1053A0004115510511F0FA0109950895CF93DF9346
:1053B000EC014A855B856E857F850E94D0298B81B3
:1053C0000E94121C8C810E94191C0E94701C86E095
:1053D000FE0111928A95E9F7DF91CF910895CF935D
:1053E000DF93EC018D8181FD17C082608D839091E8
:1053F000CB038B81892B8093CB039091CC038C8141
:10540000892B8093CC030E94701C488559856E853A
:105410007F85CE010E94D0291092CE031092CD0339
:105420008D8180FD03C0CE010E94D629DF91CF91EE
:105430000895CF93DF93C8EFD1E060E0CE010E94E2
:10544000D7332196C11584E0D807B9F7DF91CF9102
:105450000895883080F49B01982F8AE0989FB001CE
:10546000112468557E4F4AE050E0C9010E94A933DB
:1054700080E090E008958FEF9FEF08951F93CF9302
:10548000DF93962F8330E8F46A30D8F44630C8F4BE
:10549000632F122FC42FD0E0CC0FDD1F2CE0929F82
:1054A000C00DD11D112498E7899FC00DD11D112475
:1054B000CE0188960E94D733612FCE0189960E9433
:1054C000D733DF91CF911F910895CF92DF92FF9252
:1054D0000F931F93CF93DF93CDB7DEB72A970FB605
:1054E000F894DEBF0FBECDBFC090C603D090C703F7
:1054F00081E090E09093C7038093C60300E010E042
:10550000F12C21E030E04F2D612F802F0E943E2AA8
:10551000F39486E0F812F5CF1F5F1A3089F70F5F1A
:10552000033069F71A8219821C821B821E821D8237
:1055300018861F8288EC90E09A87898708EA11E034
:105540004AE050E0B801CE0101960E94FB33065FAD
:105550001F4F083F81E0180799F7D092C703C09208
:10556000C6032A960FB6F894DEBF0FBECDBFDF91FB
:10557000CF911F910F91FF90DF90CF90089580E021
:105580000E94982960E070E0CB010E9493290E945C
:10559000652A0E94192A81E00E94982908950F9394
:1055A0001F93CF93DF93833008F56A30F8F44630C9
:1055B000E8F4C42FD0E0CC0FDD1F2CE0629FC00DBB
:1055C000D11D112438E7839FC00DD11D1124CE01B8
:1055D00088960E94B93390E0182F0027CE01899653
:1055E0000E94B9339801282BC90102C080E090E0E5
:1055F000DF91CF911F910F910895FC01680F791FE2
:105600008FEF91E3E617F70771F02191822728E0E9
:1056100030E087FF03C0880F892701C0880F215021
:105620003109B9F7EFCF089590E0FC01662319F036
:10563000EA5BFE4F02C0EB5BFE4F20812F3F71F013
:10564000E22FE295EF70F0E080A190E02F7002C0B1
:10565000959587952A95E2F78170089580E00895E1
:1056600090E0FC01662319F0EA5BFE4F02C0EB5BA1
:10567000FE4F80818F3FA1F0E82FE295EF70F0E0C0
:1056800031A1282F2F7081E090E001C0880F2A956A
:10569000EAF7982F9095932391A392A1892B82A347
:1056A00008959091C003E92FF0E04091C10350E0CC
:1056B0009F012F5F3F4F2370332742175307A1F0FD
:1056C000EE53FC4F8F7720812078822B60FB87F987
:1056D00080839F5F93709093C0038091BE038F5F20
:1056E0008093BE0381E0089580E00895A4E3B0E0D4
:1056F000ECE7FBE20C94693380E096E0592E5E0102
:1057000025E2A20EB11C28E0222EFE01BB96FAABC8
:10571000E9AB3E01F9E16F0E711C8E01015E1F4F76
:105720007E012DE0E20EF11C33E0432E6E0133E1E9
:10573000C30ED11CFE013196FCABEBAB4E01F7E082
:105740008F0E911C9091C1032091C003291709F479
:10575000CCC0E92FF0E0EE53FC4F808187FB22277D
:1057600020F98F779F5F93709093C1039091BF034F
:105770009F5F9093BF03811153C0222351F1EBA986
:10578000FCA9252D11922A95E9F7598233243394E7
:105790003A820E9433298160682F9C838B834981E0
:1057A0005A817C818D8191E00E949D17F401252D05
:1057B00011922A95E9F75F8238860E943329816029
:1057C000682F9A8789874F8158857A858B859C8534
:1057D00052C0F701252D11922A95E9F75D864E8674
:1057E0000E9433298160682F988B8F874D855E8555
:1057F0007889898991E00E949D17F601252D1192E3
:105800002A95E9F75B8A4C8A0E9433298160682FC8
:105810009E8B8D8B4B895C897E898F89988D55C035
:10582000813009F055C0222349F1F301252D119251
:105830002A95E9F7598E5A8E0E9433298160682F84
:105840009C8F8B8F498D5A8D7C8D8D8D91E00E9420
:105850009D17F801252D11922A95E9F75F8E58A220
:105860000E9433298160682F9AA389A34F8D58A184
:105870007AA18BA19CA10E949D172CC0F501252D1A
:1058800011922A95E9F75DA22EA20E943329816028
:10589000682F98A78FA34DA15EA178A589A591E057
:1058A0000E949D17E9A9FAA9252D11922A95E9F7D9
:1058B0005BA62CA60E9433298160682F9EA78DA726
:1058C0004BA55CA57EA58FA598A90E949D1706C033
:1058D000222321F06AE070E08EE403C06AE070E009
:1058E0008BE40E94422881E02DCFE496E2E10C9403
:1058F0008533FF920F931F93CF93DF93EC01F62E26
:10590000FC0101900020E9F78F0101501109C01737
:10591000D10728F46F2D89910E947128F8CFCDB757
:10592000DEB7E5E00C9492332091B10336E0839F1B
:10593000C0011124629F800D911D1124811522E068
:10594000920714F080E090E086519C4F9093EB0515
:105950008093EA050895AB0124E630E0BC0188E7B6
:105960000E94FF3021E0892B09F020E0822F08956A
:105970008091BD039091BC03882389F0992369F03D
:1059800062E070E080EE9CE00E94AB2C811103C0CD
:105990008091BC0308951092BC039091BC0381E0F8
:1059A000892708958091BD038823F9F00E943E2441
:1059B000DC01CB01805A9541AF4FBF4F8093B803B4
:1059C0009093B903A093BA03B093BB038091BC0337
:1059D00081110BC062E070E08EED9CE00E94AB2C68
:1059E000882319F081E08093BC038091BC03089563
:1059F000AAE0B0E0EEEFFCE20C9479339C0137555D
:105A00002F3F310509F050F4BE016F5F7F4F0E94B8
:105A1000292A892B19F489859A8502C088EC90E09F
:105A20002A96E2E00C949533E1E3F3E080E090E025
:105A300060E07FE246E85EE223EF3DE27783668343
:105A4000518740873387228797878687019670968C
:105A50008830910599F70895A0E0B0E0E2E3FDE217
:105A60000C9471337C015B01C42FD22FFC01858122
:105A70008823B1F04093CA030E9433299093C9034D
:105A80008093C80380E28C0F883008F06DC0C77027
:105A900081E001C0880FCA95EAF70E94DC2764C044
:105AA0008091CA03481342C08091C8039091C903F2
:105AB0000E942F246C01B701C5010E94F82CC81662
:105AC000D906A0F510E21D0FCD17E9F080E28C0F8A
:105AD000883040F4C77081E001C0880FCA95EAF7AA
