:100000000C94C5060C94FD060C94FD060C94343239
:100010000C94FD060C94FD060C94FD060C94FD0654
:100020000C94FD060C94FD060C945F1F0C941A1E94
:100030000C9473210C94FD060C94FD060C94FD06A3
:100040000C94FD060C94FD060C94FD060C94FD0624
:100050000C94FD060C940A210C94FD060C94FD06EC
:100060000C94FD060C94FD060C94FD060C94FD0604
:100070000C94FD060C94FD060C94FD060C94FD06F4
:100080000C94FD060C94FD060C94FD060C94FD06E4
:100090000C94FD060C94FD060C94FD060C94FD06D4
:1000A0000C94FD060C94FD060C94FD06390F540FBC
:1000B0005B0FB610B610940FAC0FBF0F20102510B9
:1000C000B610B610B6102E10B5132914BD13871331
:1000D0008B13C1138E13C413CF1399131F149D13C5
:1000E000D313A113D7130114A513DB130B14AB13F4
:1000F000E113EB139213C8139513CB13B013E6134C
:10010000F713171419148313B91332145B14611401
:100110004C14521467146D147314211521155015C5
:100120005015EE16EE16EE16EE16E4155816691674
:100130006916FB2B222CCC2D222CCC2D6A2C8D2C3D
:10014000CC2D882D9C2D00DA0281FFD9F1DB20A473
:10015000A62EAF00A0C0D30000A1C8D30000AED52A
:1001600080A81F408D142000FD377A585A000004E3
:10017000E6D6B4460200210116000000742FE5A364
:10018000E00579016C5D003D8889C65436C3174F80
:10019000E4E62B87DC61F128B5AEA0A33C3CF45F1C
:1001A0007424B52C3D20C7689B3A8E08CE16E28F8A
:1001B000DD74FFA04F08D43D201DD0558F11BBB179
:1001C0003287318A341491884A492E35E0342D0C17
:1001D0004017CB8358625A56E00D9F62DA4BAE5BF4
:1001E00045BF183451C520CBE27D2187EED1C855DB
:1001F00010CE6A11A6F96CF5DE57B9251CB2E41EC3
:10020000FA09B5D9CB843109475C5F76323FE2CE3B
:10021000654803E5D10762410B62549F992A59163C
:1002200074BD214C9A760A85B737FF44E902F2B5CE
:100230007798D5B4A35BE63596FE3BAE37D3417CC9
:1002400025730D4CE16D2538FE8D984EEC308719E5
:100250005860AB29CEB04028B99B438AD70DAC7803
:10026000A9B5CE14F413C9A5F778491C04D019D444
:1002700056625E5F580B30DBA4265E0F7BF09F65F5
:10028000E518F7212EC40692893B89A06F83C9CC5B
:10029000316844C5D5E8DB65E04BA84F7675B2EA16
:1002A00088D11F1238396BA58E88E96EBBADF39FDC
:1002B00081D4A33416DC36B70FD080E3E2ACEC4F28
:1002C000BE939931794938E9A6E91A117D29605B15
:1002D0005D9D92BDE3AFD5BC9B8C240B034BC951F4
:1002E0003A7EDF280A32682D4D2FB50592211F274F
:1002F0003A047A007EF78BECD9A739A30001880372
:10030000FA0A0000AD4B5A92B1C467FB020000002C
:100310000004595A250026001F0035002000230044
:1003200000000C0012001500290017001C0014002A
:100330000E000F0009002B000A000B000000360021
:1003400037001900E100050011001D00040028001D
:10035000E300E0002352E40000002D00270022000B
:100360001E00210024000000010013004B000800C3
:10037000A90018001A003400330000000700A8008C
:100380000D000000E50038004E000600AA00100035
:100390001B002C00E2002252E600E70016000000DD
:1003A0000660FF0961A1010962150026FF00952082
:1003B000750881020963150026FF009520750891D4
:1003C00002C005010906A101050719E029E715008A
:1003D00025019508750181029501750881010507C0
:1003E000190029FF150026FF0095067508810005F4
:1003F000081901290515002501950575019102953A
:100400000175039101C009024200020100A0FA092E
:10041000040000010301010009211101000122442F
:100420000007058103080001090401000203000020
:10043000000921110100012222000705820320008A
:10044000010705030320000112010002000000085B
:1004500032FC87020200010203011C0376006900DE
:1004600061006C003A006600360034006300320020
:1004700062003300630000000E03530020004300BD
:1004800068006F006300000008034200720069000A
:100490000000040309040000000000000000000048
:1004A000000000000000000000000000000000004C
:1004B000000000000000000000007E0F00D4FFFFDD
:1004C000FFC70000007800000000000000002A2B99
:1004D00028000000000000000000000000000000F4
:1004E0000029000000002C1E34202122243426275D
:1004F000252E362D3738271E1F202122232425267E
:100500003333362E37381F0405060708090A0B0C4B
:100510000D0E0F101112131415161718191A1B1C93
:100520001D2F3130232D350405060708090A0B0C51
:100530000D0E0F101112131415161718191A1B1C73
:100540001D2F3130354C00000000E0100808C8B005
:100550008080808080808040403C14040890180493
:1005600008B040800000000000000102C4A4FC00AC
:100570000000008000000000000000000080C8585B
:10058000282A100F000000000000000E09040404D7
:100590000402030201010202040810262B320405A2
:1005A000060000000000000000E01010F000000055
:1005B000000000000080808078280810203008109B
:1005C0002040800000000000000304081011F90121
:1005D000010101010100000000000000000110B055
:1005E0005055201F00000000000000000000000126
:1005F000020C10202837021E2020180C141E0100A7
:10060000000000000000000000000080402010906A
:100610009090A0C08080807008140890101008A4EA
:1006200078800000000000000000000708FC0100C6
:10063000000000800000010000000000000818EA2F
:10064000100F0000000000000000000000031C204C
:10065000203C0F111F03061820203C0C121E010025
:10066000000000000000000000000000804020208A
:1006700020408000000000E01028102020201048BA
:10068000F0000000000000000000001F20F8020140
:10069000010101010101030000000001001030D53B
:1006A000201F00000000000000000000003F20307C
:1006B0000C020509121E021C140810202C32010025
:1006C000000000000000000000000000000000002A
:1006D00000000000E01C02050224040402A91EE040
:1006E000000000000000000000000000E0100868AA
:1006F00010080403000000000000000206827C03D2
:100700000000000000000000000000000102040CD6
:100710001010202020283E1C20203E0F111F00001A
:1007200000000000000000000000000000000000C9
:1007300000000000E01C02050224040402A91EE0DF
:100740000000000000000000000000E090081860B9
:100750001008040300000000000000020E827C0369
:100760000000000000000000000000000102040C76
:100770001010202020283E1C20203E0F111F0000BA
:100780000000000000000000000000008040404029
:100790004080000000000000C04040800080408099
:1007A000000000000000000000001E21F004020212
:1007B0000202030202040404030100000901808014
:1007C000AB04F8000000000000000000031C202023
:1007D0003C0F111F020618202038081018040402CC
:1007E00002010000000000000000000080404040C6
:1007F0008000000000000000E0A0204080C02040F9
:10080000800000000000000000003E41F0040202F1
:10081000020302020204040201000000040040403E
:1008200055827C0000000000000000003F20300CDA
:10083000020509121E0418100810202834060201AF
:1008400001000000000007087F0807003E5B4F5BC7
:100850003E003E6B4F6B3E001C3E7C3E1C00183C35
:100860007E3C18001C577D571C001C5E7F5E1C00E0
:1008700000183C180000FFE7C3E7FF000018241829
:100880000000FFE7DBE7FF0030483A060E002629AC
:1008900079292600407F05050700407F05253F0098
:1008A0005A3CE73C5A007F3E1C1C0800081C1C3EBA
:1008B0007F0014227F2214005F5F005F5F00060943
:1008C0007F017F00006689956A006060606060005B
:1008D00094A2FFA2940008047E04080010207E2049
:1008E000100008082A1C0800081C2A0808001E100E
:1008F000101010000C1E0C1E0C0030383E3830005A
:10090000060E3E0E060000000000000000005F0022
:100910000000000700070000147F147F1400242A41
:100920007F2A1200231308646200364956205000C3
:10093000000807030000001C224100000041221CA7
:1009400000002A1C7F1C2A0008083E0808000080BE
:10095000703000000808080808000000606000000F
:100960002010080402003E5149453E0000427F40ED
:1009700000007249494946002141494D330018148D
:10098000127F10002745454539003C4A494931004E
:10099000412111090700364949493600464949298C
:1009A0001E00000014000000004034000000000899
:1009B00014224100141414141400004122140800DD
:1009C0000201590906003E415D594E007C12111288
:1009D0007C007F49494936003E41414122007F4128
:1009E00041413E007F49494941007F090909010011
:1009F0003E41415173007F0808087F0000417F415C
:100A000000002040413F01007F08142241007F4048
:100A1000404040007F021C027F007F0408107F00DE
:100A20003E4141413E007F09090906003E415121F6
:100A30005E007F0919294600264949493200030111
:100A40007F0103003F4040403F001F2040201F0027
:100A50003F4038403F0063140814630003047804E7
:100A600003006159494D4300007F414141000204A8
:100A700008102000004141417F00040201020400EF
:100A800040404040400000030708000020545478D4
:100A900040007F2844443800384444442800384407
:100AA00044287F0038545454180000087E0902007E
:100AB00018A4A49C78007F080404780000447D40BA
:100AC00000002040403D00007F102844000000410D
:100AD0007F4000007C04780478007C0804047800DF
:100AE000384444443800FC182424180018242418DE
:100AF000FC007C08040408004854545424000404F6
:100B00003F4424003C4040207C001C2040201C002E
:100B10003C4030403C004428102844004C909090C9
:100B20007C004464544C440000083641000000003E
:100B300077000000004136080000020102040200B4
:100B40003C2623263C00000000000000404040F00E
:100B5000F8F8FF38FFF8F83FF8F8FF38FFF8F8F03A
:100B600040404000000000000080C0C0C080000085
:100B7000C0C08000000080C0C000C0C0000080C0B5
:100B8000C00000000000C0C0C0C0C000C0C0000065
:100B90000000000000000000000000000000000055
:100BA0000000000000000000000000000000000045
:100BB0000000000000000000000000000000000035
:100BC0000000000000C0F0F8FC3E1E06010000001E
:100BD0007F4141417F007F4141417F000080C0E073
:100BE0007E5B4F5BFEC00000C000DCD7DEDEDED7E0
:100BF000DC00C00000000000000000000000000059
:100C0000000000000000000000000000494949FF0A
:100C1000FFFFFFE0DFBFBF00BFBFDFE0FFFFFFFF61
:100C200049494900000000001F3F6060E0BF1F000D
:100C30007F7F071E381E077F7F007F7F0E1F3B715F
:100C40006000000000007F7F0C0C0C007E7E007FA7
:100C50007E0303007F7E03037E7E03037F7E000FFF
:100C60003E703C063C703E0F00327B49493F7E009F
:100C70007F7E0303001E3F69696F260000000000AD
:100C80000000000000030F1F3F3C78706000000070
:100C90007F4141417F007F4141417F00307B7F7830
:100CA00030202030787F3B0003000F7F0F0F0F7F35
:100CB0000F00030000000000000000000000000022
:100CC000000000000000000000000000010101071A
:100CD0000F0F7F0F7F0F0F7E0F0F7F0F7F0F0F07FD
:100CE00001010100000000000000000000010100FF
:100CF00000000000000000000000000000000000F4
:100D000000000000000000000000000000000000E3
:100D100000000000000000000000000000000000D3
:100D200000000000000000000000000000000000C3
:100D300000000000000000000000000000000000B3
:100D400000000000000000000000000000000000A3
:100D50000000000000000000000000000000000093
:100D60000000000000000000000000000000000083
:100D70000000000000000000000000000000000073
:100D800000000000000000AF00AE11241FBECFEF36
:100D9000DAE0DEBFCDBF04B603FE18C0809139068D
:100DA00090913A06A0913B06B0913C068730904B5B
:100DB000A740B04B59F41092390610923A0610929F
:100DC0003B0610923C06E0E0F8E3099512E0A0E053
:100DD000B1E0EAEEFEE602C005900D92A630B10742
:100DE000D9F726E0A6E0B2E001C01D92A933B20710
:100DF000E1F70E94FF060C9473370C940000ABE3FC
:100E0000B0E0E5E0F7E00C94693385B7806885BF12
:100E100085B7806885BF84B7877F84BF0FB6F89495
:100E2000A8958091600088618093600010926000B6
:100E30000FBE90E080E80FB6F89480936100909325
:100E400061000FBE86E298E190930702809306024C
:100E50000E94A62E0E945E1E0E94041F8091E20046
:100E600084608093E2007894809186038823A1F0C7
:100E70001091E9001F709091EC00892F817090FD16
:100E800080E8182B1092E9008091E80083FD0E9411
:100E90001B2B1F701093E90082E084BD93E095BD89
:100EA0009AEF97BD80936E0010920802109209028B
:100EB00010920A0210920B020E94EB21811102C0D3
:100EC0000E948B2388EC90E02091E30027FD0EC068
:100ED000AFE3BCE91197F1F700C000000197A1F75B
:100EE0000E945E1E1092860380E001C081E0809324
:100EF000FD028093FE0280930C0181110E94EF316C
:100F000088E0ECEEF2E0DF011D928A95E9F780912E
:100F10000C0191E089278093670280910C019093E6
:100F20006A0280910C0180910C01811106C085EF4D
:100F300080935F0184EF8093600160E080E00E9415
:100F4000FC2361E080E00E94FC23EFE8F1E03197B0
:100F5000F1F700C0000010E080916A02181790F4C9
:100F600060E0812F0E94E023082F61E0812F0E9422
:100F7000E023E12FF0E0E859FD4F880F082B0083B4
:100F80001F5FEACF80910C01811128C085E0E2E665
:100F9000F1E0DE01919601900D928A95E1F7FE0154
:100FA000B196A7E0B1E0CE01869621912D938E17E0
:100FB0009F07D9F787E0E7E6F1E0DE01119601909F
:100FC0000D928A95E1F7FE013196A0E0B1E0CE01E5
:100FD000089621912D938E179F07D9F780910C01C8
:100FE000882311F090E001C095E09093170285E00E
:100FF000891B8093160207E011E09CE0E92E91E046
:10100000F92ED8018D918D018F3F11F00E94C51AE4
:10101000E016F106B1F700E011E087E0E82E81E08C
:10102000F82EF80181918F018F3F11F00E94C51AAF
:10103000E016F106B1F78AE0EFE9F2E0DF01282FD0
:101040001D922A95E9F7ECE0F2E0DF011D928A9506
:10105000E9F780E090E00E94C133853E9E4F21F485
:101060000E94EB21811163C065EE7EEF80E090E08D
:101070000E94F53360E082E090E00E94D73381E087
:101080008093180261E083E090E00E94D73360E033
:1010900074E184E090E00E94F53360E086E090E047
:1010A0000E94D73360E087E090E00E94D73340E0B1
:1010B00050E0BA0188E090E00E94E93360E083E20A
:1010C00090E00E94D73360E08CE090E00E94D7333C
:1010D00060E08DE090E00E94D73319821A821B8273
:1010E0001C821D821E821F82188648E050E067E144
:1010F00070E0CE0101960E94C73340E050E0BA0193
:101100008FE190E00E94E93380E00E94CC210E94B0
:101110008B2340E050E0BA018FE090E00E94E93379
:1011200040E050E0BA0183E190E00E94E93382E0C0
:1011300090E00E94B93380931B0284E090E00E940B
:10114000C13390931A02809319020E94771CEFEF2B
:10115000F6E721E0E150F0402040E1F700C0000058
:101160000E94771C80919F0280FF08C06FEF7FEF85
:1011700080E090E00E94F5330E94E62083E090E05A
:101180000E94B9330E94DB2783E08093960280E2BD
:10119000809394030E947F306BE070E08DE591E0D6
:1011A0000E943D2E882389F18091960265E070E0CF
:1011B00081FD28C088E591E00E943D2E882329F119
:1011C0006DE070E086E491E00E943D2E8823E9F016
:1011D0000E945B21DC01CB01805A9541AF4FBF4F8C
:1011E0008093330690933406A0933506B093360669
:1011F0000E94282E81E08093380680933706109253
:10120000970203C083E591E0D7CF8091FD02811161
:1012100002C00E94F2318DE091E090930003809330
:10122000FF0280918603853009F045C010E400E19B
:10123000B2E1FB2E80918603853009F038C08091A1
:101240008603843039F10E944A2E0E944A2E109261
:10125000010368E170E00FB6F894A8956093600010
:101260000FBE1093600083B7817F846083BF83B714
:10127000816083BF7894889583B78E7F83BF0FB6D4
:10128000F894A89580916000886180936000109226
:1012900060000FBE0E94771CEFE9F2E0819181119E
:1012A0006EC789EA92E08E179F07C1F7C3CF0E94ED
:1012B0003E280E94B6210E94771CACE1EA2EA2E0F3
:1012C000FA2EAFE9B2E0B9AFA8AF26E232E0F701FB
:1012D00091918D9189272E173F0719F08823C1F32B
:1012E00006C0811104C00E94531C712C3CC0809028
:1012F000FD02FFE9CF2EF2E0DF2E10E07724739499
:10130000F60191906F01D701AC90A92411F100E092
:10131000BB24B3948A2D8B21B1F08820A1F00AABB5
:101320001BAB0E9467219DAB8CAB7EAA91E0892DFF
:101330008B2109F490E09FAB4AA95BA96CA97DA918
:101340008EA90E946B170F5FBB0C073019F7F701CE
:1013500090821F5FFFEFEF1AFF0A1A3089F60E9492
:10136000DC1A772473948091FD02882309F4FFC06E
:101370008091FB029091FC02892B79F180912602E9
:10138000909127020E944C218C01BE01655D7F4F28
:1013900087E0DB011D928A95E9F78091FB0290912D
:1013A000FC020E948A2E80179107B8F48091FB02FC
:1013B0009091FC0299278830910540F4E4E0880F71
:1013C000991FEA95E1F78D549A4F02C080E090E0B2
:1013D000FC01258122FF0E942322C0903302D0907D
:1013E00034020D2C000CEE08FF0810911701412F5C
:1013F00050E0E5E3F2E081E090E04817590764F03F
:10140000219131914901330FAA08BB08C80CD91C9E
:10141000EA1CFB1C0196F1CFF7FE03C0C12CD12CB6
:10142000760160912F02709130028091310290918B
:1014300032020E9430211B012C01A0E6BAEEA70166
:1014400096010E9481344B015C01F8EC1F9F9001D2
:101450001124C901330FAA0BBB0B9C01AD01220D56
:10146000331D441D551DA5E0B0E00E9481349B0151
:10147000AC01C501B4010E94333449015A0157FD42
:101480000CC021EF82169104A104B1044CF070EF5E
:10149000872E912CA12CB12C03C0812C912C5401AE
:1014A00039EC231631044104510414F180912E02C9
:1014B00090E0019669E170E00E941F3480932E0253
:1014C000880F991FFC01ED5CFD4F118210821831CD
:1014D00010F41F5F01C018E1109317010E945B21F7
:1014E00060932F0270933002809331029093320206
:1014F00062E0C616D104E104F1041CF4812C912CA5
:10150000540160912A0270912B0280912C029091DB
:101510002D020E9430216B017C0175E6C716D104B3
:10152000E104F10484F00E945B2160932A0270932D
:101530002B0280932C0290932D0280916C02809359
:1015400029028092280210912902A0912802B0E07D
:10155000A11BB109A70196010E948C3424E630E05A
:1015600040E050E00E945534120F10936C028091BD
:10157000FD02882321F00E94EE2DD82E01C0D12C2F
:1015800080916B02882351F010926B028091EE02E1
:101590008093EF028091EC028093ED02E12C809128
:1015A0006A02E81608F042C061E08E2D0E94E02336
:1015B000182F60E08E2D0E94E023E12FEE0F8E2B7E
:1015C0000E2D10E0D801A859BD4FEC912E2F23709D
:1015D00030E0482F50E02417350731F1EE0FEE0FC1
:1015E000E82BEC93809167028E0DEF70F0E0E153F1
:1015F000FE4F0B591D4FF080D8019C91F90EFC92C3
:10160000B3E0BF1514F460E004C0EDEFFE161CF467
:1016100061E00E941D248F2DFF0C990B64E070E0A7
:101620000E941F34D8018C93E394B9CF8091FD02BE
:10163000882319F00E94EE2DD82ADD2021F00E9487
:10164000DC1A7724739480913806882309F4EEC15C
:1016500080919802909199020E944C21C29708F4BF
:10166000D7C00E946721909399028093980260E00E
:1016700080E00E94112E80916C0290E09093910383
:10168000809390030E94B6218091FD02882309F483
:1016900069C060917202709173028091740290919E
:1016A00075020E943021613375478105910518F05C
:1016B0000E944A2EADC00E94642E0E94282E62E035
:1016C00080E00E94112E86E791E00E94F32963E0FA
:1016D00080E00E94112E80916D020E94F9108130ED
:1016E00059F038F0823059F0833069F488E891E09D
:1016F00008C08CE791E005C082E891E002C08EE866
:1017000091E00E94F32968E080E00E94112E84E9B4
:1017100091E00E94F32969E080E00E94112E8AE99D
:1017200091E00E94F3290E940B2A60916E02709151
:101730006F0280917002909171020E943021693C89
:1017400071058105910508F463C00E945B216093D7
:101750006E0270936F0280937002909371020E94E8
:101760000B2A56C061E080E00E94112E8FE991E0C3
:101770000E94F32963E080E00E94112E85EA91E047
:101780000E94F32964E080E00E94112E8BEA91E030
:101790000E94F32965E080E00E94112E82EB91E027
:1017A0000E94F32966E080E00E94112E88EB91E010
:1017B0000E94F32967E080E00E94112E8EEB91E0F9
:1017C0000E94F3296AE080E00E94112E809191032B
:1017D0008F93809190038F9384EC91E09F938F93EC
:1017E0008E010F5F1F4F1F930F930E94C034C801DB
:1017F0000E94F3296BE080E00E94112E8AEC91E0B8
:101800000E94F3290F900F900F900F900F900F9060
:1018100080919B0390919C03892B31F48091370632
:10182000882309F403C1EBC0809138068823B1F303
:10183000809197028111F2CF0E94642E20919B0328
:1018400030919C032115310549F380E0482E512C3D
:10185000EE24E394F12C082E02C0EE0CFF1C0A9437
:10186000E2F7A9014E215F21452B11F48F5FEECFE6
:1018700090919602920145E0220F331F4A95E1F7BD
:1018800090FF13C085E0369527958A95E1F7220FE2
:10189000220F220F20931A0110921D01295F20931D
:1018A0001B0183E080931E0111C0220F232F221FF2
:1018B000330B31958295880F807680931A0120939F
:1018C0001D01815E80931B0120931E0124E630E000
:1018D00047E050E068E171E088E70E94B430892B6E
:1018E00009F09CCF8091960280FF68C080E2E6E715
:1018F000F2E0DF011D928A95E9F7B5E0440C551C32
:10190000BA95E1F7E3EEF1E0FBAFEAAF4FED51E05E
:1019100017EE212E11E0312EAAADBBAD8D91BBAFDC
:10192000AAAFFA019191AF019201290F311DB901BE
:1019300063567C4F4B0190E08A589D4FFC0107E0B5
:101940009F01281B390BCC24C39401C0CC0C2A95D1
:10195000EAF7B401D12CDB011D91BD011C21202F20
:101960002D192770B22E022E000C330BB12F01C09F
:10197000BB0FBA94EAF7BB2E319521953109277038
:10198000332701C016952A95EAF7B12A1081B12AAA
:10199000B082D39428E0D212DECF015031960F3FAF
:1019A00079F66AAD7BAD2616370609F0B5CF04E6A9
:1019B00010E020E230E046E752E00DC0C201A5E0B1
:1019C000880F991FAA95E1F7AC0143565C4F04E6D6
:1019D00010E020E230E060E488E70E944B31892B80
:1019E00009F01CCFE094F09480919B0390919C03AC
:1019F000E822F922F0929C03E0929B030FCF0E9411
:101A00005B21009133061091340620913506309108
:101A10003606DC01CB01801B910BA20BB30B8F3F71
:101A20009F4FAF4FBF4710F40E944A2E71100E9483
:101A3000642E0E94B62190919A02891721F080931A
:101A40009A020E945B2180918603843009F0E9CBE1
:101A500083E08093E9008091E80082FFE2CB8091EF
:101A6000E80085FF23C00E947D1E81111DC0F0E2A9
:101A7000EF2EF12C8E010F5F1F4F09C08091F100F6
:101A8000D8018D938D01B1E0EB1AF10869F08091D6
:101A9000E80085FDF3CF8091E8008B778093E80024
:101AA0000E947D1E882399F391E001C090E080910F
:101AB000E8008B778093E800992309F4B2CB00917A
:101AC000A9021091AA0289810115110561F08E3FCA
:101AD00009F04CC38A81833008F4BFC1855083303C
:101AE00008F044C3BAC18B3009F49CC110F58530AD
:101AF00009F470C0B0F48230D9F130F4813009F0CB
:101B000033C31A8289E09AC2833009F456C0843004
:101B100009F02AC34C816B818A810E949B239D839B
:101B200050C3873009F420C308F01EC30E94262347
:101B30001DC3803109F4B5C078F48D3009F457C065
:101B400008F453C0FE0131966F018E3009F453C082
:101B50008F3009F479C008C3823109F4A8C008F4B1
:101B6000A3C0833109F4CFC08E3F09F476C1FCC213
:101B70008A81823009F41EC3833051F0813009F02C
:101B8000F3C20E945B219B838C837D836E83EEC2B4
:101B90008091F4029091F502892B09F4E7C2FE01CD
:101BA0003396CE010D96A8ADB9AD2D91B9AFA8AFC2
:101BB0002193E817F907B9F7D9C28A81823009F071
:101BC000D3C26B817C818D819E810E947A340E9478
:101BD000C721CCC22D813E813227232732274C8159
:101BE0006B818A810E94FF22C1C280E15EC081E0D8
:101BF0008A8388E323C20A811B81102701271027CB
:101C0000AC80B12CBDE1AB16B10408F0AFC27F01CE
:101C1000C80188539D4F97012C193D092A153B0592
:101C200008F0A4C20833E1E01E0730F40E94B93383
:101C3000D70114968C9302C0F70114820F5F1F4FD7
:101C4000FFEFEF1AFF0AE4CF8091F4029091F502C2
:101C5000892B09F48BC20A811B81102701271027C9
:101C6000EC80F12C2DE1E216F10408F07FC25F0157
:101C7000C80188539D4F95012C193D092E153F052C
:101C800008F074C2083331E0130728F4D501149624
:101C90006C910E94D7330F5F1F4FBFEFAB1ABB0A87
:101CA000E7CF0E94DA2262C284E08A835FC20A819F
:101CB0001B81102701271027CC80D12CEDE1CE16F7
:101CC000D10408F053C29E012F5F3F4F59017901A3
:101CD000C801889697012A193B092C153D0508F083
:101CE00045C2003332E0130730F40E94B933D70104
:101CF00014968C9302C0F70114820F5F1F4FFFEF01
:101D0000EF1AFF0AE5CF0A811B8110270127102750
:101D1000CC80D12C2DE1C216D10408F027C23801A5
:101D200038E2630E711C003362E0160708F01EC231
:101D300080E392E0801B910B8C159D0508F416C280
:101D40008091F4029091F502DE0111965D01892BDC
:101D500011F075015EC000FF0FC0C80187960E9498
:101D6000B93390E0982F88272D81822B81159C47CD
:101D700031F48FEF8D8303C0E12CF12C03C0EE24EE
:101D8000E394F12CC8018C0D9D1D460180FF1BC002
:101D9000E1E08E1A910855E0452E512C4C0E5D1E47
:101DA000480C591CC3018C0D9D1D0E94B933D201F2
:101DB0002C9130E0322F2227282B21153C4719F493
:101DC0008FEFF2018083F501EE0DFF1D2FEFCF01A4
:101DD0008A199B098815990508F0BBCF848190E08A
:101DE000982F88273581832B81159C4711F42483F4
:101DF00025833296ECCF003362E0160728F4D70132
:101E000014966C910E94D7330F5F1F4FBFEFEB1AF0
:101E1000FB0AC801889697012A193B092C153D0534
:101E200050F3A4C18091F4029091F502892B09F43A
:101E30009DC140E250E0BE016F5F7F4F82E00E9493
:101E40009420EFEFF1EE24E0E150F0402040E1F784
:101E500000C000000E94E62089C1EA818E2F90E038
:101E60008E30910508F082C1FC01EA5AFF4F0C94B4
:101E7000743488E0EEE6F1E0DE01919601900D9277
:101E80008A95E1F7FE01319680E2DF011D928A9585
:101E9000E9F786E0898388E0B096DE011596019027
:101EA0000D928A95E1F762C18CEA898381E08A8389
:101EB0001B821C825BC18C8190E0982F88272B812C
:101EC000820F911D092E000CAA0BBB0B35E0880F69
:101ED000991FAA1FBB1F3A95D1F7AC01BD01405E07
:101EE0005F4F6F4F7F4F481759076A077B0708F40A
:101EF0003DC18C3AE1E09E07A105B10508F036C16D
:101F00004D3AF1E05F076105710520F04CEA51E0C0
:101F100060E070E0481B590BBC0168597E4FCE0150
:101F200001960E94A03322C140E250E06FEF70E0C2
:101F3000CE0101960E94B9348091F40289830A830C
:101F40001B821C8285E08D831E8283E08F8318862E
:101F500088E089871A860AC121E030E03093AA021E
:101F60002093A90282E390E090939E0280939D02C9
:101F70000E94672190939C0280939B02F7C0012BE3
:101F800009F454C0E7EEF1E06BEE71E02BEE31E0C6
:101F900001E010E0DB018D91BD0190E081569D4F85
:101FA000DC018C91482F50E081E090E0019002C06C
:101FB000880F991F0A94E2F78423952341E050E0AB
:101FC000892B11F440E050E0042315232E173F071E
:101FD00009F780919B0290919C020E944C218536CA
:101FE0009105F0F0012BE1F00E94672190939C0293
:101FF00080939B0280919D0290919E020197909305
:102000009E0280939D02892B89F41092AA0210925D
:10201000A902E1E0F0E0F093F502E093F40206C0DB
:1020200082E390E090939E0280939D028091F4025F
:1020300089838091A9028A8380919D028B8396C0B7
:102040001092F5021092F40291C040E250E06FEF5E
:1020500070E0CE0101960E94B93488C08B81813036
:1020600069F018F0823009F181C0FE01319680E2FA
:10207000DF011D928A95E9F788E077C08C819AE0AC
:10208000F92E8E010F5D1F4FF8012F2D11922A9509
:10209000E9F7B8010E94EA228983F801DE0112966D
:1020A00001900D92FA94E1F761C06C818AE0FE0123
:1020B0003596DE01919601900D928A95E1F789A1FE
:1020C0009AA181153CE7930741F42091F4023091E5
:1020D000F502232B11F480E090E09AA389A38BA151
:1020E0009CA181157CE7970741F42091F40230917F
:1020F000F502232B11F480E090E09CA38BA38DA12B
:102100009EA18115ACE79A0741F42091F402309129
:10211000F502232B11F480E090E09EA38DA38FA104
:1021200098A58115BCE79B0741F42091F4023091FA
:10213000F502232B11F480E090E098A78FA368307C
:1021400070F4EAE06E9FB001112468587D4F4AE0B8
:1021500050E0CE0181960E94FB3380E001C08FEFFA
:1021600089830E94A62E02C08FEF898340E250E04F
:10217000BE016F5F7F4F82E00E94942052C8809121
:102180008503882309F456C809BDF9BC09B400FECB
:10219000FDCF8091D8008F7D8093D8008091E000A2
:1021A00082608093E0008091E00081FDFCCF0E947E
:1021B0003E2840C887E290E00E94B9331B821C820F
:1021C0001D828E83D3CF0E943E282FEF84E39CE0B4
:1021D000215080409040E1F700C000009CE088E181
:1021E0000FB6F894A895809360000FBE909360009E
:1021F000FFCF982F92959F7019F0892F24E001C08E
:1022000020E0982F9695969511F02E5F892F982FA4
:10221000969509F02F5F822F0895A6E0B0E0E3E1E4
:10222000F1E10C94783326E0FC01DE011196019077
:102230000D922A95E1F7FC01258189819A8122235B
:1022400059F0662349F00E94F924182F682F8981DC
:102250009A810E943A2703C00E940627182F69819D
:102260007A81812F0E943E1B2696E3E00C949433E2
:102270009C013A9521153F4130F5BC0166277270EB
:10228000AC01442754709C012227387094FF0FC082
:1022900090FF02C080E101C080E0672B09F08062FE
:1022A000452B09F08064232B79F080680895892FED
:1022B0008170672B09F08260452B09F08460232B25
:1022C00019F08860089580E00895A4E0B0E0EBE69E
:1022D000F1E10C946A33FC012481222309F4F7C54F
:1022E0007C0161E00E940D118C01F701858188233A
:1022F00031F1E091FB02F091FC02309701F10E17F1
:102300001F07E9F0FF27E830F10540F464E0EE0F25
:10231000FF1F6A95E1F7ED54FA4F02C0E0E0F0E0EC
:1023200085818460858311830083CF010E942322ED
:102330001092F90261E0C7010E940D118C01F701B2
:102340008581882349F1C8019A9581159F4418F425
:10235000C801992708C00F3F110509F010F4C80102
:1023600002C080E090E09C01245031092432310504
:1023700018F08B970E9780F4E0912E02F0E0EE0FAC
:10238000FF1FED5CFD4F808191818F3F2FE792070A
:1023900019F0019691838083F7018581882309F4E0
:1023A000C0C0C80197578038910508F005C1D02EEC
:1023B000FFE0F01708F4B2C28FEF93E00E94B93348
:1023C0008111ACC208EC12E0DD2071F0011524E0AF
:1023D000120709F4A3C2C8010E94B933811101C0D8
:1023E000DA940F5F1F4FF0CF54E0552EAE014F5FD0
:1023F0005F4F3A0144244A94F301252D11922A9506
:10240000E9F768013FEFC31AD30AC8010E94B93344
:102410008983882309F482C2813009F07EC0580183
:1024200042E0A40EB11CC6010E94B933382E8A8343
:10243000882309F473C28FEF830D833060F4680141
:1024400053E0C50ED11CC5010E94B9338B838111A5
:1024500064C08601D1CF8BEF830D833078F54801BE
:1024600083E0880E911CC5010E94B9338B838111D2
:1024700002C06401EECF680194E0C90ED11CC40112
:102480000E94B9338C83882321F32B813C81213036
:10249000EFEF3E0718F0922F80E001C0C901F6E08F
:1024A0003F1631F027E0321631F00E94802FD1CF55
:1024B0000E94462FCECF0E94BE2ECBCF34E03316E3
:1024C00011F06501C6CFC5010E94B933B82E68016D
:1024D00044E0C40ED11CC80103960E94B933BB204E
:1024E00009F41CC2882309F419C2282F30E02150B6
:1024F0003109429EA001439E500D11248B2D90E086
:102500000197840F951F019708F4A3CFEFE9FFE02F
:102510003197F1F700C00000F6CFC3010E94642A92
:1025200098CF680127E5D21A3FEFC316D10411F006
:1025300008F054C069EA75E08C2D0E94EA22892BCC
:10254000B9F5C60144E0880F991F4A95E1F7FC01EF
:10255000ED54FA4F22812130C9F42091A905309120
:10256000AA05232B29F12091AB053091AC05232B33
:10257000F9F02091AD053091AE05232BC9F42091DF
:10258000AF053091B005232B49F012C0223081F401
:102590002091AD053091AE05232B51F0FC01E8549C
:1025A000FA4F20812E7F20838D549A4F0E94232240
:1025B000F7018581882391F00E945B21609372026C
:1025C000709373028093740290937502C8018B7F9D
:1025D000803E910519F481E080939203C8019755DC
:1025E0008F3F910511F008F062C05801BB24F8E05C
:1025F000AF16B1040CF092C1C50134E0880F991FE9
:102600003A95E1F79C012D543A4F6901F701258174
:10261000AC0148545A4F5A01FA01808120FB80F9DD
:102620008083F7018581882341F10E94672190937F
:10263000270280932602F60182818F5F8283909128
:10264000F9028091FA02892B838380917903848334
:102650004681578166857785C6010E940422F5016F
:10266000808181FF03C090E080E002C0902F812F25
:102670009093FB028093FC021AC0F60144855585B5
:1026800066857785C6010E940422F501808181FF5D
:102690000EC0C6010E940A228091FB029091FC02AA
:1026A0000817190721F41092FC021092FB0248014E
:1026B000A12CB12CF801E851FC47E730F10508F4F2
:1026C000E7C0F7018581882309F43CC11092F80224
:1026D000C8019057839708F00CC184E090E00E94F5
:1026E000C13390931A0280931902F401E150F0472C
:1026F000E232F10520F4EC59FF4F0C9474348091D0
:1027000019028160ACC080911A028860B4C08091C7
:1027100019028260A4C08091190220C08091190220
:1027200088609DC080911A021EC080911A0282604A
:10273000A2C080911902806192C0809119028062CA
:102740008EC08091190280648AC00E943E288091C8
:102750001902806884C080911902886084607FC0FB
:1027600080911A028260816086C0809119028E7FFA
:1027700076C080911A02877F7EC0809119028D7F7A
:102780006EC08091190220C080911902877F67C0B6
:1027900080911A021EC080911A028D7F6CC08091B8
:1027A00019028F7E5CC0809119028F7D58C0809184
:1027B00019028F7B54C00E943E28809119028F77A6
:1027C0004EC080911902877F8B7F49C080911A0289
:1027D0008D7F8E7F50C08091190282FB222720F9C5
:1027E00091E0922790FB82F990FB83F938C08091A9
:1027F0001A02982F909591708E7F892B90FB81F90A
:102800003AC08091190286FB222720F991E0922795
:1028100090FB86F924C00E943E288091190287FB14
:10282000222720F991E0922790FB87F918C061E0F8
:1028300001C060E08EE090E00E94D7331EC080911E
:10284000190284FB222720F991E0922790FB84F95A
:1028500006C080911902982F909590FB80F9809383
:1028600019020BC080911A0283FB222720F991E004
:10287000922790FB83F980931A026091190270915C
:102880001A0284E090E00E94F5330E943E2846C080
:10289000EA57FF4F0C94743406E221EE41EE6AE1F0
:1028A0007CE705C007E225EE45EE6BE17CE7C7015A
:1028B0000E944D2233C006E221EE40EE68E17CE743
:1028C000F6CF07E225EE44EE69E17CE7F0CF06E2C1
:1028D00021EE42EE6CE17CE7EACF07E225EE46EE20
:1028E0006DE17CE7E4CF08E221E045EE6EE17CE7B4
:1028F000DECF0631FCE71F07A9F58091FA028A7A3C
:1029000091E009F490E09093AB02811119C069E263
:1029100087E093E00E949C210E94F32780916E0340
:10292000877009F4D4C2F7018581882309F4CFC2E6
:1029300080911A0282FFCBC282E00E94A127C7C207
:1029400065E3E6CF06312CE7120709F46BC20737BF
:102950003CE7130709F4ACC208374CE7140709F445
:10296000A9C21AC007373CE7130709F49FC208370A
:102970004CE7140709F4A2C20330FCE71F0709F46F
:1029800081C208F063C201153CE7130709F46CC269
:1029900001301C4709F47CC2F70185810081118157
:1029A000882349F0C8010E94F924D82E682FC80155
:1029B0000E943A2704C0C8010E940627D82EB801F9
:1029C0008D2D0E943E1B0E945B1B8C01A82EF701DF
:1029D000C580D680D2942FE0D22280916E0387707A
:1029E00001F1CC20F1F0812F807F803469F080E20A
:1029F000800F8830B0F0812F807E803229F4F1E0A2
:102A0000F01778F4DD2069F080911A0282FF09C086
:102A100082E00E94A12780916E038770BB24B3944B
:102A20008111B12C912E92949FE09922892D90E0F2
:102A30008C30910508F0D2C1FC01E357FF4F0C9494
:102A40007434812F807F1F70882311F01295107FBE
:102A5000CC20B9F0112309F4AFC180E2800F883097
:102A600010F0A11006C08091FA02182B1093FA0200
:102A700005C08091F902182B1093F9020E94F327E8
:102A80009BC1802F0E946E28112309F4A7C1005E0C
:102A9000812F083068F1AA2059F10E946D242AC0C4
:102AA000812F807F1F70803211F01295107FAA2035
:102AB00029F021E0A21609F462C06DC080911A02CB
:102AC00082FD1BC0CC2069F0112339F08091FA02FD
:102AD000182B1093FA020E94F32780E00E9490289E
:102AE0007DC180E00E946E28112309F477C1812FF7
:102AF0000E9474240E94F32771C1CC2061F1DD2073
:102B000009F44DC031E0D31212C0809179038123C2
:102B1000181709F463C10E9467219093780380938A
:102B2000770380917903182B1093790357C145E0FF
:102B3000D41254C1812F0E946428812F0E94DE2765
:102B400080916B03912F9823191709F447C1182B13
:102B500010936B0343C1DD2041F051E0D5123EC11B
:102B60008091FA02812309F439C1812F0E945D28E6
:102B7000812F0E94DE27812F0E9482242FC1CC202A
:102B800029F085E08D1508F429C109C094E09D1550
:102B900008F424C115C0CC2031F0D1100DC1812F13
:102BA0000E9464281BC1DD2059F0093309F013C1CC
:102BB000EFEFF7EE23E0E150F0402040E1F709C1EC
:102BC000812F0E945D280AC1812F8370A9F5C11051
:102BD00009C1402F429546954770440F440F802FFE
:102BE0008F7090E09C01042E01C0220F0A94EAF736
:102BF00004FF08C08FE090E001C0880F4A95EAF713
:102C0000809501C080E0169516951370123069F01A
:102C100088F490911802113019F0822B892302C098
:102C2000922B892B0E94DB27DDC0822B909118020A
:102C30008927F8CF822BF6CFCC2019F0812F817015
:102C400001C08695882309F4CDC0402F4295469552
:102C50004770440F440F802F8F7090E09C01042E2A
:102C600001C0220F0A94EAF704FF08C08FE090E049
:102C700001C0880F4A95EAF7809501C080E016955B
:102C800016951370123059F078F490916D0211304E
:102C900019F0822B892309C0922B892B06C0822B25
:102CA00090916D02892701C0822B0E946F279AC0E4
:102CB0001F70CC2039F0812F0E94CF27802F0E94D7
:102CC000642890C0802F0E945D28812F0E94942745
:102CD00089C0802F32EFA31691F13A1538F040EFFA
:102CE000A41659F051EFA51619F161C093EFA9167A
:102CF00069F1E4EFAE16C1F05AC0CC2081F0F4E0E7
:102D0000FD1508F46BC01F7181E090E0012E01C039
:102D1000880F0A94EAF790916D02892722C025E076
:102D20002D1508F45BC0EFCF80911A0282FD1CC004
:102D3000CC2039F0812F8F710E94CF274FC0CC203B
:102D4000C9F3812F8F710E94942748C0CC2041F095
:102D50001F7181E0012E01C0880F0A94EAF701C0BB
:102D600080E00E946F273AC0CC2091F080916E03E2
:102D70008770843039F40E947B24812F8F710E94E8
:102D800094274EC034E03D1508F44AC063E006C005
:102D900044E04D1540F40E947B2464E0812F8F7144
:102DA0000E94E2283DC081E00E94A12739C0CC20CA
:102DB00029F0DD2009F4BECF802F90CEDD2009F26E
:102DC000893349F45FEF87EE93E0515080409040A3
:102DD000E1F700C00000802F0E946E2888EF890D67
:102DE000843010F40E94B621BB20A9F080916E03BC
:102DF00080FD11C0F70115828695869586950E9403
:102E0000CF27C7010E94651180916E038695869534
:102E100086950E94942760E0C7010E940D1157C05B
:102E2000B12CE0CF8091AB0281110EC089E2E7E0C6
:102E3000F3E02DE033E09281891301C012823196D4
:102E40002E173F07C1F768CD85E3F1CF0B355CE75F
:102E5000150741F10C358CE71807E1F00A351C47DE
:102E600009F09ACD81E01FC00E943E28EFEFF4E305
:102E70002CE0E150F0402040E1F700C000000E944B
:102E8000E6204CCD6FEF7FEF80E090E00E94F533BD
:102E90000E94E31080911A0282FB882780F991E05A
:102EA000892701C080E00E94B82776CD81E007C065
:102EB00081E001C082E00E94942703C082E00E946A
:102EC000CF2743E062E081E00E94722727CD24965D
:102ED000E1E10C948633ABE1B0E0E1E7F7E10C947B
:102EE00077334E8B5F8B688F798F8A8F9B8F911191
:102EF0001092F9028E01015F1F4F87E0D8011D92E9
:102F00008A95E9F786E0FE017696D80101900D9248
:102F10008A95E1F780911A0282FF26C00E946721FC
:102F200020916C0330916D03821B930B8838934181
:102F300040F080916E0382FB992790F981E0892708
:102F400001C080E080FF03C082E00E94A1270E94B0
:102F500067212091770330917803821B930B883887
:102F6000934110F00E9462248B89882321F061E054
:102F7000C8010E940D1187E0FE013F96DE01189600
:102F800001900D928A95E1F7CE0108960E9458258E
:102F900081113BC087E0FE013896DE011196019059
:102FA0000D928A95E1F76C85662379F120913103C2
:102FB00030E0C90101968770992740916A0350E07B
:102FC00084179507A1F06D8397E0929FD001939F9E
:102FD000B00D1124AE5CBC4FFE01319601900D92F4
:102FE0009A95E1F7809331030E948C240EC00E94D1
:102FF0003E281092310310926A03EAE2F3E087E080
:10300000DF011D928A95E9F719C017E080916A03E4
:1030100090913103891791F0189FC00111248E5CA3
:103020009C4F0E945825882349F080916A0390E0C4
:1030300001968770992780936A03E8CF6B96E4E046
:103040000C94933381E080936B02089580E008959F
:103050009091190292FF10C041E0282F2471243072
:1030600009F040E031E0282F2871283009F030E0E5
:10307000431711F02CE0822793FF10C041E0282F66
:103080002471243109F040E031E0282F28712831E3
:1030900009F030E0431711F02CE0822730911A023A
:1030A00030FF10C051E0282F2171213009F050E08D
:1030B00041E0282F2871283009F040E0541711F022
:1030C00029E0822731FF10C041E0282F21712131F2
:1030D00009F040E031E0282F2871283109F030E074
:1030E000431711F029E0822794FD877E08958238E6
:1030F000910569F1B0F48133910509F475C048F484
:103100008932910509F467C08A32910509F471C0CA
:1031100008958533910509F459C089339105B9F0B3
:103120000895833E910589F138F4803E9105D1F0F0
:10313000823E910529F10895863E9105C9F1873EA9
:103140009105D9F1843E910509F06CC027C020910A
:10315000190220FD57C021FD55C020911A0223FD00
:103160005BC008958091190280FD48C080911A02C9
:1031700080FF48C08091190284FD46C083EE51C093
:103180008091190282FF3CC0F5CF8091190282FD27
:1031900037C080911A0280FD35C0ECCF80911A02B1
:1031A00081FF36C08091190284FD2EC087EE39C0A0
:1031B0008091190283FF2AC0F5CF8091190283FD07
:1031C00025C080911A0281FD23C0ECCF80911902A5
:1031D00085FD22C01FC08091190285FD1BC0809112
:1031E0001A0283FF19C00AC08091190286FD16C019
:1031F00017C08091190286FD13C010C089E311C069
:1032000082EE0FC080EE0DC080E00BC086EE09C0DC
:1032100084EE07C085E305C089E203C08AE201C0ED
:1032200081E390E00895A0E0B0E0E9E1F9E10C94D9
:1032300071337C015B016A018091EB028A3018F0E6
:1032400001E010E002C00AE010E0C1E0D0E0B5010A
:10325000C701F6010995811115C021960C171D07AC
:1032600094F0CC9F9001CD9F300D300D112480E063
:1032700090E045E34A95F1F7000001968217930725
:10328000C1F7E5CF81E0CDB7DEB7EAE00C948D332E
:10329000A0E0B0E0EEE4F9E10C947333C82F7B01B9
:1032A000D42F6901FB0160817181828193810E9429
:1032B0003021643671058105910510F4DD2339F163
:1032C0000C2E000CDD0B01151105A9F0FE0183E0A9
:1032D000EE0FFF1F8A95E1F7E15EFE4F818192813B
:1032E00086539D4F408150E00417150708F4A8014C
:1032F000B6010E94B034CE010E94DA32882341F038
:103300000E945B21F701608371838283938381E054
:10331000CDB7DEB7E8E00C948F33A1E0B0E0E3E98D
:10332000F9E10C94773380916C02898341E09091AC
:10333000E202981301C040E001E010E09E012F5F1F
:103340003F4F67EE72E087E00E9448192196E4E063
:103350000C9493330F931F93CF93DF93EC0145E0CD
:1033600050E060ED72E00E94A33441E0892B09F443
:1033700040E005E010E09E0161EC72E082E00E9416
:103380004819DF91CF911F910F910895A1E0B0E00E
:10339000ECECF9E10C946D33C62E4A015901682E0C
:1033A000880F7708C3010E94DA32882309F466C0C7
:1033B000C30123E0880F991F2A95E1F7FC01E15E24
:1033C000FE4F438150E04115510511F041E050E0BE
:1033D000FC01E15EFE4F6481758166537D4FCE0135
:1033E00001960E94B034F4016081718182819381E1
:1033F0000E943021643671058105910538F4B701CA
:10340000C8010E94C92399818917D1F10C2C000CA5
:10341000DD08C6010E94DA32782E8823E1F0E1143B
:10342000F104C9F0960183E0220F331F8A95E1F77A
:10343000F901E15EFE4F438150E0E416F50608F421
:10344000A701F901E15EFE4F6481758166537D4FEE
:10345000C5010E94B034B701C8010E94C92391E0A0
:103460002981281390E0D92ED72089F00E945B2172
:10347000F401608371838283938309C0D12C02C0DD
:10348000DD24D394A701B801C5010E94B0348D2D6D
:103490002196EEE00C948933A8E0B0E0E2E5FAE191
:1034A0000C94753388E0E82EF12C06ED12E09E01B5
:1034B0002F5F3F4F46EC52E064E083E00E94C61964
:1034C000182F882389F19091D5028091C502981711
:1034D00059F120E09091D9028091D8028917C9F062
:1034E000E92FF0E0E253FD4F848587FB662760F902
:1034F0009F5F93709093D9029091D7029F5F9093B2
:10350000D7028F770E941D2421E08111E3CF10E0C4
:1035100002C0222329F085E090E00E94DA321823CD
:103520008091D5028093C502812F2896E6E00C9405
:103530009133A5E0B0E0EFE9FAE10C9473336B014D
:1035400085E0E82EF12C0BEC12E09E012F5F3F4F3F
:103550004DEB52E061E080E00E94C619882349F0FB
:1035600095E0FE013196A8EBB2E001900D929A959C
:10357000E1F795E0E8EBF2E0D60101900D929A9523
:10358000E1F72596E8E00C948F33F894E82FE29564
:10359000EF70F0E031A1282F2F7081E090E001C0A2
:1035A000880F2A95EAF7982F9095932391A392A1DB
:1035B000892B82A3789408950F931F938091FD0225
:1035C000882319F00E945B210EC00E945B210091AC
:1035D00008021091090220910A0230910B02600F3B
:1035E000711F821F931F1F910F910895A4E0B0E0F7
:1035F000ECEFFAE10C9479336091E3027091E4020C
:103600008091E5029091E6020E94302164367105B6
:103610008105910570F10E94DC1ADC01CB01029654
:10362000A11DB11D89839A83AB83BC838091500116
:103630009091510186539D4F40914F0150E045308C
:10364000510510F044E050E0BE016F5F7F4F0E94D3
:10365000B03486E090E00E94DA32882359F00E946C
:103660005B216093E3027093E4028093E502909300
:10367000E60281E02496E2E00C9495332091A902C1
:103680003091AA02232BA1F4703F39F4603F81F4FA
:1036900080919F059091A00508957A3048F4673095
:1036A00038F4843028F4462F672F0E949B23089516
:1036B00080E090E008951F93CF93DF930E947718E6
:1036C000EC01C11582E5D807C8F5C11590E5D90709
:1036D00008F0BBC0C83ED105C0F4C03ED10508F01B
:1036E000DDC0C53AD10550F4C430D10508F0D6C0CC
:1036F000219709F0D0C081E090E0D1C0CD3CD10548
:1037000008F4C9C0CE019065CAC0C11580E4D807CD
:1037100008F05AC0C11590E2D90708F0AFC0C11532
:1037200081E0D80708F4B7C08D2F0E942818182F01
:10373000CE0199270E9477181F71ABC0C03892E55F
:10374000D90720F5C03682E5D80708F061C0C0343B
:1037500092E5D90708F04AC0C03282E5D807F0F5F3
:103760004C2F4695469590E2499FA0011124C370C5
:1037700021E030E0C90102C0880F991FCA95E2F725
:10378000EA01C82BD92BCE019D6889C0C03C92E5C7
:10379000D90768F48C2F8F71C03AD24508F04CC01D
:1037A00090E0D82FCC27CE01846F906A78C0C03EBD
:1037B00082E5D80708F06FC0CF71DD27DC2FCC275A
:1037C000CE01806F906A6BC0CE0199270E94771856
:1037D000CC27DF70D06A8C2B9D2B61C0CF71D0E0DD
:1037E000DC2FCC27CE01816F906A59C08C2F8F714E
:1037F0008695869590E2899F90011124C37081E09F
:1038000090E002C0880F991FCA95E2F79C6811C02A
:103810008C2F8F718695869590E2899F9001112457
:10382000C37081E090E002C0880F991FCA95E2F74B
:103830009A68822B932B33C00E9428188F7190E0D6
:10384000D82FCC27CE0190622AC08C2F8F710E9476
:10385000281895E0D695C7959A95E1F7CF70D0E0F6
:10386000DC2FCC27282F30E084FF05C084E0220F16
:10387000331F8A95E1F7D069CE01DBCF8D2F8F7191
:103880000E942818182FCE0199270E9477181F71BF
:103890009062912B04C080E090E001C0CE01DF91E6
:1038A000CF911F910895A6E0B0E0E9E5FCE10C940A
:1038B00077330E9467218C018091AC029091AD0218
:1038C0000817190781F019821A820E946721682F50
:1038D00049815A81792F80E090E00E946B17109304
:1038E000AD020093AC022696E4E00C949333AFE073
:1038F000B0E0EDE7FCE10C946C33AE014F5F5F4F3D
:103900007A018AE0DA011D928A95E9F707E011E071
:103910006A018CE0682E81E0782EAA24A394B12C51
:1039200027E0822E21E0922EF80180818F3F09F45A
:1039300040C0F894E82FE295EF70F0E021A18F707D
:10394000A50102C0440F551F8A95E2F7CA01922FC4
:10395000982B91A392A18095892382A3789400C08B
:10396000E0E0F1E0512C31E021912F3F89F0A22FCE
:10397000A295AF70B0E090968C9190E02F7002C04D
:10398000959587952A95E2F780FD02C0832F01C0A7
:1039900080E0582A330F8E169F0631F7D8018C919C
:1039A0008F3F11F00E94C51AB0EABA95F1F7F601FF
:1039B00050820F5F1F4FFFEFCF1ADF0A60167106AC
:1039C00009F0B2CF4AE050E0B7018CE092E00E94EB
:1039D000A334892B99F08AE0F701ACE0B2E00190C2
:1039E0000D928A95E1F781E08093B0020E946721F1
:1039F0009093AF028093AE02D12C27C08091B00289
:103A00008823D1F3009117028091AE029091AF020A
:103A10000E944C21059780F310E001561D4F45E0B0
:103A200050E06CE072E0C8010E94A334892B09F4D5
:103A3000F9C085E0ECE0F2E0D80101900D928A95A2
:103A4000E1F7DD24D3941092B0028091FD02E09161
:103A50001702882309F481C07E012BE0E20EF11CDD
:103A600085E0D7011D928A95E9F70E2F10E00156E7
:103A70001D4F8091EB028A3048F449E95AE1B701C1
:103A8000C8010E9413198823E9F10AC08091B1028C
:103A90009091B2020E944C21843F914070F743C044
:103AA0004AEA59E1B701C8010E941319882351F16C
:103AB0004CE45AE1B701C8010E941319882311F19F
:103AC00046EF5AE1B701C8010E9413198823D1F0CB
:103AD0004DE859E1B701C8010E941319882391F0FC
:103AE0001092EB028091160290E045E050E0B701A1
:103AF00081569D4F0E94A33421E02093B702892B69
:103B0000F1F48AC08091EB028F3F19F08F5F8093B0
:103B1000EB028091EB028A3028F30E946721909398
:103B2000B2028093B1028091B702882309F474C075
:103B300085E0F70111928A95E9F71092B702A091FA
:103B40001602B0E0A156BD4F85E0FE013B96019004
:103B50000D928A95E1F781E060C00091160210E0B5
:103B600001561D4FF0E0E156FD4F85E0ABECB2E0B1
:103B700001900D928A95E1F765E070E08BEC92E0A0
:103B80000E94C9238093CA0285E0E0EDF2E0D801EB
:103B900001900D928A95E1F788E0ECEEF2E0A6ED57
:103BA000B2E001900D928A95E1F768E070E086ED51
:103BB00092E00E94C9238093D5028090DE0290900B
:103BC000DF02A090E002B090E1028091B3029091F8
:103BD000B402A091B502B091B60288169906AA0661
:103BE000BB06B1F08092B3029092B402A092B502EB
:103BF000B092B6020E945B21861A970AA80AB90AF7
:103C00008092080290920902A0920A02B0920B02DE
:103C10008091E20280936C0280E08D292F96EFE084
:103C20000C948833D12C0FCF089508950895809176
:103C30007B0308951F920F920FB60F9211242F93BA
:103C40003F934F935F936F937F938F939F93AF9324
:103C5000BF93CF93DF93EF93FF93C091E900CF70B1
:103C60008091EC00D82FD17080FDD0E81092E9004F
:103C70008091F000877F8093F00078940E941B2B46
:103C80001092E9008091F00088608093F000CD2BC5
:103C9000CF70C093E900FF91EF91DF91CF91BF9179
:103CA000AF919F918F917F916F915F914F913F91D4
:103CB0002F910F900FBE0F901F901895E8EDF0E038
:103CC00080818E7F80831092E2001092DA00109241
:103CD000E100A0EEB0E08C9181608C9380818F77C1
:103CE000808319BCA7EDB0E08C918E7F8C9380818E
:103CF0008F7E80831092060308952091E400309116
:103D0000E50095E64091EC00842F817040FF23C0D0
:103D10008091E80080FD1DC080918603882399F082
:103D2000853099F08091EB0085FD11C04091E40051
:103D30005091E5002417350729F3915011F09A01AD
:103D4000E1CF84E0089582E0089583E0089581E062
:103D5000089580E008954091E80042FFDDCF089586
:103D60008091880387FF11C08091E80082FD05C023
:103D7000809186038111F8CF11C08091E8008B7784
:103D80000BC080918603882349F08091E80080FF72
:103D9000F8CF8091E8008E778093E8000895982FFF
:103DA000973068F59093E900981739F07091EC001E
:103DB0002091ED005091F00003C0242F762F50E0A9
:103DC00021FD02C09F5FECCF3091EB003E7F30932E
:103DD000EB003091ED003D7F3093ED003091EB0032
:103DE00031603093EB007093EC002093ED00509322
:103DF000F0002091EE0027FDE5CF80E008958F7060
:103E00008093E90081E00895A0E0B0E0EAE0FFE1FE
:103E10000C947333C8EDD0E088818F7E8883E7ED02
:103E2000F0E080818160808384E082BF81E08093C4
:103E3000060388818E7F888302EE10E0F8011082ED
:103E40001092DA0081EEC82ED12CF6011082888102
:103E50008F77888388818068888388818F7D888335
:103E600019BC10928603109287031092850310925A
:103E7000840390EEE92EF12CF70180818B7F808303
:103E800088818160888342E060E080E00E94CF1EEC
:103E9000F60180818E7F8083F8018081816080833C
:103EA000808188608083F70180818E7F8083888114
:103EB00080618883CDB7DEB7E8E00C948F331F9222
:103EC0000F920FB60F9211242F933F934F935F934E
:103ED0006F937F938F939F93AF93BF93EF93FF93D2
:103EE0008091E10082FF09C08091E20082FF05C05D
:103EF0008091E1008B7F8093E1008091DA0080FF68
:103F00002AC08091D80080FF26C08091DA008E7F81
:103F10008093DA008091D90080FF18C080E189BDCC
:103F200082E189BD09B400FEFDCF81E08093860364
:103F30008091060381110FC00E945E1E0E94041F23
:103F40008091E20084608093E20005C019BC109269
:103F50008603109206038091E10080FF17C08091D4
:103F6000E20080FF13C08091E2008E7F8093E20028
:103F70008091E20080618093E2008091D8008062AD
:103F80008093D80019BC85E0809386038091E1007E
:103F900084FF30C08091E20084FF2CC080E189BDA5
:103FA00082E189BD09B400FEFDCF8091D8008F7DEC
:103FB0008093D8008091E1008F7E8093E100809112
:103FC000E2008F7E8093E2008091E2008160809326
:103FD000E20080918703882311F084E007C080917C
:103FE000E30087FD02C081E001C083E08093860387
:103FF000809186038091E10083FF27C08091E200D9
:1040000083FF23C08091E100877F8093E10082E0FD
:1040100080938603109287038091E1008E7F8093C6
:10402000E1008091E2008E7F8093E2008091E200C7
:1040300080618093E20042E060E080E00E94CF1E59
:104040008091F00088608093F000FF91EF91BF9124
:10405000AF919F918F917F916F915F914F913F9120
:104060002F910F900FBE0F901F90189520918E03E7
:1040700030918F032617370748F06115710539F421
:104080002091E8002E772093E80001C0B901FC01DF
:1040900020E06115710579F1809186038823F1F1A3
:1040A0008530F1F18091E80083FD3CC08091E8000B
:1040B00082FD2EC08091E80080FFEBCF2091F300BD
:1040C0008091F20090E0922B6115710551F08830DB
:1040D000910538F421912093F10061507109019606
:1040E000F3CF21E0089709F020E08091E8008E7777
:1040F0008093E800CECF2111CFCF0AC080918603F4
:10410000882361F0853061F08091E80083FD0AC06A
:104110008091E80082FFF2CF80E0089582E0089568
:1041200083E0089581E008950F931F93CF93DF9369
:104130008B01EA0190918603943079F58F7080931A
:10414000E9008FEF9091E800815095FD06C095ED54
:104150009A95F1F700008111F5CF8091E80085FF75
:104160001CC00E947D1E882361F08091E8008E773C
:104170008093E80012C0F80181918F018093F100D3
:104180002197209791F38091E80085FDF4CF8091ED
:10419000E8008E778093E800E4CFDF91CF911F9104
:1041A0000F910895CF93DF93EC0148E050E0BC01FC
:1041B00081E00E94942088E0FE01ACE7B3E001902A
:1041C0000D928A95E1F7DF91CF91089581E0809378
:1041D000E00080E28093D8001092C9008FE19EE455
:1041E0000197F1F700C0000087E090EBDC018093BD
:1041F000390690933A06A0933B06B0933C069CE0A8
:1042000088E10FB6F894A895809360000FBE909354
:104210006000FFCF78941F920F920FB60F92112477
:104220008F939F93AF93BF93809102039091030369
:10423000A0910403B09105030196A11DB11D8093C7
:10424000020390930303A0930403B0930503BF916B
:10425000AF919F918F910F900FBE0F901F90189567
:10426000CF92DF92EF92FF922FB7F894C0900203A3
:10427000D0900303E0900403F09005032FBFA70143
:104280009601261B370B480B590BCA01B901FF9049
:10429000EF90DF90CF9008959C014FB7F8948091F4
:1042A000020390910303A0910403B09105034FBF53
:1042B000821B930B08952FB7F894609102037091BD
:1042C000030380910403909105032FBF08952FB736
:1042D000F8948091020390910303A0910403B0919C
:1042E00005032FBF08951F920F920FB60F9211244E
:1042F0008F939F93AF93BF9380910103811113C05C
:104300008091020390910303A0910403B0910503EF
:104310004196A11DB11D8093020390930303A093C6
:104320000403B0930503BF91AF919F918F910F90BC
:104330000FBE0F901F9018959C01FC0132969FEFC5
:1043400080E04191461789F09F3F19F4411101C067
:10435000982F8F5F8630A9F79F3F39F0F901E90F59
:10436000F11D97FDFA956283089508958091FD02ED
:10437000882359F0E091FF02F0910003309729F073
:104380000190F081E02D0995089580E0089587E27D
:1043900090E00E94D7330895CF93C82F811102C0B7
:1043A0006FEF01C060EE84E290E00E94D733C1114C
:1043B00002C06FEF01C06EE085E290E00E94D7334B
:1043C000C11102C06FEF01C066EE86E290E00E946C
:1043D000D733CF91089584E290E00E94B933803EB4
:1043E00081F485E290E00E94B9338E3051F486E288
:1043F00090E00E94B93391E0863E09F090E0892F69
:1044000001C080E0817008954115510511F0FA0155
:1044100009950895CF93DF93EC014A855B856E85FE
:104420007F850E9404228B810E946D248C810E94D2
:1044300074240E94F32786E0FE0111928A95E9F721
:10444000DF91CF910895CF93DF93EC018D8181FDB2
:1044500017C082608D839091F9028B81892B8093A4
:10446000F9029091FA028C81892B8093FA020E94C2
:10447000F327488559856E857F85CE010E940422E9
:104480001092FC021092FB028D8180FD03C0CE01D0
:104490000E940A22DF91CF910895A0E0B0E0E3E509
:1044A000F2E20C9471337C015B01C42FD22FFC012A
:1044B00085818823B1F04093F8020E946721909390
:1044C000F7028093F60280E28C0F883008F06DC00E
:1044D000C77081E001C0880FCA95EAF70E9464287E
:1044E00064C08091F802481342C08091F602909116
:1044F000F7020E944C216C01B701C5010E948A2E6F
:10450000C816D906A0F510E21D0FCD17E9F080E21C
:104510008C0F883040F4C77081E001C0880FCA95C5
:10452000EAF70E945D28183078F581E09D2F97709A
:1045300001C0880F9A95EAF70E946428093351F563
:1045400060E570E089E329C0093319F460E570E0A3
:1045500002C060E070E0802F0E94CA28183028F561
:10456000D77081E001C0880FDA95EAF70AC080E2CF
:104570008C0F8830D0F4C77081E001C0880FCA95D5
:10458000EAF70E945D2811C0093351F460E570E03C
:1045900089E309C060E070E0802F0E94CA28E0CF64
:1045A00060E070E0802F0E94CA28CDB7DEB7EAE055
:1045B0000C948D33CF93DF93C8ECD2E060E0CE0152
:1045C0000E94D7332196C11584E0D807B9F7DF914F
:1045D000CF910895883080F49B01982F8AE0989FAE
:1045E000B001112468587D4F4AE050E0C9010E9493
:1045F000A93380E090E008958FEF9FEF08951F9317
:10460000CF93DF93962F8430E8F46A30D8F44730A4
:10461000C8F4632F122FC42FD0E0CC0FDD1F2EE083
:10462000929FC00DD11D11249CE8899FC00DD11D02
:104630001124CE0188960E94D733612FCE0189962E
:104640000E94D733DF91CF911F910895AAE0B0E087
:10465000ECE2F3E20C946D33A090F402B090F5021A
:1046600081E090E09093F5028093F402C12CD12C6C
:10467000712CE12CF12C612C00E010E046018E0C35
:104680009F1C402F71100BC0F801EE0FFF1FE80DAB
:10469000F91DEC5EFC4F859194919C0102C021E0D4
:1046A00030E0662D872D0E94FF220F5F1F4F0730DD
:1046B000110539F763948EE0E80EF11C8AE0681268
:1046C000DBCF73948CE8C80ED11C84E07812D1CF74
:1046D0001A8219821C821B821E821D8218861F82EA
:1046E00088EC90E09A87898708E712E04AE050E07A
:1046F000B801CE0101960E94FB33065F1F4F083CB4
:1047000082E0180799F7B092F502A092F4022A9677
:10471000EEE00C94893380E00E94CC2160E070E0F0
:10472000CB010E94C7210E9426230E94DA2281E049
:104730000E94CC2108950F931F93CF93DF93843071
:1047400008F56A30F8F44730E8F4C42FD0E0CC0F15
:10475000DD1F2EE0629FC00DD11D11243CE8839F18
:10476000C00DD11D1124CE0188960E94B93390E06E
:10477000182F0027CE0189960E94B9339801282B63
:10478000C90102C080E090E0DF91CF911F910F91AD
:104790000895FC01680F791F8FEF91E3E617F70783
:1047A00071F02191822728E030E087FF03C0880F55
:1047B000892701C0880F21503109B9F7EFCF08953B
:1047C00090E0FC01662319F0E05AFE4F02C0E15A66
:1047D000FE4F20812F3F71F0E22FE295EF70F0E065
:1047E00080A190E02F7002C0959587952A95E2F7F9
:1047F0008170089580E0089590E0FC01662319F02F
:10480000E05AFE4F02C0E15AFE4F80818F3FA1F077
:10481000E82FE295EF70F0E031A1282F2F7081E0B2
:1048200090E001C0880F2A95EAF7982F909593237E
:1048300091A392A1892B82A308959091EE02E92F72
:10484000F0E04091EF0250E09F012F5F3F4F237057
:10485000332742175307A1F0E051FD4F8F77208196
:104860002078822B60FB87F980839F5F9370909301
:10487000EE028091EC028F5F8093EC0281E008955C
:1048800080E0089520916A039091310357E0291741
:10489000A9F030E0529FF001539FF00D1124EE5C1F
:1048A000FC4F7181761306C07081781303C0758147
:1048B000741306C02F5F3F4F2770E9CF80E0089543
:1048C00081E0089580917903882331F01092790373
:1048D0001092780310927703089580959091F902D1
:1048E00089238093F902089580959091FA02892393
:1048F0008093FA02089510926E0310926D03109245
:104900006C03089590916B03292F282321F0809543
:10491000982390936B03089580916A0390913103DB
:10492000891719F08F5F8770FBCF0895A0E0B0E082
:10493000ECE9F4E20C9474338091300382958F702B
:1049400009F052C080912F03882309F44DC0C09113
:104950006A0387E0D82E80913103C81709F444C058
:10496000D0E0DC9E8001DD9E100D1124F801EE5C8C
:10497000FC4F84818823A9F1918180912B039813A6
:1049800030C0908180912A0398132BC085818111BA
:1049900028C0E280F38080912C0390912D03E81AC7
:1049A000F90A60E08AE293E00E940D116AE273E086
:1049B0000E948A2EE816F906A0F4809130038F70C9
:1049C000806180933003F801E85CFC4F80818F7038
:1049D000806180838AE293E00E9465110E948C24AA
:1049E00003C02196C770B7CFCDB7DEB7E7E00C9410
:1049F0009033CF92DF92FF920F931F93CF93DF9369
:104A00006C0100916D0280911802082BC3E0D0E088
:104A100010E0C8010C2E02C0959587950A94E2F724
:104A200080FD04C02197A8F7F12C09C0FC2EB60127
:104A30008C2F0E943E1B0E945B1B019799F38F2DC8
:104A4000DF91CF911F910F91FF90DF90CF9008954C
:104A5000CF93DF93EC010E94F924BE010E943E1B1C
:104A60000E945B1BDF91CF910895FC0124812223DA
:104A7000D9F0808191810E94282592959F7096306F
:104A800079F010F4925001C09A50923068F4803F4F
:104A900069F018F4883E40F409C0843F29F406C048
:104AA000883E20F0813F11F080E0089581E0089574
:104AB000A4E1B0E0EEE5F5E20C946C338C0186E005
:104AC000F801DE011F9601900D928A95E1F7F80139
:104AD0007480E5808AE2A82E83E0B82E80912E03B0
:104AE000811122C0772009F454C0EE2009F44EC091
:104AF000C8010E943525F82E882309F447C087E0B5
:104B0000F801AAE2B3E001900D928A95E1F7809155
:104B10002E03813031F480912A0390912B030E945F
:104B200028250E9496246DC1F801C280D380F090A0
:104B30002F0380912C0390912D03FF2009F4FAC0DC
:104B4000508061804601881A990A60E08AE293E009
:104B50000E940D116AE273E00E948A2E881699065F
:104B600008F0A2C07720A9F080913003382F307F61
:104B700020912B03F8019181332371F0291709F457
:104B800063C0C8010E943525811167C0C8010E9419
:104B90006511FF24F39435C1291314C020912A0311
:104BA000908129130FC0E1100DC08F708061809338
:104BB00030038AE293E00E94651180913003F8018E
:104BC00086831EC1E1103AC040E0662D852D0E940B
:104BD000422440E0662D852D0E944224E82E81115A
:104BE0000FC15F86688A8F8598890E942825292FA2
:104BF00022952F70243020F49F70223028F009C0B5
:104C00002A50223080F014C0992349F0811107C046
:104C100013C0992321F0F8019681907F69F0805E9E
:104C2000883030F409C0803F38F0815F833020F055
:104C3000C8010E946511EF2CFE2CE3C08091300367
:104C4000816080933003DCC020912A03F8019081B9
:104C5000291397CFE11095CFB2C0EE2009F496CF7B
:104C600020913003822F82958F7090E002978CF014
:104C700080912A0390912B0399878887DB86CA86C7
:104C800080912E038C871D862E87CE0108960E9468
:104C9000651187E0F801AAE2B3E001900D928A95D0
:104CA000E1F70E94962475CF80913003982F907F72
:104CB00051F48AE293E00E94651187E0F5011192B8
:104CC0008A95E9F79DC0772009F463CF20912B03E3
:104CD000F801918129130CC020912A039081291396
:104CE00007C0E11005C08683C8010E94651182C01B
:104CF000C8010E943525882309F448CFEE2009F425
:104D000045CF20913003822F82958F7090E00297DB
:104D10000CF4BFCF80912A0390912B039A8389834F
:104D2000DC82CB8280912E038D831E822F83CE0165
:104D30000196ADCF4601881A990A60E08AE293E0B5
:104D40000E940D116AE273E00E948A2E881699066D
:104D500008F050C0772009F41CCFFE2CEE2009F497
:104D600015CF90912B03F8018181981335C0909154
:104D70002A038081981330C080912C0390912D03D9
:104D8000C81AD90AF8ECCF16D104E8F480913003A0
:104D900080FD19C082958F70482F50E04115510554
:104DA00091F020913003F80126834F30510541F0F6
:104DB0008F5F982F9295907F822F8F70892B86839B
:104DC000C8010E94651187E0F801AAE2B3E00190F2
:104DD0000D928A95E1F715C0C8010E943525811111
:104DE00058CF80913003816080933003C8010E94C6
:104DF000651107C087E0F50111928A95E9F701C0B6
:104E0000F12C8F2D6496EFE00C948833292F9A3083
:104E100078F5873068F590E037E0239F800D911D8D
:104E20001124682F677023E0969587952A95E1F7FE
:104E3000FC01EE0FFF1FE80FF91FE15FFC4F40E0A0
:104E400050E080E0219130E0062E02C03695279593
:104E50000A94E2F721703327042E01C0220F0A942E
:104E6000EAF7822B4F5F5F4F4330510559F70895A2
:104E700080E00895292F9A3088F5873078F590E002
:104E800037E0239F800D911D1124282F277051E0BA
:104E900001C0550F2A95EAF723E0969587952A9544
:104EA000E1F7FC01EE0FFF1FE80FF91FE15FFC4F78
:104EB00020E030E070E04081CB01022E02C09695E8
:104EC00087950A94E2F7817081958427852384274A
:104ED00081932F5F3F4F2330310569F70895809309
:104EE0006D02089590916D0221E030E0F90101C05A
:104EF000EE0F8A95EAF7D90102C0AA0FBB1F6A9587
:104F0000E2F7BD016E2B01C0220F4A95EAF7892F07
:104F10008623681303C0892F822B03C02095822F1C
:104F200089230E946F27089521E030E001C0220FFD
:104F30008A95EAF7209580916D0282230E946F275F
:104F4000089590916E038095892380936E03282F96
:104F5000277069F4981759F090911A0292FF07C0D0
:104F60008695869586950E9494270E947B240895B5
:104F700090911A0292FB222720F9281779F080FBE2
:104F800092F990931A026091190270911A0284E0CA
:104F900090E00E94F53382E00E94A127089521E06D
:104FA00030E001C0220F8A95EAF780916D02822BD2
:104FB0000E946F27089580931802089590917903B5
:104FC000292F282379F080958923809379038823DA
:104FD00019F00E94672102C080E090E0909378036E
:104FE000809377030895CF93C091FA028091F902DC
:104FF000C82B809179038823F1F00E9467212091CA
:10500000770330917803821B930B8838934110F01B
:105010000E94622480917903C82BE9E0F3E097E0D5
:1050200080E0915029F021912223D9F38F5FF9CFAD
:1050300081110E946224C093070348E050E06FE6AC
:1050400073E087E093E00E94A334892BA9F088E005
:10505000E7E0F3E0AFE6B3E001900D928A95E1F767
:10506000E091FF02F0910003309731F00280F3816C
:10507000E02D87E093E00995CF9108951092FA0210
:1050800086E0E9E0F3E0DF011D928A95E9F71092EE
:10509000F9020E94F3270895882321F00E946D24CD
:1050A0000E94F3270895882339F09091F902892B03
:1050B0008093F9020E94F3270895882321F00E942B
:1050C00074240E94F3270895882339F09091FA02FE
:1050D000892B8093FA020E94F32708958823F9F020
:1050E0009CEF980F913A60F4E7E0F3E09281891326
:1050F00001C01282319693E0ED30F907B9F70DC087
:1051000090E2980F983058F4877091E001C0990FA1
:105110008A95EAF7892F0E9474240E94F327089544
:10512000CF938823A9F1C82F8CEF8C0F813AF0F42C
:10513000E9E0F3E08191C81729F083E0EF30F80748
:10514000C9F70EC0E7E0F3E08DE093E02281C213DF
:1051500001C0128231968E179F07C1F70E94F32774
:105160006C2F87E093E00E949C2110C080E28C0F9E
:10517000883070F4C77081E090E001C0880FCA9554
:10518000EAF79091FA02892B8093FA020E94F327A2
:10519000CF9108951F93CF93DF93182FEB010E94B7
:1051A0009028209741F08FE99FE00197F1F700C028
:1051B00000002197F6CF812F0E946E28DF91CF91BA
:1051C0001F91089590911A0292FF10C098E0899F54
:1051D00090011124262B20936E030E94CF270E945A
:1051E000672190936D0380936C0308950E94CF27ED
:1051F0000895EF92FF920F931F93CF93DF93209127
:105200009D0530919E052D593340A901405A5F4FAD
:105210004130524028F040E052E0421B530B02C0A4
:1052200040E650E0C0919B03D0919C03D901A35666
:10523000BC4FB901420F531F01E010E0641775071E
:10524000E8F4FB01E21BF30BE80FF91FE491FC917A
:10525000EF1781F0EC93FB01689414F8F695E7954D
:105260001694E1F7780102C0EE0CFF1CEA95E2F714
:10527000CE29DF296F5F7F4F1196E0CFD0939C033B
:10528000C0939B03CDB7DEB7E6E00C949133CF9388
:10529000DF93C0919D05D0919E058A30B1F4209195
:1052A0009403CE018D599340622F70E00E945533D4
:1052B000281B822F66E00E941334C82FC15008F4C7
:1052C0008FC080E20E944729F9CF8D30E9F4CD5993
:1052D000D34020919403622F70E0CE010E94553399
:1052E000281B822F9E01280F311D2115324018F0F6
:1052F00080E0C0E0D0E0C80FD11DC356DC4FD09392
:105300009E05C0939D056CC096E0FE01A5E9B3E043
:1053100001900D929A95E1F7803E30F086E0FE0113
:1053200011928A95E9F70BC0F6E08F9FB001112426
:105330006A5B774F46E050E0CE010E94A033C091F7
:105340009D05D0919E0546E050E0BE0185E993E0C1
:105350000E94A334892B49F19E012D593340A901A4
:1053600085E0569547958A95E1F781E090E0BC018C
:1053700002C0660F771F4A95E2F740919B03509158
:105380009C03462B572B2B5F3F4F65E036952795A7
:105390006A95E1F702C0880F991F2A95E2F7842BDE
:1053A000952B90939C0380939B039E012759334038
:1053B00040919403642F70E0C9010E945533481B4B
:1053C000463010F4240F311D211582E0380710F00B
:1053D00020E030E023563C4F30939E0520939D05FE
:1053E000DF91CF9108950F931F93CF93DF93EC013B
:1053F000FC0101900020E9F78F0101501109C0174D
:10540000D10720F489910E944729F9CFDF91CF91EC
:105410001F910F910895CF93DF936DE080E00E947C
:10542000112E81EF91E00E94F3296EE080E00E944E
:10543000112E81EF91E00E94F3296FE080E00E943D
:10544000112E81EF91E00E94F329C0919303D0E0E7
:105450002196C170DD27C09393036DE080E00E9428
:10546000112E80919203882349F020E62C9FC001E1
:105470002D9F900D11248A57984F21C08091900341
:105480009091910320E68B30910544F42C9FC0014C
:105490002D9F900D11248A53994F11C0899744F480
:1054A0002C9FC0012D9F900D11248A5F994F07C03A
:1054B0002C9FC0012D9F900D11248A5B9A4F0E9452
:1054C000F928DF91CF910895A0E0B0E0EAE6FAE292
:1054D0000C947133EC018AE0A82E2881222309F470
:1054E000A5C0213009F048C08981813071F48E0156
:1054F0000E5F1F4F8A81893319F060E070E002C0AF
:1055000060E570E00E94CA2811C0823039F48E0133
:105510000E5F1F4F8A810E94902808C0833041F49B
:105520008E010E5F1F4F8A810E946E28E8017CC0A9
:10553000843011F0219678C02A81229680E090E094
:1055400030E0205331092A30310558F4A89EA001DB
:10555000A99E500D1124C901840F951F2196288101
:10556000EFCF009709F460C0EFE9FFE03197F1F762
:1055700000C000000197F5CFE22FF0E0EA53FB4FA7
:10558000B490822F86958695869590E0FC01EA542A
:10559000FB4FE4902770F12C022E02C0F594E794A3
:1055A0000A94E2F7F1E0EF22FF24FC01EA55FB4FF9
:1055B000C490D12C022E02C0D594C7940A94E2F76D
:1055C00031E0C322DD24FC01EA56FB4F049110E0D8
:1055D00002C0159507952A95E2F701701127E1148D
:1055E000F10419F081EE0E949028C114D10419F041
:1055F00086EE0E94902860E070E08B2D0E94CA2801
:10560000C114D10419F086EE0E946E28E114F10451
:1056100019F081EE0E946E280115110529F060E055
:1056200070E08CE20E94CA28219657CFCDB7DEB732
:10563000EAE00C948D33AAE2B0E0E1E2FBE20C94E4
:105640007833E8E8F3E08091F100819323E0E039DA
:10565000F207C9F780918903833009F461C030F4FF
:10566000813071F0823009F49BC0B2C08A3009F4F5
:1056700087C08B3009F46CC0893009F0A9C020C004
:1056800080918803813A09F0A3C08091E800877F68
:105690008093E80080918C0390918D03892B21F4F5
:1056A00068E08CE793E003C060E080E090E070E0A9
:1056B0000E9436208091E8008B778093E80088C0B4
:1056C00080918803813209F083C080918C0390918E
:1056D0008D03892B09F07CC08091E800877F80933F
:1056E000E8008091E80082FD05C080918603811169
:1056F000F8CF6EC02091F3008091F20090E0922BE1
:10570000029731F48091F100813011F0863021F45C
:105710008091F10080937B038091E8008B7754C0E7
:1057200080918803813A09F053C080918C03909155
:105730008D03892B09F04CC08091E800877F80930E
:10574000E8008091E80080FFFCCF8091610137C0C4
:10575000809188038132E1F580918C0390918D03D3
:10576000892BB1F58091E800877F8093E8000E9443
:10577000B01E80918A03809361010E943E2828C058
:1057800080918803813221F58091E800877F8093A2
:10579000E8000E94B01E80918B0380937A0318C0AA
:1057A00080918803813AA1F48091E800877F8093FB
:1057B000E8008091E80080FFFCCF80917A0380931D
:1057C000F1008091E8008E778093E8000E94B01E7F
:1057D0008091E80083FFE0C1809188039091890364
:1057E000492F50E04A30510508F0D6C1FA01E7567A
:1057F000FF4F0C947434803821F0823809F0CCC10A
:1058000008C08091840390918503992389F0826078
:105810000FC080918C038F70873008F0BDC18093DA
:10582000E9008091EB0085FB882780F91092E90060
:105830009091E800977F9093E8008093F100109298
:10584000F10072C1282F2D7F09F0A6C1882319F01D
:10585000823061F0A1C180918A03813009F09CC13E
:10586000933009F080E0809385032EC080918A03F5
:1058700081112AC080918C038F702FEF280F263062
:1058800008F08AC18093E9002091EB0020FF1CC042
:10589000933021F48091EB00806214C09091EB0072
:1058A00090619093EB0021E030E0A90102C0440F29
:1058B000551F8A95E2F74093EA001092EA00809122
:1058C000EB0088608093EB001092E9008091E80083
:1058D000877F2DC1811160C110918A031F7780914C
:1058E000E3008078812B8093E3008091E800877F3C
:1058F0008093E8000E94B01E8091E80080FFFCCFFA
:105900008091E30080688093E300111102C082E07F
:1059100001C083E0809386033FC18058823008F045
:105920003BC180918A0390918B038C3D53E0950796
:1059300079F583E08A838AE289834FB7F894DE01A0
:10594000139620E03EE051E2E32FF0E05093570041
:10595000E49120FF03C0E295EF703F5FEF708E2F60
:1059600090E0EA3010F0C79601C0C0968D939D93E9
:105970002F5F243149F74FBF8091E800877F8093E4
:10598000E8006AE270E0CE0101960E943620BAC0BB
:1059900040918C0350918D03292F332723303105FB
:1059A000B1F068F42130310509F405C12230310528
:1059B00009F0F2C082E490E0E6E0F4E050C0213269
:1059C000310581F12232310509F439C0E5C099274A
:1059D00081309105B9F070F082309105D9F00397CC
:1059E00009F0DAC0EAE5F4E0E4918E2F90E0EAE510
:1059F000F4E032C0E2E9F4E0E4918E2F90E0E2E9D5
:105A0000F4E02AC0E8E8F4E0E4918E2F90E0E8E8C2
:105A1000F4E022C0E8E7F4E0E4918E2F90E0E8E7BC
:105A2000F4E01AC04115510509F4CAC041305105CE
:105A300009F0B2C089E090E0E1E3F4E010C0411564
:105A4000510509F4C2C04130510509F0A5C082E2F8
:105A500090E0E0EAF3E003C0009709F49DC02091D4
:105A6000E800277F2093E80020918E0330918F0378
:105A70008217930708F49C0140E02115310589F154
:105A800080918603882309F43DC08530D9F1809147
:105A9000E80083FD37C08091E80082FD2FC080912F
:105AA000E80080FFEACF4091F3008091F20090E09F
:105AB000942B2115310559F08830910540F444911B
:105AC0004093F1003196215031090196F2CF41E027
:105AD000089709F040E08091E8008E778093E80015
