:1000000054C300008AC3000088C300000C94232B53
:1000100084C3000082C3000080C300007EC30000D0
:100020007CC300007AC300000C949C300C946731B0
:100030000C94382872C3000070C300006EC3000027
:100040006CC300006AC3000068C3000066C3000000
:1000500064C300000C94DD2860C300005EC3000090
:100060005CC300005AC3000058C3000056C3000020
:1000700054C3000052C3000050C300004EC3000030
:100080004CC300004AC3000048C3000046C3000040
:1000900044C3000042C3000040C300003EC3000050
:1000A0003CC300003AC3000038C3000051065106AB
:1000B00078067806DF06CC07CC07CC07FD065D077F
:1000C0006A076A079C16BF16C71627182718031752
:1000D0002D1740179A179F17271827182718A617A4
:1000E000E1205321E920B320B720ED20BA20F020F1
:1000F000FB20C5204921C920FF20CD2003212D212F
:10010000D12007213721D7200D211721BE20F4202F
:10011000C120F720DC201221232143214521AF20DB
:10012000E5205C211A2320230E23142326232C23CD
:100130003223CB31F231E332F231E3323D325F32FE
:10014000E332B332C232FD377A585A000004E6D6A1
:10015000B4460200210116000000742FE5A3E00A56
:10016000B902F55D003D8889C65436C3174FE4E6F1
:100170002B87DC61F128B5AEA0A33C3CF45F74246E
:10018000B52C3D20C7689B3A8E08CE16E28FDD74F1
:10019000FFA04F08D43D201D6B387F918A5F47AD8B
:1001A000A97933FF7287767C8EEB38C49768CB864B
:1001B000D709BCA6026EDFF250884B8378001EDCA4
:1001C0006DB5E18C15D05138E61E1C0685510D8C9D
:1001D0002B1F22BBD8675E532E289192C5E9BE150E
:1001E0007229F2C23B516F90D0EBB7F9A84323A814
:1001F0009EE6FBA32B81CB470BBEAA09EDA45FE4CF
:100200006D8DDFC33D78E9A04546B1C924D4C99EB0
:10021000DB43D6F0CA9074B988636C7849B9385713
:10022000EA224D8E60EA6CBFD6B2532FB3071CA1F1
:10023000A4D2FD0521FAC2CCFF53B05A5F4F15CAB4
:10024000B4CDFBC5CD1523F35E0F10E424FA4F7433
:10025000E1178A24B7137E2863774E09520DBFD465
:10026000794CD304AB7489D96B87DFB2EB3E32B8DB
:100270006862D8FCBC10D0ADE26F7763FE3E719C23
:100280007B1C03398310C4C6A0E8B01D13C7370810
:100290000BE98189463B9DF5D45330284F74FEA766
:1002A0009BDA933F380E005B5DA1D24A6BA27D853D
:1002B00040649EFA20F7346C55A37AE5DAB8C3633C
:1002C00084F0951310064AC4EAE78A14F84C80F8C3
:1002D00063AA25BB341BBD1368DEC1478A66B3E938
:1002E0002CB495C24EBF1FE240672C577F9FD69F0C
:1002F00033F2CD0ACDDEC2C5D5F3159663CE2B629F
:10030000DF65A38DED130E44EA541007743E317976
:1003100078950367C83696A6D0411BA708670F9D3E
:1003200057F61454FA39C0C01E74E33BC60E781257
:100330006792CD6729E10F1C0BBE79890E75A83134
:100340001AAE4537295201CEACDEB3E09AAF029C1B
:10035000D9788159429B7D7E9995B901CAD3FC78A1
:1003600029F49AB5719B70CB6A5C9E1348A9C99F0A
:100370003C703993D7C32CFFDD44EC27A6E18B8971
:10038000146F9288A89767682B94DD29F2C5E6213F
:10039000843A23C915F546541A363756098B5172DB
:1003A000214D6498EAF7AE6DD1D76330F93E1CFC5D
:1003B000A522D803A56CBFEDE10365C46523144BEA
:1003C000D1A2F21399607B7F5465F36A9228F0FC06
:1003D00046B038149FE48F653A7520104E2EF70012
:1003E000319DB4EABCF08B8D4F3F2E500D19E6378E
:1003F000E3E36B93640565737BF432918A8E1B5340
:10040000CD006413D86C65B6ADFFFE3D1C86D66981
:1004100091F653C4FBD2863732FB6A442FC205CA19
:1004200030FCED183EFC7246549944AA685D3C418C
:10043000814A2D29FDC7E5211044E8D63D246D8F62
:10044000478BC0B93F6B03D6D9244D423E74D5B318
:10045000E41B02C0E2EFE22F5906000000005EC577
:10046000ED06CBD9F9F900019106BA150000FE2B73
:100470000DF2B1C467FB020000000004595A00AE3F
:1004800000AF00DA0281FFD9F1DB20A4A62EAF0075
:10049000A0C0D30000A1C8D30000AED580A81F40E3
:1004A0008D14200000000000000000002A2B28000E
:1004B0000000000000000000000000000000002913
:1004C000000000002C1E3420212224342627252E53
:1004D000362D3738271E1F2021222324252633338B
:1004E000362E37381F0405060708090A0B0C0D0EB7
:1004F0000F101112131415161718191A1B1C1D2F83
:100500003130232D350405060708090A0B0C0D0EA2
:100510000F101112131415161718191A1B1C1D2F62
:100520003130354C000000000000000000000000E9
:1005300000000000000000000000000000000000BB
:1005400000000000000000007E0F00D4FFFFFFC786
:10055000000000781C037600690061006C003A001E
:10056000660036003400630032006200330063002E
:100570000000160353006F0066006C006500200049
:10058000430068006F006300000014034200720023
:10059000690061006E0020004C006F0077000000D1
:1005A0000403090409025B00030100A0FA09040026
:1005B000000103010100092111010001224400078B
:1005C000058103080001090401000203000000097D
:1005D00021110100012222000705820320000107EA
:1005E00005030320000109040200010300000009C3
:1005F00021110100012232000705840320000112AD
:100600000100020000000832FC8702020001020320
:10061000010660FF0961A1010962150026FF00952E
:1006200020750881020963150026FF0095207508D2
:100630009102C005010980A101850319012AB700B3
:10064000150126B700950175108100C0050C090140
:10065000A101850419012AA002150126A002950115
:1006600075108100C005010906A101050719E029DF
:10067000E71500250195087501810295017508812E
:10068000010507190029FF150026FF0095067508CA
:100690008100050819012905150025019505750139
:1006A0009102950175039101C00011241FBECFEF87
:1006B000DAE0DEBFCDBF04B603FE18C080913D0670
:1006C00090913E06A0913F06B09140068730904B36
:1006D000A740B04B59F410923D0610923E0610927E
:1006E0003F0610924006E0E0F8E3099512E0A0E032
:1006F000B1E0E4EDF8E602C005900D92AA30B10732
:10070000D9F726E0AAE0B2E001C01D92AD33B207EE
:10071000E1F70E9451160C94683472CC08958091D0
:100720000E02882369F080910C0290910D020E94C4
:10073000B228893E934020F082EE24D210920E021D
:10074000089581E008950C94A21B089581E090E043
:1007500008959C013A9521153F4130F5BC0166276B
:100760007270AC01442754709C012227387094FFAA
:100770000FC090FF02C080E101C080E0672B09F04C
:100780008062452B09F08064232B79F080680895FE
:10079000892F8170672B09F08260452B09F08460F6
:1007A000232B19F08860089580E00895CF93DF939C
:1007B000EB01CFDFFE010995DF91CF910895CF9333
:1007C000DF93EC01805E9109089710F0209719F4EF
:1007D00069E076E002C06AE178E0CE01E7DF8C2FC5
:1007E00094D1DF91CF910895CF93DF93EC01CAD1DB
:1007F000CE01805E9109089710F0209719F46EE001
:1008000076E002C06FE178E0CE01D0DFDF91CF91DA
:10081000089581E0089581E00895FDCF0895FDCF0A
:1008200008958FCF08950895FECF0895A6E0B0E013
:10083000ECE1F4E00C94AA3349835A839E8330910F
:10084000140289819A81311112C03E81332349F00B
:10085000222339F01AD5182F682F89819A81F3D471
:1008600002C002D5182F69817A81812F03C00DD56E
:1008700069817A810E94AF102696E3E00C94C6331A
:10088000FC01262F40815181628173818481958191
:10089000CDCF0895CF93DF93EC0161E0F1DFBE018E
:1008A000BEDFDF91CF910895CF93DF93EC0160E03D
:1008B000E7DFBE01B9DFDF91CF91089581E00895B0
:1008C000FDCF0895CF93C82FCED38C2FF9DF2FEF14
:1008D00084E39CE0215080409040E1F700C000009C
:1008E000CF91089581E0EEDF0C940329089580E014
:1008F000E9DF0C94272908950F931F93CF93DF937B
:10090000EC018B010E948423882321F061E0C8015F
:10091000B7DFEC01F8018581882319F0CE010E9430
:100920003426B801CE010E94EB24882309F45AC072
:10093000B801CE010E948F19882309F453C0B80171
:10094000CE016FDF882309F44DC0B801CE010E94AB
:10095000AA23882309F446C0B801CE010E940223CD
:10096000882309F43FC0B801CE010E948B20882360
:10097000C9F1B801CE010E946320882399F1B80122
:10098000CE010E944A24882369F1F80185818823D9
:1009900031F1C330FCE7DF07C9F040F4C115ECE7E3
:1009A000DE0791F0C130DC4799F019C0CB358CE7F8
:1009B000D80799F0CC35ECE7DE0761F0CA35DC47A3
:1009C00071F40E94EC0D0BC08DDF0CC00E94F20D83
:1009D0008EDF08C00E94E30D02C00E94EF0DC80127
:1009E00018DF01C080E0DF91CF911F910F91089532
:1009F000CF93DF93EC0161E043DFBE017DDFDF9148
:100A0000CF9108950E9416281AD00C94A21B089525
:100A100019D00C941D28089581E008950895CF936E
:100A2000DF93D82FF9DFC82F882311F08D2FF6DF41
:100A30008C2FDF91CF9108950895F1CF089580E034
:100A4000FCCF08950E942F27F8CF0895CF930E94DE
:100A50002F27C82F80910F02C81771F0C0930F0283
:100A60000E94A628609310027093110280931202D4
:100A7000909313028C2FE1DFCF910895ADE0B0E0A9
:100A8000E4E4F5E00C94A933488759876A877B87AB
:100A90008C879D879111ADD78E010F5F1F4F87E027
:100AA000F80111928A95E9F786E0FE013896D8019F
:100AB00001900D928A95E1F78091070482FF09C0A9
:100AC00058D7882319F082E00E94BB0D39D78111D5
:100AD000C9D78D81811109C029813A814B815C81FF
:100AE0006D817E818F81ADD604C0C801D3DE8111B6
:100AF000F3CF2D96E4E00C94C533FC012481213022
:100B000019F480819181EDC30895CF938823C1F1B9
:100B1000C82F8CEF8C0F813A68F48C2F0E94A72786
:100B2000882321F08C2F0E94E927E3D78C2F0E9485
:100B3000E2270BC080E28C0F883048F4C77081E058
:100B400001C0880FCA95EAF734D7D3D719C0EBE5AF
:100B5000EC0FE33040F4F0E0EF56FE4F808190E080
:100B60000E944E270DC0C85ACB3150F4EC2FF0E054
:100B7000EE0FFF1FE55AFE4F808191810E9473277F
:100B8000CF910895882329F19CEF980F913A18F49A
:100B90000E94E9270CC090E2980F983050F48770BB
:100BA00091E001C0990F8A95EAF7892F08D7A1C76C
:100BB00008959BE5980F933028F480E090E00C9422
:100BC0004E270895885A8B3120F480E090E00C94F1
:100BD000732708951F93CF93DF93182FEB0195DFB1
:100BE000209741F08FE99FE00197F1F700C00000E6
:100BF0002197F6CF812FC6DFDF91CF911F91089506
:100C0000893319F060E070E002C060E570E0E2CF87
:100C10000895882311F0CDD66CC70895882311F06C
:100C2000CED667C70895A0E0B0E0E9E1F6E00C9405
:100C3000A5336C01D62FC72FFC01058116811295B3
:100C40001F70ADD68823E9F00023D9F08C2F807F68
:100C5000803461F080E28D0F883098F08C2F807E98
:100C6000803221F4D23068F0112359F080910704CA
:100C700082FF07C082E07FD792D691E0F82EF92656
:100C800001C0F12CEC2EE2948FE0E8228E2D90E052
:100C90008C30910508F080C1FC01EA5AFF4F0C949A
:100CA0007E338C2F807FCF70882311F0C295C07F58
:100CB000002381F0CC2309F45DC180E28D0F8830E0
:100CC00010F0D11103C08C2F74D602C08C2F84D6A3
:100CD00010D750C18D2F56DFCC2309F45DC180E2BF
:100CE0008D0F883020F1DD2311F18C2F7BD621C0B0
:100CF0008C2F807FCF70803211F0C295C07FDD23B2
:100D000021F0D13009F43AC043C08091070482FD3C
:100D100012C0002339F0CC2319F08C2F4AD6E9D623
:100D200080E029C180E02EDFCC2309F435C18C2F6F
:100D300046D6DFD631C1002389F0112369F1113085
:100D400019F48C2F61D628C1153009F025C18C2FDC
:100D500060DF8C2F6FD68C2FD2D61EC1112339F0B5
:100D6000113009F019C122D68C2309F415C18C2F3A
:100D700055DF8C2F5FD68C2FCDD60EC1002321F0EE
:100D8000163008F009C108C0153008F005C114C0BC
:100D9000002329F01111EEC08C2F3BDFFDC0112381
:100DA00059F0D93309F0F6C0FFEF27EE83E0F15098
:100DB00020408040E1F7ECC08C2F30DFEDC08C2F5D
:100DC00086958695837019F0813061F0E5C0002327
:100DD00021F08D2F9C2F937002C080E090E00E9444
:100DE0004E27E1C0002321F08D2F9C2F937002C06D
:100DF00080E090E00E947327D6C08C2F837059F555
:100E00000111CEC04D2F429546954770440F440FB7
:100E10002D2F2F70042E01C0220F0A94EAF7D4FF61
:100E200008C08FE090E001C0880F4A95EAF78095EE
:100E300001C080E0C695C695C370822BC23039F0E0
:100E400040F4C13011F05DD1ABC056D1A9C05ED124
:100E5000A7C050D1A5C0002319F08C2F817001C00C
:100E60008695882309F49CC04D2F4295469547707E
:100E7000440F440F2D2F2F70042E01C0220F0A940F
:100E8000EAF7D4FF08C08FE090E001C0880F4A95D0
:100E9000EAF7809501C080E0C695C695C370822BA5
:100EA000C23039F040F4C13011F06DD179C066D153
:100EB00077C06ED175C031D173C0CF70002329F0D7
:100EC0008C2F3AD18D2FA5DE6BC08D2FA7DE8C2FF6
:100ED0003ED166C0D23F11F128F4D03F41F0D13F5E
:100EE000B9F044C0D33F01F1D43F71F03FC00023BB
:100EF00039F0153008F050C08C2F8F7134D14CC0B0
:100F0000163008F049C0F8CF8091070482FD14C064
:100F1000002331F08C2F8F710FD13EC00023D1F30D
:100F20008C2F8F7114D138C0002321F08C2F8F713A
:100F3000FBD032C0F6D030C0002369F016D5843023
:100F400029F410D68C2F8F7102D13BC0153008F0D8
:100F500038C063E004C0153030F004D664E08C2F54
:100F60008F71E5D52EC081E006D62BC0002329F075
:100F7000112381F28D2FC9DD0FC0112389F2D933DE
:100F800049F49FEFE7EEF3E09150E040F040E1F7E5
:100F900000C000008D2FF6DD88EF8E0D843018F430
:100FA0000E942F274ADDFF2071F0DFD480FD0BC0A7
:100FB000F6011582D4D4C0D0C6011ED0D0D4C7D07B
:100FC00002C0F12CEDCFCDB7DEB7E8E00C94C13311
:100FD0000F931F93CF93DF93EC01688179818D810B
:100FE00089D18C01DAD07CD0B801CE011CDEDF9132
:100FF000CF911F910F910895CF93DF93FC0124812E
:101000002223A9F0EC01F4DC81110DC0C8D488239F
:1010100071F08D81882359F08091070482FF07C009
:1010200082E0A9D504C0CE01D3DFCE013DDCDF9143
:10103000CF910895882311F0CFD45BC508958823FC
:1010400011F0D0D456C5089580E090E00E944E275C
:1010500080E090E00E947327CCD44BC508950E9495
:10106000F027F2CF0895B2D4FACF089592959F70E9
:10107000963079F010F4925001C09A50923068F492
:10108000803F69F018F4883E40F409C0843F29F499
:1010900006C0883E20F0813F11F080E0089581E095
:1010A0000895FC012481222329F08081918119D1A6
:1010B000DDCF089580E00895A6E0B0E0E2E6F8E034
:1010C0000C94AB332696E2E00C94C733A7E0B0E073
:1010D000ECE6F8E00C94AB332796E2E00C94C733CF
:1010E00008950895FECF0895FDCF0895FDDF809304
:1010F0002E020895FBCF089590912E02892BF6CFF2
:10110000089590912E028923F1CF089590912E0297
:101110008927ECCF0895E5CF0895FDDF80932D0258
:10112000089580E0FACF089591E001C0990F8A9563
:10113000EAF7892FF2CF089521E030E001C0220FB5
:101140008A95EAF780912D02822BE7CF089521E05E
:1011500030E001C0220F8A95EAF7209580912D0298
:101160008223DBCF089521E030E001C0220F8A9571
:10117000EAF780912D028227D0CF089590912D0219
:10118000892BCBCF089590912D028923C6CF089546
:1011900090912D028927C1CF08950895962F9770B9
:1011A000A1E001C0AA0F9A95EAF793E076956795BA
:1011B0009A95E1F7FB01EE0FFF1F6E0F7F1FFA01FB
:1011C000E60FF71F40E050E0682F70E090819B0130
:1011D000042E02C0369527950A94E2F721702195D6
:1011E00029272A23292721934F5F5F4F4330510539
:1011F00069F708959B01782F777043E0969587955E
:101200004A95E1F7FC01EE0FFF1F8E0F9F1FF901BA
:10121000E80FF91F40E050E080E0219130E0072E18
:1012200002C0369527950A94E2F721703327042EE1
:1012300001C0220F0A94EAF7822B4F5F5F4F4330C1
:10124000510559F70895282F9A3068F4863058F4DC
:10125000862F622F70E026E0929F600D711D112491
:1012600045E152E09BCF08959A3068F4863058F4F7
:10127000292F90E065E172E036E0239F800D911DFB
:101280001124B8CF089580E00895CF92DF92FF92A5
:101290000F931F93CF93DF936C0100912D028091E8
:1012A0002E02082BC3E0D0E010E0C8010C2E02C0D3
:1012B000959587950A94E2F780FD04C02197A8F7D9
:1012C000F12C06C0FC2EB6018C2F64D70197B1F328
:1012D0008F2DDF91CF911F910F91FF90DF90CF90D5
:1012E0000895CF93DF93EC01D0DFBE0153D7DF9198
:1012F000CF9108951F93CF93DF93EB019091140248
:10130000992319F0CB01EDDF0FC0882339F0CB0111
:10131000BCDF182F682FCE0196DF03C0CB01A4DFFE
:10132000182FBE01812F36D7DF91CF911F910895DD
:10133000E1E0F0E0DF0102C0AA0FBB1F6A95E2F70F
:10134000BD01DF0102C0AA0FBB1F4A95E2F7AD0144
:10135000462B01C0EE0F2A95EAF7942F98234913E4
:1013600002C08E2B0895E0958E230895242F462FDA
:10137000682F80912D02DCDFD0CE08951F93CF938C
:10138000DF93C0912F0217E080913002C81799F0C7
:10139000D0E01C9FF0011D9FF00D1124EF5CFD4F6C
:1013A00020813181428153816481758186818EDE05
:1013B0002196C770E9CFDF91CF911F9108952091B9
:1013C000690230916A0240916B0250916C02609107
:1013D0006D0270916E0280916F0278CE0895209117
:1013E0002F029091300257E02917A9F030E0529F68
:1013F000F001539FF00D1124EF5CFD4F71817613C6
:1014000006C07081781303C07581741306C02F5F06
:101410003F4F2770E9CF80E0089581E00895A0E074
:10142000B0E0E5E1FAE00C94A63380916F0282957A
:101430008F7009F04FC080916E02882309F44AC072
:10144000C0912F0287E0D82E80913002C81709F48E
:1014500041C0D0E0DC9E8001DD9E100D1124F8011A
:10146000EF5CFD4F8481882391F1918180916A0224
:1014700098132DC0908180916902981328C08581AE
:10148000811125C0E280F38080916B0290916C0203
:10149000E81AF90A60E089E692E0F2D969E672E0BA
:1014A0000E946319E816F90690F480916F028F701C
:1014B000806180936F02F801E95CFD4F80818F703D
:1014C0008061808389E692E097DD58DF03C0219632
:1014D000C770BACFCDB7DEB7E7E00C94C233A4E152
:1014E000B0E0E5E7FAE00C949E338C0186E0F80169
:1014F000DE011F9601900D928A95E1F7F801748044
:10150000E58089E6A82E82E0B82E80916D028111D7
:1015100019C0772009F448C0EE2009F443C0C8017F
:10152000C0DDF82E882309F43DC087E0F801A9E664
:10153000B2E001900D928A95E1F789E692E0DDDA5A
:101540006EDF77C1F80150806180C280D380F09057
:101550006E0280916B0290916C024601881A990A82
:1015600060E089E692E0FF2009F4F6C089D969E6D7
:1015700072E00E9463198816990608F09BC07720D4
:1015800099F080916F02382F307F20916A02F80124
:101590009181332361F0291709F45DC0C80181DD11
:1015A000811162C0C80128DDFF24F39445C12913CD
:1015B00014C020916902908129130FC0E1100DC061
:1015C0008F70806180936F02FADE89E692E014DD0D
:1015D00080916F02F80186832EC1E11036C040E091
:1015E000662D852DFCDE40E0662D852DF8DEE82E8B
:1015F000811121C15F86688A8F85988972DE292FC3
:1016000022952F70243020F49F70223028F009C0DA
:101610002A50223080F014C0992349F0811107C06C
:1016200012C0992321F0F8019681907F61F0805ECD
:10163000883030F408C0803F30F0815F833018F08C
:10164000C801DADCEF2CFE2CF7C080916F028160BC
:1016500080936F02F0C020916902F80190812913F4
:101660009DCFE1109BCFB6C0EE2009F49BCF209117
:101670006F02822F82958F7090E0029784F08091A4
:10168000690290916A0299878887DB86CA86809171
:101690006D028C871D862E87CE010896ADDC87E013
:1016A000F801A9E6B2E001900D928A95E1F7B7DE64
:1016B00086DE7ACF80916F02982F907F99F46C2DFF
:1016C000DA8AC98A452D562D7A89872D9E2DF4DC1C
:1016D00089E692E091DC87E0F50111928A95E9F7BD
:1016E0006EDEA9C0772009F45FCF20916A02F8016D
:1016F0009181291310C020916902908129130BC098
:10170000E11009C08683C80177DC87E0F5011192FA
:101710008A95E9F791C0C801C4DC882309F442CF57
:10172000EE2009F43FCF20916F02822F82958F70B7
:1017300090E002970CF4B3CF8091690290916A0215
:101740009A838983DC82CB8280916D028D831E8295
:101750002F83CE010196A2CF93D869E672E00E9452
:1017600063198816990608F056C0772009F41CCF33
:10177000FE2CEE2009F416CF90916A02F8018181C7
:1017800098133DC0909169028081981338C0809170
:101790006B0290916C02C81AD90AF8ECCF16D104EA
:1017A00028F580916F0280FD21C082958F70482FAF
:1017B00050E041155105D1F020916F02F8012683C8
:1017C0004F30510541F08F5F982F9295907F822F77
:1017D0008F70892B8683C8010FDC87E0F801A9E6AA
:1017E000B2E001900D928A95E1F723C087E0F801FD
:1017F000A9E6B2E001900D928A95E1F71DC0C801FB
:1018000050DC81114CCF80916F02816080936F0218
:10181000C801F2DB11C06C2DDA8AC98A452D562D1C
:101820007A89872D9E2D48DC87E0F50111928A95F3
:10183000E9F7C5DD01C0F12C8F2D6496EFE00C9423
:10184000BA33AEE0B0E0E7E2FCE00C94AA332887BC
:1018500039874A875B876C877D878E87CE0108969C
:101860003EDE882359F06C85662399F128853985F9
:101870004A855B857D858E8529DC2BC087E0FE014E
:101880003896DE01119601900D928A95E1F76C85EC
:101890006623F9F02091300230E0C901019687708B
:1018A000992740912F0250E084179507C9F16D8365
:1018B00097E0929FD001939FB00D1124AF5CBD4F74
:1018C000FE01319601900D929A95E1F780933002D6
:1018D00055DD17E080912F0290913002891761F158
:1018E000189FC00111248F5C9D4FF9DD882321F1E1
:1018F000E0912F021E9FF0011124EF5CFD4F20812B
:10190000318142815381648175818681DFDB8091E1
:101910002F0290E001968770992780932F02DACFEB
:10192000A2DB1092300210922F02E9E6F2E087E08B
:10193000DF011D928A95E9F72E96E3E00C94C633F9
:101940000E949A2820917B0230917C02821B930B8B
:101950009C0181E02838334108F480E008958091AB
:101960007A02869586958695089580917A02877089
:1019700008950E949A282091780230917902821B62
:10198000930B8838934140F080917A0282FB88273C
:1019900080F991E0892701C080E0817008959091DD
:1019A0007A02977081E009F480E0089580918802BE
:1019B000089590918802892B8093880208958095DC
:1019C000909188028923809388020895109288025A
:1019D000089580918702089590918702892B8093C2
:1019E00087020895809590918702892380938702CA
:1019F000089510928702089580917E0208950895B7
:101A0000FECF0895FDCF0895CF9390917E02982345
:101A1000891771F0C82F0E949A2890937C028093B6
:101A20007B0280917E028C2B80937E028C2FEADFDA
:101A3000CF91089590917E02292F282391F08095CF
:101A4000892380937E02882319F00E949A2802C07D
:101A500080E090E090937C0280937B0280917E02F4
:101A6000D1CF089580917E02882341F010927E02AA
:101A700010927C0210927B0280E0C4CF08950F93F5
:101A80001F93CF93DF930091000110910101C0914A
:101A9000880280918702C82B80917E02882351F0B2
:101AA0004FDF8111DFDF80917E02C82B0E949827D3
:101AB0008111D8DFF801C083C0910001D0910101EC
:101AC00048E050E060E772E0CE010E94EA33892BE3
:101AD00059F088E0FE01A0E7B2E001900D928A95EE
:101AE000E1F7CE010E944327DF91CF911F910F9123
:101AF0000895C5CF089583CF0895FDCF089590919F
:101B00007D02292F2823821721F0892B80937D02C3
:101B1000F4CF089590917D02292F282329F08095F4
:101B2000892380937D02E9CF089569CF089590912C
:101B3000070492FF15C098E0899F90011124262B7D
:101B400020937A02F9DA0E949A289093790280937E
:101B5000780280917A02869586958695E6CF0895DB
:101B6000EBCA089510927A021092790210927802CC
:101B700080E0DBCF089590917A028095892380934D
:101B80007A02282F277059F4981749F0909107048A
:101B900092FF05C0869586958695D9DAE3CF08959C
:101BA0009091070492FB222720F9281759F080FB17
:101BB00092F990930704809106049091070434D021
:101BC00082E0D9CF08958091070482FB882780F9AD
:101BD00091E08927E5CF089581E0E2CF089580E084
:101BE000DFCF08956FEF7FEF80E090E00C944D34ED
:101BF000089580E090E00E941F34853E9E4F19F4C6
:101C00000C948B24089580E0089582E090E00C9479
:101C10001734089583E090E00C941734089584E01D
:101C200090E00C941F340895BC0184E090E00C9483
:101C30004D340895AB01BC018FE090E00C94453425
:101C40000895AB01BC0183E190E00C944534089504
:101C500060E070E0CB01F5CF089560E070E0CB016B
:101C6000E9DFF6CF0895A8E0B0E0E9E3FEE00C94E8
:101C7000AB3365EE7EEF80E090E00E944D3460E093
:101C800082E090E00E94333481E080932E0261E094
:101C900083E090E00E94333460E074E184E090E0FF
:101CA0000E944D3460E086E090E00E94333460E0B2
:101CB00087E090E00E94333440E050E0BA0188E0D1
:101CC00090E00E94453460E083E290E00E9433346B
:101CD00060E08CE090E00E94333460E08DE090E0C2
:101CE0000E94333419821A821B821C821D821E823A
:101CF0001F82188648E050E067E170E0CE0101964F
:101D00000E94243440E050E0BA018FE190E00E944C
:101D1000453480E00E94A4240E94D8249EDF2896A7
:101D2000E2E00C94C7339FCF0895682F8EE090E0D7
:101D30000C9433340895A6E0B0E0E1EAFEE00C94A0
:101D4000A9330E949A288C018091890290918A027D
:101D50000817190781F019821A820E949A28682FA1
:101D600049815A81792F80E090E00E943E051093CE
:101D70008A02009389022696E4E00C94C5331DD3B1
:101D800060939D0270939E0280939F029093A002A5
:101D90006093990270939A0280939B0290939C02A5
:101DA00008950BD360939D0270939E0280939F02CF
:101DB0009093A0026093950270939602809397028D
:101DC00090939802089581E00895D9C408950895E4
:101DD000FECF0895FCCF0895FDCF0895F8CF089564
:101DE000FDCF0895F4CF089586EF91E16DD789D79F
:101DF000F9DFF6CF0895ECDFEACF0895FADE81111E
:101E000001C091DF02DF8093A10209DF90930704F4
:101E1000809306040E94AF1DFDDE6CD980912D02D7
:101E20007AC908950E949128A3D20E94E324ACD4D9
:101E30000E94F91BF0D3E2DF0E941C050E94B11D35
:101E400080E00E94241AADD4C7CF089598D4882387
:101E500021F00E9418240C9448260895A6E0B0E0D2
:101E6000E4E3FFE00C94A233AEDF811103C063DF33
:101E700010E04EC0F2D38BE8E82E82E0F82E670126
:101E800000E0F60111916F01802FC7D281270F5F0B
:101E90000A3019F08823A9F302C0882341F3809106
:101EA000A10281FDC0D291DFA82E10E09924939465
:101EB000812FB3D2B82EF701C080C82609F100E007
:101EC000DD24D3948C2D8D21A9F0AA2099F00983CB
:101ED0001A830E949A289C838B839D8291E08B2D8C
:101EE0008D2109F490E049815A816B817C818D813B
:101EF0000E943E050F5FDD0C063021F7F701B0822E
:101F00001F5FFFEFEF1AFF0A1A3091F638DF11E07A
:101F10009DDF0E94991C882311F043DF11E00E948D
:101F2000BF1B11110E94821A0E9426052696EBE023
:101F30000C94BE331F93CF93DF932FD1EC01C115C7
:101F400080E5D807E8F5C11590E4D90708F0A6C0E8
:101F5000C03ED10530F5CD3CD10508F094C0C83A5B
:101F6000D10578F4C53AD10508F083C0C130D10558
:101F700009F47CC008F4EBC0C430D10508F0EAC015
:101F8000E6C0C33CD10508F0E2C0C85AD0E0CC0F8F
:101F9000DD1FCC56DE4F0990D881C02DCE01946450
:101FA000DAC0C11580E2D80708F0C6C0C11591E0BB
:101FB000D90708F06BC0C83ED10508F4CBC0C7C034
:101FC000C03682E5D80728F5C03492E5D90708F075
:101FD00076C0C03282E5D80708F069C0C11592E525
:101FE000D90708F47EC04C2F4695469580E2489F5D
:101FF000A0011124C37021E030E0C90102C0880FA4
:10200000991FCA95E2F7EA01C82BD92BCE019D682A
:10201000A2C0C03A82E5D807B8F48C2F8F71C038BF
:1020200092E5D90708F077C08695869590E2899F5A
:1020300090011124C37081E090E002C0880F991FC5
:10204000CA95E2F79A6864C0C03C82E5D80708F4F4
:1020500069C0C03E92E5D90708F079C0CF71DD278D
:10206000DC2FCC27CE01806F906A75C081E090E0B4
:1020700072C0C55AD0E0C653DE4F8881C82FD0E069
:10208000CE01906468C0CE01906565C08D2F21D1CE
:10209000182FCE01992781D01F7157C0CE019927E3
:1020A0007CD0CC27DF70D06A8C2B9D2B54C0CF7195
:1020B000D0E0DC2FCC27CE01816F906A4CC08C2FF2
:1020C0008F718695869590E2899F90011124C37047
:1020D00081E090E002C0880F991FCA95E2F79C68E2
:1020E00017C08C2F8F71F5D095E0D695C7959A952E
:1020F000E1F7CF70D0E0DC2FCC27282F30E084FF31
:1021000005C084E0220F331F8A95E1F7D069CE0124
:10211000822B932B20C090E0D82FCC27CE01846F48
:10212000906A19C08C2F8F71D4D08F7190E0D82F06
:10213000CC27CE0190620FC08D2F8F71CAD0182F7F
:10214000CE0199272AD01F719062912B04C080E0A4
:1021500090E001C0CE01DF91CF911F9108952091B1
:10216000730330917403232B91F4703F39F4603F73
:1021700071F4809122049091230408957A3038F408
:10218000663028F4462F672F0C943E1F089580E098
:1021900090E00895E4DFCECE08958238910569F18C
:1021A000B0F48133910509F475C048F48932910582
:1021B00009F467C08A32910509F471C00895853326
:1021C000910509F459C089339105B9F00895833E0A
:1021D000910589F138F4803E9105D1F0823E910558
:1021E00029F10895863E9105C9F1873E9105D9F1FF
:1021F000843E910509F06CC027C02091060420FDA3
:1022000057C021FD55C02091070423FD5BC00895F0
:102210008091060480FD48C08091070480FF48C07B
:102220008091060484FD46C083EE51C0809106046F
:1022300082FF3CC0F5CF8091060482FD37C08091BB
:10224000070480FD35C0ECCF8091070481FF36C0C4
:102250008091060484FD2EC087EE39C0809106046B
:1022600083FF2AC0F5CF8091060483FD25C08091AD
:10227000070481FD23C0ECCF8091060485FD22C0B8
:102280001FC08091060485FD1BC08091070483FF59
:1022900019C00AC08091060486FD16C017C080913F
:1022A000060486FD13C010C089E311C082EE0FC082
:1022B00080EE0DC080E00BC086EE09C084EE07C042
:1022C00085E305C089E203C08AE201C081E390E0B2
:1022D00008959091060492FF10C041E0282F2471C8
:1022E000243009F040E031E0282F2871283009F02F
:1022F00030E0431711F02CE0822793FF10C041E03B
:10230000282F2471243109F040E031E0282F287172
:10231000283109F030E0431711F02CE0822730918A
:10232000070430FF10C051E0282F2171213009F03F
:1023300050E041E0282F2871283009F040E0541780
:1023400011F029E0822731FF10C041E0282F2171D0
:10235000213109F040E031E0282F2871283109F0BF
:1023600030E0431711F029E0822794FD877E08951D
:10237000109208041092090410920A0410920B049F
:102380000895CF92DF92EF92FF926B017C01F7D11B
:1023900081110EC00E94A628C61AD70AE80AF90AB7
:1023A000C0920804D0920904E0920A04F0920B044F
:1023B000FF90EF90DF90CF9008950F931F93DFD1A0
:1023C000882319F00E94A6280EC00E94A62800911A
:1023D00008041091090420910A0430910B04600F45
:1023E000711F821F931F1F910F91089580E0089520
:1023F000E82FF0E0E95EFB4F2081822F90E021E0A2
:1024000030E002C0220F331F6A95E2F728233923F8
:1024100081E0232B09F480E00895E82FF0E0E95EE5
:10242000FB4F80810895089580EA8A95F1F7089519
:1024300000C00895F9CF089508950C948F0308956E
:102440000C948E030895F8CF0895A5E0B0E0EBE278
:10245000F2E10C94A83393D1609121048823D9F13F
:1024600085E0F82E8E010F5F1F4FF8018F2D11921E
:102470008A95E9F7862F90E0B801895E9B4F9DD140
:10248000882389F080910C0490E045E050E0B80189
:10249000895E9B4F0E94EA3321E02093A202892BA0
:1024A00061F410E016C08091A2028823D1F3F801F4
:1024B0001192FA94E9F71092A202A0910C04B0E0F4
:1024C000A95EBB4F85E0F80101900D928A95E1F776
:1024D00011E0B3DF0BC070E0695E7B4F80910C04AC
:1024E00090E0895E9B4FF0D1AEDF10E0812F259602
:1024F000E5E00C94C433F894E82FE295EF70F0E037
:1025000031A1282F2F7081E090E001C0880F2A951B
:10251000EAF7982F9095932391A392A1892B82A3F8
:10252000789408950F931F93CF93DF93C3EDD1E079
:1025300089918F3F09F0DFDF81E0C83DD807C1F7FF
:10254000CDECD1E003ED11E089918F3F09F0D3DFAD
:102550000C171D07C9F7DF91CF911F910F910895B7
:10256000A0E0B0E0E6EBF2E10C94A5338C01C62FBD
:10257000D0E0CE018D529E4F7C01FC0190819F3FA7
:1025800009F444C0D62EF894E92FE295EF70F0E0FC
:1025900081A19F7021E030E001C0220F9A95EAF7F7
:1025A000822B81A382A12095282322A3789440DF47
:1025B000EDECF1E043ED51E031E0C12C21912F3FF2
:1025C00089F0A22FA295AF70B0E090968C9190E028
:1025D0002F7002C0959587952A95E2F780FD02C07D
:1025E000832F01C080E0C82A330F4E175F0731F7F1
:1025F000F70180818F3F09F07EDF61E0C11001C0EB
:1026000060E08D2D17DFC00FD11FC882CDB7DEB7B8
:10261000E8E00C94C13380910201809102018111A4
:1026200002C095E001C090E09093210485E0891BF1
:1026300080930C0477DF8AE0E7E1F4E0DF01982F74
:102640001D929A95E9F7EDE0F4E0DF011D928A957D
:10265000E9F785E03DD0F4CE0895AAE0B0E0E3E3E9
:10266000F3E10C94A8338E010F5F1F4F8AE0F8014D
:1026700011928A95E9F7F12C6F2DC80171DFF3945F
:10268000F5E0FF12F9CF4AE050E0B8018DE094E0A8
:102690000E94EA3321E0009709F420E0892B41F001
:1026A0008AE0F801ADE0B4E001900D928A95E1F77F
:1026B0006091210470E0695E7B4F45E08DE094E01D
:1026C00008D0182FC2DE812B2A96E5E00C94C43383
:1026D0000895EF92FF920F931F93CF93DF937C01A6
:1026E0008B01C42F222351F081E08093A5020E9428
:1026F0009A289093A4028093A30204C08091A5021B
:10270000811102C080E01AC08091A3029091A402BE
:102710000E94B2280597B0F3D0E0AE01B701C8011E
:102720000E94EA33892B39F0AE01B701C8010E943B
:10273000F73381E001C080E01092A502CDB7DEB78B
:10274000E6E00C94C3331F93CF93DF93C8ECD0E043
:102750000E941333182F81110AC08FE39CE901975F
:10276000F1F700C00000219799F70E940F33812FE5
:10277000DF91CF911F9108958091A90208958091D2
:10278000A8020895FCCF0895DEDF8093A802FADF47
:102790008093A902F1DF80930201F1DF811144C02F
:1027A0000895EDDF811101C042C0089581E090914C
:1027B000AA029A3008F080E008950F931F93CF93F8
:1027C000DF93EC018B018091AA028A3030F4B801CA
:1027D000CE0178D081111DC00AC08091A6029091CF
:1027E000A7020E94B228843F914088F715C08091CB
:1027F000AA028F3F19F08F5F8093AA028091AA02EC
:102800008A3060F00E949A289093A7028093A602D3
:1028100003C01092AA0202C080E001C081E0DF91F3
:10282000CF911F910F9108950C94E02A08950C9474
:10283000E32A0895A0E0B0E0E0E2F4E10C94A633CE
:102840007901C82F880FDD0B41155105A9F0FE0154
:1028500093E0EE0FFF1F9A95E1F7ED5FFE4F818148
:10286000928185559D4F208130E04217530708F42F
:102870009A01A9010E94F733CE010E94C32BD82EE2
:102880008823D1F001151105B9F083E0CC0FDD1FCD
:102890008A95E1F7FE01ED5FFE4F438150E004179A
:1028A000150708F4A801CD5FDE4F6C817D81655569
:1028B0007D4FC7010E94F7338D2DCDB7DEB7E7E01E
:1028C0000C94C23380C10895A3C10895FFC7089531
:1028D000A4E0B0E0EEE6F4E10C94A9336091D902F3
:1028E0007091DA028091DB029091DC020E94C12893
:1028F000643671058105910518F15FDDDC01CB01BE
:102900000296A11DB11D89839A83AB83BC8300E02D
:1029100010E020E030E044E050E0BE016F5F7F4F08
:1029200086E088DF182F882361F00E94A628609334
:10293000D9027093DA028093DB029093DC0201C02B
:1029400011E0812F2496E4E00C94C533A1E0B0E0BF
:10295000ECEAF4E10C94A033762E4A0159016801A7
:1029600001E010E09E012F5F3F4F40E050E060E04B
:1029700070E060DF182F882371F1F40160817181AC
:10298000828193810E94C128643671058105910579
:10299000D8F08701950140E050E060E070E0872DBD
:1029A00049DF182FB701C6010E94B21D91E02981AD
:1029B000281390E01923A1F00E94A628F401608357
:1029C0007183828393830CC0B701C6010E94B21D3C
:1029D00099818913DECFA701B601C5010E94F733A3
:1029E000812F2196EDE00C94BC33AAE0B0E0EBEF30
:1029F000F4E10C94A333C090D801D090D9015601D2
:102A00008CE0A80EB11C88E0E82EF12C85019E0117
:102A10002F5F3F4F45ED52E064E083E097DFF82EF3
:102A2000882351F1F60193858091D402981721F102
:102A300010E0AE01475F5F4FBE01665F7F4FC5018B
:102A400013D7882341F069858A852BD711E081113E
:102A5000F0CFF12C02C0112359F000E010E020E08B
:102A600030E040E050E060E070E085E0E3DEF82236
:102A7000F60183858093D4028F2D2A96EAE00C9488
:102A8000BF33A5E0B0E0E7E4F5E10C94A5336B01BA
:102A90000091D8011091D9010F5F1F4F85E0E82EFA
:102AA000F12C9E012F5F3F4F4CEC52E061E080E043
:102AB0004DDF882349F095E0FE013196A7ECB2E0A6
:102AC00001900D929A95E1F795E0E7ECF2E0D601DE
:102AD00001900D929A95E1F72596E8E00C94C133A8
:102AE000A0E0B0E0E6E7F5E10C94A3337C015B01E4
:102AF0006A015CDE811103C001E010E002C00AE05F
:102B000010E0C1E0D0E0B501C701F60109958111DF
:102B100015C021960C171D0794F0CC9F9001CD9FF6
:102B2000300D300D112480E090E045E34A95F1F737
:102B30000000019682179307C1F7E5CF81E0CDB77A
:102B4000DEB7EAE00C94BF330F931F93CF93DF936C
:102B5000EC016091D8017091D9016A5F7F4F45E027
:102B600050E00E94EA338C016091D0027091D10252
:102B70008091D2029091D3020E94C12864367105DF
:102B80008105910510F4012BB9F000E010E020E080
:102B900030E045E050E0BE0182E04CDEC82F8823E3
:102BA00061F00E94A6286093D0027093D1028093B6
:102BB000D2029093D30201C0C1E08C2FDF91CF915C
:102BC0001F910F9108950F931F93CF93DF93EC0103
:102BD0008B0141E455E184DF811102C080E013C024
:102BE00044EA55E1B801CE017BDF8823B9F345EF14
:102BF00054E1B801CE0174DF882381F348E654E143
:102C0000B801CE016DDFDF91CF911F910F91089533
:102C10000F931F93CF93DF938C01C091D801D09174
:102C2000D901CE01019625E0FB01DC0101900D9256
:102C30002A95E1F765E070E095D78883FE01369626
:102C400085E0D80101900D928A95E1F78E01045F2D
:102C50001F4FC80132D668E070E0C80183D78B8768
:102C60006C897D898E899F890091C3021091C4026D
:102C70002091C5023091C602601771078207930741
:102C800049F06093C3027093C4028093C50290938D
:102C9000C60277DBDF91CF911F910F910895DEC8B7
:102CA00008950E9431280E94A72D9ED80E94C02D11
:102CB000B9D80E94CA2D0E94CE2DF1DF0E94E42DCA
:102CC0000E94812C98D8F7CF90930B0280930A0230
:102CD0000895EDEDF2E080E090E060E479E14AEC07
:102CE00058E125E738E1778366835187408733874A
:102CF000228797878687019670968830910599F785
:102D00000895E7CF0895AAE0B0E0E9E8F6E10C9471
:102D1000A333603209F09BC1DC011196EC9111974D
:102D20004E2F50E04E30510508F091C18C01FA0150
:102D3000EE59FF4F0C947E3388E0E3E5F1E0DE01CD
:102D4000119601900D928A95E1F780E2F8011192B7
:102D50008A95E9F786E0D8018C9311961C92119719
:102D600012961C92129713961C92139788E0FE01FC
:102D70003196149601900D928A95E1F768C188E327
:102D8000FD01808383E081831282138260C1DC01B4
:102D900013968C91139790E0982F882712962C9178
:102DA000820F911D092E000CAA0BBB0B65E0880F4A
:102DB000991FAA1FBB1F6A95D1F7AC01BD01405EE8
:102DC0005F4F6F4F7F4F481759076A077B0708F41B
:102DD0003EC18833E3E09E07A105B10508F037C185
:102DE0004933F3E05F076105710520F048E353E0E4
:102DF00060E070E0481B590BBC016A5B7E4FC80164
:102E00000E94E13324C140E250E06FEF70E00E9485
:102E1000003480917503D8018C93809173031196CF
:102E20008C93119712961C92129713961C921397DB
:102E300085E014968C93149715961C92159783E051
:102E400016968C93169717961C92179788E01896EB
:102E50008C93189719961C92FAC081E090E0909399
:102E600074038093730382E390E0909372038093E2
:102E700071030E949A289093700380936F03E7C0B8
:102E80008091730390917403892B09F448C02AED53
:102E9000E22E21E0F22E3EEDA32E31E0B32ECC2423
:102EA000C394D12CF70161917F01D5018D915D0112
:102EB0009FDA90E0C822D922BEEDEB16B1E0FB0606
:102EC00089F780916F03909170030E94B228853634
:102ED0009105F8F0C114D104E1F00E949A28909372
:102EE000700380936F038091710390917203019737
:102EF0009093720380937103892B89F41092740369
:102F00001092730381E090E09093760380937503B1
:102F100006C082E390E090937203809371038091E6
:102F20007503F8018083809173038183809171031D
:102F300082838DC0109276031092750388C040E2A0
:102F400050E06FEF70E00E94003481C0DC01129607
:102F50008C91813091F018F0823031F178C080E2AC
:102F6000F80111928A95E9F788E0D8018C931196BF
:102F70001C92119712961C926AC0F80183819AE004
:102F8000F92E9E012F5F3F4F6901D901EF2D1D9250
:102F9000EA95E9F7B9014AD6D8018D93F601019077
:102FA0000D92FA94E1F753C0D80113968C919AE0F0
:102FB000F8013496DE01119601900D929A95E1F791
:102FC00029813A812115BCE73B0741F44091750303
:102FD00050917603452B11F420E030E03A832983A9
:102FE0002B813C812115ECE73E0741F440917503AC
:102FF00050917603452B11F420E030E03C832B8385
:103000002D813E812115FCE73F0741F44091750376
:1030100050917603452B11F420E030E03E832D8360
:103020002F81388521159CE7390741F440917503BC
:1030300050917603452B11F420E030E038872F8340
:10304000BE016F5F7F4F07D6D8018C9342DE2A9670
:10305000EAE00C94BF33A6E0B0E0E1E3F8E10C94C1
:10306000AB339093230480932204811520E29207CE
:1030700018F40E94DF0310C080EF89838A830E94C6
:103080009A288160682F9C838B8349815A817C8137
:1030900081E091E00E943E052696E2E00C94C73361
:1030A000A6E0B0E0E6E5F8E10C94AB33909323049E
:1030B00080932204811520E2920718F40E94F40301
:1030C00010C080EF89838A830E949A288160682FCC
:1030D0009C838B8349815A817C8181E090E00E94AE
:1030E0003E052696E2E00C94C7330F931F93CF93CF
:1030F000DF938C01EB016DE573E08C2F97D5892B65
:10310000D9F5DD27C959DC4F8881F8011282188270
:10311000833079F048F4813041F1823069F5809153
:103120005F039091600309C0843051F08530E9F06D
:1031300023C080916103909162030097B1F01BC09E
:1031400080916303909164030097A9F420915D033B
:1031500030915E0380915F039091600321153105EA
:1031600041F0009741F4C90106C080915D03909140
:103170005E03009709F094DFDF91CF911F910F91CB
:103180000895CF93DF93EC0166DFCE0189DFDF91F5
:10319000CF9108950F931F93CF93DF938C01EB0191
:1031A0006DE573E08C2F42D5892B09F064C0DD27D3
:1031B000F8018281813039F4958192FD13C090FF2E
:1031C00011C082E00FC0823041F4F801858182FD98
:1031D00006C080FD06C083E005C086E003C085E030
:1031E00001C084E0C959DC4F88838330B1F028F4F2
:1031F000813071F0823031F03EC08430A9F08530EA
:1032000071F139C080915F0390916003009791F54F
:1032100080915D0390915E031FC080916103909146
:1032200062030097E1F026C08091630390916403EC
:10323000009701F580915D0390915E03009741F046
:10324000A0DF80915F0390916003009779F012C036
:1032500080915F0390916003009769F00BC08091AB
:103260005D0390915E03009731F08BDF80915D03E9
:1032700090915E03F0DEDF91CF911F910F91089541
:103280000F931F93CF93DF938C01862F6DE573E02F
:10329000CDD4892B99F4C0915D03D0915E03209722
:1032A00069F0F8018281833029F4CE016ADFCE0112
:1032B00068DF02C0843010F0CE0163DFDF91CF9170
:1032C0001F910F910895AAE0B0E0E9E6F9E10C94AE
:1032D000AB339C0137552F3F310509F048F4BE014F
:1032E0006F5F7F4FA3D4892B19F489859A8502C01B
:1032F00088EC90E02A96E2E00C94C73388E090E0F6
:1033000008958830910540F424E0880F991F2A958C
:10331000E1F783529D4F089580E090E00895CF93A8
:10332000DF93FB012581211144C0EC01D755CF3F2C
:10333000D10511F008F03DC06DE573E08C2F76D417
:10334000892BB9F5CE0124E0880F991F2A95E1F762
:10335000FC01E352FD4F22812130C9F420915D032D
:1033600030915E03232B29F120915F03309160039C
:10337000232BF9F02091610330916203232BC9F4D0
:103380002091630330916403232B49F012C0223053
:1033900081F42091610330916203232B51F0FC01F1
:1033A000EE51FD4F20812E7F208383529D4F0E943E
:1033B000622381E0DF91CF910895AB0124E630E0F4
:1033C000BC0188E70E94B42921E0892B09F020E0A4
:1033D000822F0895AB0124E630E0BC0188E70E940B
:1033E000FB2921E0892B09F020E0822F08950F931B
:1033F0001F939B0104E610E0AC0160E488E70E94A3
:10340000432A21E0892B09F020E0822F1F910F91A0
:1034100008950C94812908950895FECF0895E4E25B
:10342000F4E080E092E0DF019C011D9221503040E9
:10343000E1F7F0932B06E0932A068FEF9FEF90932E
:103440009D0380939C030895CF93E7DFE5DF80938E
:10345000980380FD02C080E801C080E2809397035A
:10346000D8DF6BE070E089E994E0B4DF811102C03D
:10347000C0E02EC08091980365E070E081FD03C03C
:1034800084E994E002C08FE894E0A4DF882381F30C
:103490006DE070E082E894E09DDFC82F882341F35F
:1034A0000E94A628DC01CB01805A9541AF4FBF4F47
:1034B0008093260690932706A0932806B0932906AA
:1034C000AEDF81E080939B0380939A03109299036F
:1034D0008C2FCF9108952091970336E0839FC001F0
:1034E0001124629F800D911D1124811522E0920705
:1034F00014F080E090E08C5D9B4F90932B068093BE
:103500002A06089580919B038823F1F00E94A62843
:10351000DC01CB01805A9541AF4FBF4F8093260607
:1035200090932706A0932806B093290680919A03CA
:1035300081110AC062E070E080E894E04BDF8823EC
:1035400019F081E080939A0380919A030895A4E092
:10355000B0E0EDEAFAE10C949B3320919C033091AA
:103560009D03232B09F4EAC090919B03992309F44E
:10357000E5C0909199039111E1C0082FC3DFF12CB0
:1035800010E0AA24A394B12CB3E0EB2E80E2D82E55
:1035900080919C0390919D03009709F4CFC0F11096
:1035A000CBC0212E312C9501012E02C0220F331FDA
:1035B0000A94E2F73A83298328233923232B11F431
:1035C0001F5FEFCF20919803C101F5E0880F991F8D
:1035D000FA95E1F720FD13C0880F892F881F990BFA
:1035E0009195912F9295990F907690933D018093AC
:1035F0004001915E90933E018093410111C075E0BE
:10360000969587957A95E1F7880F880F880F8093B4
:103610003D0110924001895F80933E01E09241019B
:1036200067E070E08BE391E0C8DE882309F486C090
:103630008091980380FD1EC0C10165E0880F991F2D
:103640006A95E1F760E270E08C5D9B4FD0DE8823E5
:1036500009F474C069817A816095709580919C03AA
:1036600090919D036823792370939D0360939C033D
:10367000F3948ECFA7E7B3E0ED2D1D92EA95E9F71D
:1036800055E0220C331C5A95E1F726EE31E03C83DD
:103690002B8382EE91E0AB81BC812D91BC83AB8307
:1036A000FC013191CF01A101430F511DBA016C5DA5
:1036B0007B4F2B0130E029583C4FF90147E0942E15
:1036C000AF01421B530B7A2C01C0770C4A95EAF7E5
:1036D000B201812CDB01CD90BD01C720492D4819D5
:1036E0004770642E042E000C550BBC2D01C0BB0F7F
:1036F0006A94EAF76B2E5195419551094770552709
:1037000001C0C6944A95EAF76C28C0806C28608294
:10371000839448E08412DECF9A9431966FEF96122C
:10372000CFCFAB81BC81AA5EB14009F0B4CF60E2DB
:1037300070E087E793E08ACF011133CF2496E2E16E
:103740000C94B73380919B0390919A03882381F066
:10375000992361F062E070E08EE794E03BDE811136
:1037600003C080919A03089510929A0390919A034E
:1037700081E08927089581E00895FDCF08950F9392
:103780001F9380919B03882371F18091240690916F
:1037900025060E94B228C29750F00E949A28909362
:1037A00025068093240660E080E095DEE6DF80E079
:1037B000CEDE80919A038823B1F00E94A628009162
:1037C0002606109127062091280630912906DC0153
:1037D000CB01801B910BA20BB30B8F3F9F4FAF4FC1
:1037E000BF4708F4AFDF1F910F9108950C94BF13EA
:1037F000089588E0EFE9F3E0DF011D928A95E9F78B
:1038000025C10895FC01228130E02F5F3F4F2370D6
:103810003327438150E081E02417350709F080E029
:1038200008950F931F93CF93DF93EC01162F042F6E
:10383000E9DF811113C08A81FE01E80FF11D1F77B6
:1038400064816078612B00FB67F964838F5F83700C
:103850008A8388818F5F888381E001C080E0DF9167
:10386000CF911F910F910895FC0183819281981748
:10387000B1F0DF01A80FB11D14968C9187FB992739
:1038800090F98F77DB018C93DA019C9383818F5FB2
:103890008370838381818F5F818381E0089580E0DD
:1038A0000895462F682F8FE993E0BBCF0895AB01B1
:1038B000BC018FE993E0D8CF0895DC0198E0EFE9EF
:1038C000F3E001900D929A95E1F7089581E08093DD
:1038D0009E03089581E00895CF93DF93D62FFADFFA
:1038E000C82F882349F06AE070E0DD2311F089EAEF
:1038F00001C08AEA0E94EA058C2FDF91CF910895DA
:10390000A2E0B0E0E6E8FCE10C94AA3310E0BE01CE
:103910006F5F7F4FCE010296CADF882329F069814D
:103920008A81DADF11E0F3CF812F2296E3E00C9455
:10393000C633CF935BDF882319F0E2DFC82F01C0C5
:10394000C0E080919E03882351F010929E038091E5
:10395000A1038093A20380919F038093A003CCD006
:1039600045DF882311F0CCDFC82B8C2FCF91089531
:103970008FE891E00197F1F700C00000089590E012
:10398000FC01662319F0EE5BFE4F02C0ED5BFE4FBB
:1039900080818F3FA1F0E82FE295EF70F0E031A138
:1039A000282F2F7081E090E001C0880F2A95EAF758
:1039B000982F9095932391A392A1892B82A3089588
:1039C00090E0FC01662319F0EE5BFE4F02C0ED5B58
:1039D000FE4F20812F3F71F0E22FE295EF70F0E073
:1039E00080A190E02F7002C0959587952A95E2F707
:1039F0008170089580E008950895CF93DF93C0E02B
:103A00008091A803C81740F460E08C2FB8DF61E014
:103A10008C2FB5DFCF5FF4CFABDFC0E08091A80380
:103A2000C81780F460E08C2FCBDFD82F61E08C2F9B
:103A3000C7DFEC2FF0E0E555FC4F880FD82BD08383
:103A4000CF5FECCFD9DFDF91CF9108958091020154
:103A500091E089278093A703809102019093A803A6
:103A60008091020180910201811106C084EF809350
:103A7000430185EF80934201C0CF08951F93CF93F8
:103A8000DF93E42FEE0F6E2BC82FD0E0DE01A5559B
:103A9000BC4FEC912E2F237030E0462F50E02417BE
:103AA000350731F1EE0FEE0FE62BEC939091A70363
:103AB000182F190FEF70F0E0E651FE4FC755DC4F9D
:103AC00090818881890F888384301CF060E0812F89
:103AD000E8DE88818D3F1CF461E0812FE2DE888181
:103AE000082E000C990B64E070E00E942D3388834F
:103AF000DF91CF911F910895CF93DF93C0E0809124
:103B0000A803C81768F461E08C2F5ADFD82F60E053
:103B10008C2F56DF4D2F682F8C2FB0DFCF5FEFCF6C
:103B2000DF91CF9108950C94F20D089580E00E94EA
:103B30000D12817008950E942D132FEF86E791E0FA
:103B4000215080409040E1F700C000000E942D13FA
:103B5000EDDF882319F0E7DF0C9403290895EBCFFC
:103B600008950895FC01680F791F8FEF91E3E61720
:103B7000F70771F02191822728E030E087FF03C02A
:103B8000880F892701C0880F21503109B9F7EFCF7D
:103B9000089584E0089550E0440F551F2CE0629F83
:103BA000400D511D11249A0168E7869F200D311D9B
:103BB0001124C901889608950F931F93CF93DF9323
:103BC000843098F46A3088F4463078F4E4DF8C016D
:103BD0000E94173490E0D82FCC27C80101960E948C
:103BE00017349E01282BC90102C080E090E0DF91CC
:103BF000CF911F910F9108950F931F93CF93DF9350
:103C0000843078F46A3068F4463058F4E901C3DF50
:103C10008C016D2F0E9433346C2FC80101960E94D5
:103C20003334DF91CF911F910F910895883080F444
:103C30009B01982F8AE0989FB0011124685D7D4F09
:103C40004AE050E0C9010E94073480E090E0089506
:103C50008FEF9FEF0895883080F49B01982F8AE0C2
:103C6000989FB0011124685D7D4F4AE050E0C90182
:103C70000E94513480E090E008958FEF9FEF089507
:103C8000CF92DF92FF920F931F93CF93DF93CDB725
:103C9000DEB72A970FB6F894DEBF0FBECDBFC09037
:103CA0007503D090760381E090E090937603809343
:103CB000750300E010E0F12C4F2D612F802F0E9442
:103CC000A6039C014F2D612F802F96DFF39486E091
:103CD000F812F2CF1F5F1A3071F70F5F043051F7FF
:103CE0001A8219821C821B821E821D8218861F82E4
:103CF00088EC90E09A87898710E0BE016F5F7F4F64
:103D0000812FA9DF1F5F1830C1F7D0927603C092D0
:103D100075032A960FB6F894DEBF0FBECDBFDF91B4
:103D2000CF911F910F91FF90DF90CF900895EF9268
:103D3000FF920F931F93CF93DF93EA017A01E60E70
:103D4000F71E8C01C8018896CE15DF0569F0003E8C
:103D500021E0120720F40E941734888301C01882E2
:103D600021960F5F1F4FEECFCDB7DEB7E6E00C9484
:103D7000C333A0E0B0E0EFEBFEE10C949F33EC0125
:103D80006B017A01803E914008F073C080EE91E0B3
:103D90008C1B9D0B8617970708F46BC03E0138E219
:103DA000630E711C8091750390917603892B19F035
:103DB000CE0CDF1C59C0C0FF11C0CE0187960E94F7
:103DC000173490E0982F8827F7012081822B8115E6
:103DD0009C4739F48FEFF701808303C000E010E0C7
:103DE00002C001E010E0CE018C0D9D1D560180FF48
:103DF00017C0F1E0AF1AB10847018A0C9B1CC30140
:103E00008C0D9D1D0E941734F401208130E0322F6B
:103E10002227282B21153C4719F48FEFF4018083CA
:103E2000F701E00FF11F2FEFCF018E199F098A15BF
:103E30009B0508F0BDCF808190E0982F88273181C5
:103E4000832B81159C4711F4208321833296ECCF7C
:103E5000C03EE1E0DE0720F4F70160810E943334C8
:103E6000FFEFEF1AFF0A2196CE018896EC14FD04AD
:103E700079F7CDB7DEB7EEE00C94BB33843030F485
:103E80006A3020F4463010F497CE089580E090E038
:103E9000089580E1089588E891E00895EF92FF92F7
:103EA0000F931F93CF93DF93EA017A01E60EF71E7B
:103EB0008C01C80188589D4FCE15DF0569F0083880
:103EC00021E0120720F40E941734888301C0188271
:103ED00021960F5F1F4FEDCFCDB7DEB7E6E00C9414
:103EE000C333EF92FF920F931F93CF93DF93EA01B7
:103EF0007A01E60EF71E8C01C80188589D4FCE1539
:103F0000DF0559F0083821E0120718F468810E9493
:103F1000333421960F5F1F4FEFCFCDB7DEB7E6E00A
:103F20000C94C333CF93DF93C8E7D2E060E0CE01B7
:103F30000E9433342196C11584E0D807B9F7DF9188
:103F4000CF910895A4E0B0E0E8EAFFE10C949E333D
:103F5000F82E2FE0281708F4B2C08FEF93E00E94EC
:103F600017348111ACC008E712E0FF2071F0011591
:103F700084E0180709F4A3C0C8010E941734811116
:103F800001C0FA940F5F1F4FF0CF84E0782EFE013E
:103F900031966F0166246A94F601272D11922A95B5
:103FA000E9F778018FEFE81AF80AC8010E94173480
:103FB0008983882309F483C0813009F07CC05801CB
:103FC00092E0A90EB11CC7010E941734582E8A83B3
:103FD000882309F474C08FEF850D833078F478015D
:103FE000E3E0EE0EF11CC5010E9417348B838111B2
:103FF00002C08701D1CFC60192D2FBCF8BEF850DD6
:10400000833060F54801F3E08F0E911CC5010E94DA
:1040100017348B83811102C07401EBCF780124E047
:10402000E20EF11CC4010E9417348C83882309F32B
:104030002B813C8121308FEF380718F0922F80E0E0
:1040400001C0C901E6E05E1629F0F7E05F1621F035
:1040500098D8CFCF00D8CDCF23D8CBCF24E05216DD
:1040600011F07501C6CFC5010E941734B82E780132
:1040700084E0E80EF11CC80103960E941734BB20AF
:10408000F1F08823E1F0282F30E021503109629EC1
:10409000A001639E500D11248B2D90E00197840F99
:1040A000951F019708F4A5CFEFE9FFE03197F1F7ED
:1040B00000C00000F6CF60E0C601C9D19ACF2496B7
:1040C000EFE00C94BA33CF93DF9386319C47F9F439
:1040D000EB010E94D60C9D81992369F08A7A91E0C8
:1040E00009F490E09093AD03811102C089E201C010
:1040F00085E368D708C08091AD03811102C089E2D1
:1041000001C085E366D70E94790D80E001C081E09F
:10411000DF91CF910895CF93DF93FC01DB011596DA
:104120008C91882309F4DDC09F013057233231057B
:1041300008F0D8C0EF010E940F0E909307048093FF
:104140000604FE01E150F047E232F10520F4E059A7
:10415000FF4F0C947E33809106048160AAC0809149
:1041600007048860B2C0809106048260A2C080917A
:10417000060420C08091060488609BC080910704DB
:104180001EC0809107048260A0C0809106048061F7
:1041900090C08091060480628CC080910604806487
:1041A00088C00E94330880910604806882C0809194
:1041B0000604886084607DC080910704826081600D
:1041C00084C0809106048E7F74C080910704877F2D
:1041D0007CC0809106048D7F6CC08091060420C055
:1041E00080910604877F65C0809107041EC080917E
:1041F00007048D7F6AC0809106048F7E5AC080912B
:1042000006048F7D56C0809106048F7B52C00E94A9
:104210003308809106048F774CC080910604877F15
:104220008B7F47C0809107048D7F8E7F4EC0809129
:10423000060482FB222720F991E0922790FB82F965
:1042400090FB83F936C080910704982F9095917068
:104250008E7F892B90FB81F938C08091060486FB04
:10426000222720F991E0922790FB86F922C00E9434
:1042700033088091060487FB222720F991E09227DA
:1042800090FB87F916C081E001C080E00E94950E86
:104290001EC08091060484FB222720F991E092271A
:1042A00090FB84F906C080910604982F909590FBAE
:1042B00080F9809306040BC08091070483FB2227BA
:1042C00020F991E0922790FB83F980930704809175
:1042D0000604909107040E94140E0E94330880E0A7
:1042E00001C081E0DF91CF9108958F929F92BF929C
:1042F000CF92DF92EF92FF920F931F93CF93DF93B2
:10430000E82FF0E0EC55FB4FB490282F269526952A
:10431000269530E0F901EC5BFA4FE4908770F12CC0
:10432000082E02C0F594E7940A94E2F791E0E9229E
:10433000FF24F901EC5CFA4FC490D12C082E02C086
:10434000D594C7940A94E2F7E1E0CE22DD24F90186
:10435000EC5DFA4FC491D0E002C0D595C7958A951F
:10436000E2F7C170DD27062F10E0E114F10471F0CF
:1043700081EE0E948505C801009741F0EFE9FFE05A
:104380003197F1F700C000000197F6CFC114D104B6
:1043900039F44801B8018B2D0E94EA05C8010EC00E
:1043A00086EE0E948505C801009799F3EFE9FFE0CA
:1043B0003197F1F700C000000197F6CF009741F068
:1043C000EFE9FFE03197F1F700C000000197F6CF69
:1043D000CD2819F5EF2879F081EE0E94C20501156C
:1043E000110549F08FE99FE00197F1F700C0000047
:1043F00001501109F4CFCD2BF1F08CE20E940006A0
:1044000081149104C1F0EFE9FFE03197F1F700C0AA
:104410000000F1E08F1A9108F3CF86EE0E94C205EA
:10442000C8010097B9F2EFE9FFE03197F1F700C05A
:1044300000000197F6CFDF91CF911F910F91FF9070
:10444000EF90DF90CF90BF909F908F900895EF9264
:10445000FF920F931F93CF93DF93EC01162F0AE087
:104460008881882309F456C0813009F04FC08981C2
:10447000813041F47E0182E0E80EF11C8A810E94C5
:10448000000609C0823049F47E01E2E0EE0EF11C24
:104490008A810E948505E7012DC0833041F47E01A9
:1044A000F2E0EF0EF11C8A810E94C205F4CF843045
:1044B00011F021961FC02A81229680E090E030E022
:1044C000205331092A30310558F4089FA001099F73
:1044D000500D1124C901840F951F21962881EFCF1B
:1044E000009741F0EFE9FFE03197F1F700C00000DD
:1044F0000197F6CF812F90E0009751F0EFE9FFE0B0
:104500003197F1F700C000000197F6CF612FEDDE83
:104510002196A6CFCDB7DEB7E6E00C94C33360E0BA
:1045200096CF0895A0E0B0E0E8E9F2E20C94A3335E
:104530007C015B01C42FD22FFC0185818823A9F067
:104540004093B003F7D59093AF038093AE0380E21E
:104550008C0F883008F051C0C77081E001C0880F0F
:10456000CA95EAF70E94090648C08091B003481333
:1045700034C08091AE039091AF03F4D56C01B701C4
:10458000C5010E946319C816D90638F510E21D0F3F
:10459000CD17B9F080E28C0F883040F4C77081E00D
:1045A00001C0880FCA95EAF70E940E06183010F570
:1045B00081E09D2F977001C0880F9A95EAF70E94BD
:1045C0000906802F0E9400061830B8F4D77081E0E9
:1045D00001C0880FDA95EAF70AC080E28C0F8830B4
:1045E00060F4C77081E001C0880FCA95EAF70E94A5
:1045F0000E0603C0802F0E940006CDB7DEB7EAE0AA
:104600000C94BF330F93FC01E851FC47E730F105F0
:1046100088F5CB01EE56FF4F0C947E3306E221EE77
:1046200041EE6AE17CE723C007E225EE45EE6BE14F
:104630007CE71DC006E221EE40EE68E17CE717C092
:1046400007E225EE44EE69E17CE711C006E221EEC7
:1046500042EE6CE17CE70BC007E225EE46EE6DE131
:104660007CE705C008E221E045EE6EE17CE75ADF19
:1046700080E008C0FB018581882319F01092B00307
:1046800001C081E00F9108954115510511F0FA0123
:1046900009950895CF93DF93EC014A855B856E857C
:1046A0007F85F2DF8B810E94F20C8C810E94DF0CEF
:1046B0000E94790D86E0FE0111928A95E9F7DF915B
:1046C000CF910895CF93DF93EC018D8181FD10C0D0
:1046D00082608D838B810E94EC0C8C810E94D90CAE
:1046E0000E94790D488559856E857F85CE01CCDF86
:1046F0001092B4031092B3038D8180FD02C0CE01ED
:10470000C9DFDF91CF9108950F931F93CF93FB01E2
:10471000C581CC23D1F02091B3033091B40321158E
:10472000310591F02817390779F08C01C9019927D3
:104730000E948119FC012581246025831183008357
:10474000C1DF0E94F90C01C0C0E08C2FCF911F91F6
:104750000F910895EF92FF920F931F93CF93DF93E2
:104760009C0137552F3F310511F008F057C07B01F0
:104770008C010E947E19980133272817390708F009
:1047800050C0C9010E948119EC01F70195818D810A
:1047900090FB80F98D83F580FF2031F1CBD490938D
:1047A000B2038093B1038A818F5F8A830E94D60C03
:1047B0008B830E94E90C9B81892B8B830E94FC0CCC
:1047C0008C834E815F816E857F85CE015DDF8D811B
:1047D00081FD03C0902F812F02C090E080E0909374
:1047E000B3038093B4031EC04C855D856E857F85C1
:1047F000CE014ADF8D8181FBFF24F0F881FF0EC0DE
:10480000CE0148DF8091B3039091B40308171907D4
:1048100029F41092B4031092B30304C0FF24F3945C
:1048200001C0F12C8F2DCDB7DEB7E6E00C94C33379
:10483000A7E0B0E0EEE1F4E20C94A9338091B30379
:104840009091B403892B11F18091B1039091B2033F
:1048500089D48C01BE016F5F7F4F87E0FB0111920D
:104860008A95E9F78091B3039091B4030E9463198C
:104870008017910758F48091B3039091B40399275E
:104880000E948119FC01258122FF1CDF2796E4E0AC
:104890000C94C5331F93CF93DF9387372CE7920790
:1048A00021F088379C4749F027C0FB01C581CC2304
:1048B00011F028D007C026D013C0FB01C581CC233E
:1048C00071F023D00E949C0823D0D82F1ED0C82F6F
:1048D00019D04D2F6C2F0E94B609C0E00EC015D024
:1048E0000E94A70815D0182F10D0D82F0BD0412F19
:1048F0006D2F0E94B60901C0C1E08C2FDF91CF91CE
:104900001F91089580914601089580914501089571
:1049100080914401089584E290E00E941734893F19
:1049200081F485E290E00E941734823051F486E2EF
:1049300090E00E94173491E08B3909F090E0892FC4
:1049400001C080E081700895CF93C82F811102C00B
:104950006FEF01C069EF84E290E00E943334C1112F
:1049600002C06FEF01C062E085E290E00E94333444
:10497000C11102C06FEF01C06BE986E290E00E94B6
:104980003334CF910895089587E290E00E94173460
:10499000682F70E080E090E008950895CF93C62FCF
:1049A000FCDF6C2F87E290E00E943334CF910895B2
:1049B00080E0CADF60E070E0CB01F0DF61D9B2DAFD
:1049C00081E0C2CF0895DFDFDFDFE7DFA4DF811101
:1049D00001C0EECF08959C01FB018581882349F039
:1049E000A90157574038510528F4C901ABDA80E0D6
:1049F000089581E008952FEFFC0120830895EF9240
:104A0000FF920F931F93CF93DF93EC01162F20910A
:104A10007303309174038881232B61F08E3F09F07A
:104A2000FCC08981833008F4F0C08550833008F0E1
:104A3000F4C0EBC08B3009F4D5C030F5853009F4F3
:104A400071C0B0F48230E1F130F4813009F0E2C09D
:104A5000198289E07AC0833009F458C0843009F0A3
:104A6000D9C04B816A818981A7D89C838D83D5C0A9
:104A7000873009F463C008F45FC0883009F45EC071
:104A8000893009F45BC0C6C0803109F487C060F486
:104A90008D3009F458C008F454C08E3009F457C062
:104AA0008F3009F464C0B6C0823109F47DC008F4C7
:104AB00077C0833109F487C08E3F09F4A6C0AAC02D
:104AC0008981823039F0833059F0813009F0A2C0F9
:104AD0003DD301C059DF9A838B837C836D839DC056
:104AE0008091750390917603892B09F496C07E011D
:104AF00022E0E20EF11C00E0802F0E940D12F7016F
:104B000081937F010F5F0A30B9F787C089818230B6
:104B100009F080C06A817B818C819D810E948433F1
:104B20003DDF7BC02C813D813227232732274B81FB
:104B30006A81898161D871C0A3D86FC08FEF8883E3
:104B40006CC0A7D92FC0A7D999838A8366C08981F1
:104B50009A819827892798276B8170E06D317105BC
:104B600008F05BC0AE014C5F5F4F98D956C0809192
:104B7000750390917603892B09F44FC089819A813E
:104B80009827892798276B8170E06D31710508F0AF
:104B900044C0AE014C5F5F4FA4D93FC0C3D93DC0F4
:104BA0000E94C91D898339C089819A8198278927E4
:104BB00098276B8170E06D31710578F5AE014C5F1F
:104BC0005F4FB5D82AC089819A819827892798276D
:104BD0006B8170E06D31710500F5AE014C5F5F4F88
:104BE000C8D81BC08091750390917603892BA9F0DA
:104BF000CE017FD6FFEF21EE84E0F15020408040CF
:104C0000E1F700C00000FFD208C0612FCE010E9472
:104C1000831603C0612FCE01EEDE612FCE0169D66F
:104C2000CDB7DEB7E6E00C94C3339C013A9521156D
:104C30003F4410F4992706C08F3F910519F010F0FA
:104C400080E090E09C01245031092432310540F08D
:104C50002752310981E02E30310518F080E00895A7
:104C600081E00895E2CF0895FDDF882381F0E0918F
:104C7000BB03F0E0EE0FFF1FE454FC4F80819181F5
:104C80008F3F2FE7920719F0019691838083089553
:104C90004F925F926F927F928F929F92AF92BF924C
:104CA000CF92DF92EF92FF92CF93C090BC03D0904F
:104CB000BD030D2C000CEE08FF088091470190E029
:104CC000EEEBF3E021E030E0821793076CF04191C6
:104CD0005191052E000C660B770BC40ED51EE61EF7
:104CE000F71E2F5F3F4FF0CFF7FE03C0C12CD12C32
:104CF00076016091EE037091EF038091F003909143
:104D0000F1033FD22B013C01C0914701A0E6BAEE6E
:104D1000A70196010E948B334B015C0188ECC89F70
:104D200090011124C901330FAA0BBB0B9C01AD01EB
:104D3000240D351D461D571DA5E0B0E00E948B33A4
:104D40009B01AC01C501B4010E94403349015A01E5
:104D500057FD0BC0213F3105410551054CF030EFA7
:104D6000832E912CA12CB12C03C0812C912C5401A9
:104D700089EC48165104610471040CF18091BB0365
:104D800090E0019669E170E00E942D338093BB03AF
:104D9000880F991FFC01E454FC4F11821082C83126
:104DA00010F4CF5F01C0C8E1C0934701CFD1609339
:104DB000EE037093EF038093F0039093F10382E08E
:104DC000C816D104E104F1041CF4812C912C540187
:104DD0006091B7037091B8038091B9039091BA03C1
:104DE000D0D16B017C0185E6C816D104E104F10441
:104DF0007CF0ACD16093B7037093B8038093B90390
:104E00009093BA038091F2038093B6038092B50326
:104E1000C091B603A091B503B0E0AC1BB109A701E6
:104E200096010E94953324E630E040E050E00E9475
:104E300062332C0F2093F203CF91FF90EF90DF901D
:104E4000CF90BF90AF909F908F907F906F905F902A
:104E50004F9008959093F9038093F80308950E946A
:104E6000BF13811103C08091F3030895E091F8030B
:104E7000F091F903309729F00190F081E02D099528
:104E8000089580E00895E091F803F091F9033097D8
:104E900021F00280F381E02D09950895A3E0B0E0B0
:104EA000E4E5F7E20C94AB332091F6033091F7037D
:104EB00028173907A1F09093F7038093F603E09148
:104EC000F803F091F903309751F023E029839B8395
:104ED0008A830084F185E02DCE0101960995239601
:104EE000E2E00C94C733A3E0B0E0E9E7F7E20C940A
:104EF000AB332091F4033091F50328173907A1F063
:104F00009093F5038093F403E091F803F091F90393
:104F1000309751F024E029839B838A830084F185B4
:104F2000E02DCE01019609952396E2E00C94C7335B
:104F3000E0910001F0910101329697E080E09150FC
:104F400029F021912223D9F38F5FF9CF0895882387
:104F500071F02091000130910101F9013296285F32
:104F60003F4F9191891729F0E217F307D1F780E0BD
:104F7000089581E008959C01FC0132969FEF80E046
:104F80004191461789F09F3F19F4411101C0982FB4
:104F90008F5F8630A9F79F3F39F0F901E90FF11DC6
:104FA00097FDFA956283089508959C012A5F3F4F0B
:104FB000FC014281461301C01282019682179307B9
:104FC000B9F70895682F8091000190910101D3CF26
:104FD0000895682F8091000190910101E6CF089516
:104FE000E0910001F0910101329686E0DF011D920F
:104FF0008A95E9F708950895FECF089583E0809398
:10500000FA03FACF0895811102C081E001C082E065
:105010008093FA03F1CF0895F6CF089581E080934D
:10502000FA03EACF0895FACF089508950C94A303E4
:105030000895FBCF0895F9CF0895F7CF0895CF9342
:10504000FADF0E942D13F5DFC0E08C2F0E940D12B5
:10505000811104C0CF5FCA30C1F701C081E0CF9198
:10506000089585B7806885BF85B7806885BF089536
:105070001F920F920FB60F9211248F939F93AF93AD
:10508000BF938091FB03811113C080912C069091F6
:105090002D06A0912E06B0912F064196A11DB11D9F
:1050A00080932C0690932D06A0932E06B0932F0686
:1050B000BF91AF919F918F910F900FBE0F901F9056
:1050C000189580913406843031F10E9402051092C7
:1050D000FB0320E488E190E00FB6F894A895809354
:1050E00060000FBE2093600083B7817F846083BF20
:1050F00083B7816083BF7894889583B78E7F83BFA1
:105100000FB6F894A8958091600088618093600044
:10511000109260000FBE08950E9433080C94080599
:10512000089582E084BD93E095BD9AEF97BD80938A
:105130006E0008952FB7F89480912C0690912D065B
:10514000A0912E06B0912F062FBF08952FB7F89487
:1051500060912C0670912D0680912E0690912F065D
:105160002FBF08959C014FB7F89480912C06909121
:105170002D06A0912E06B0912F064FBF821B930BD8
:105180000895CF92DF92EF92FF922FB7F894C090DC
:105190002C06D0902D06E0902E06F0902F062FBF03
:1051A000A7019601261B370B480B590BCA01B90101
:1051B000FF90EF90DF90CF90089578941F920F9218
:1051C0000FB60F9211248F939F93AF93BF9380914B
:1051D0002C0690912D06A0912E06B0912F060196D7
:1051E000A11DB11D80932C0690932D06A0932E0631
:1051F000B0932F06BF91AF919F918F910F900FBEEB
:105200000F901F90189581E08093E00080E28093DA
:10521000D8001092C9008FE19EE40197F1F700C019
:10522000000087E090EBDC0180933D0690933E0602
:10523000A0933F06B09340069CE088E10FB6F89437
:10524000A895809360000FBE90936000FFCF9CE014
:1052500088E10FB6F894A895809360000FBE9093F4
:105260006000FFCFEF92FF920F931F93CF93DF93D6
:10527000182FEB011092BC0084EA8093BC005ADF27
:105280007C018091BC0087FD0CC0CF3F8FEFD80719
:10529000C1F3C70167DFC817D90798F78EEF9FEFF3
:1052A0002BC08091B900887F883041F08091B9008F
:1052B000887F803119F08FEF9FEF1EC01093BB00E5
:1052C00084E88093BC0036DF8C018091BC0087FDB0
:1052D0000AC0CF3F8FEFD807C1F3C80143DFC8171B
:1052E000D90798F7DBCF8091B900887F883111F01A
:1052F000803409F780E090E0CDB7DEB7E6E00C94AB
:10530000C3331092B9008CE08093B80008950F93D6
:105310001F93CF93DF93EB018093BB0084E88093CE
:10532000BC0008DF8C018091BC0087FD0CC0CF3F22
:105330008FEFD807C1F3C80115DFC817D90798F751
:105340008EEF9FEF0CC02091B900287F81E090E0A4
:10535000283211F480E090E0919581959109DF91D8
:10536000CF911F910F910895A0E0B0E0EAEBF9E230
:105370000C94A033782EB62EA72E6A018901DADEAE
:105380004C010431110558F00F3F8FEF180751F011
:10539000C80164E170E00E941933EB0105C0C1E06F
:1053A000D0E002C0C5E0D0E0BE01872D5BDF7C010C
:1053B00097FD05C0CB2DDA2DCC0EDD1E10C00F3FA2
:1053C0008FEF180789F3C401CDDE0817190760F7BE
:1053D000F1CFF7FC07C0B801899199DF7C01CC15AA
:1053E000DD05B9F784E98093BC00C701CDB7DEB70E
:1053F000EDE00C94BC33A0E0B0E0E1E0FAE20C9404
:10540000A033782EEB016A01890194DE4C0104314E
:10541000110558F00F3F8FEF180759F0C80164E1EC
:1054200070E00E9419335B0107C0AA24A394B12C39
:1054300003C085E0A82EB12CB501872D13DF7C01B8
:1054400097FD03C0CC0EDD1E12C00F3FEFEF1E070D
:1054500099F3C40187DE0817190770F7F3CFF7FC3B
:1054600009C0FE018491B80152DF7C012196CC1560
:10547000DD05A9F784E98093BC00C701CDB7DEB78D
:10548000EDE00C94BC33A0E0B0E0E9E4FAE20C9467
:105490009F33682E762E5A0169014CDE4C0104318F
:1054A000110558F00F3F8FEF180751F0C80164E164
:1054B00070E00E941933EB0105C0C1E0D0E002C0EA
:1054C000C5E0D0E0BE01862DCDDE7C0197FF0AC08D
:1054D0000F3F8FEF1807B1F3C40144DE0817190717
:1054E00088F711C0B801872D12DF7C01E501CA0CD5
:1054F000DB1CCC15DD0539F0F7FC05C0B80189913E
:1055000006DF7C01F6CF84E98093BC00C701CDB7EC
:10551000DEB7EEE00C94BB338EE14A9B02C08150B3
:10552000E1F74A9BFECF08955A9880E28A95F1F7F9
:105530005A9A0895FC012AE02A95F1F728E090E0B4
:1055400080E031E040E14A95F1F7880F4A9B02C0C4
:105550008160932700C0000040E14A95F1F7215097
:1055600089F720E12A95F1F729B100C0000030E168
:105570003A95F1F722FB222720F992272081920FFA
:1055800090830895A1E0B0E0E8ECFAE20C94A73330
:1055900019828C017C01E60EF11C0E151F0541F0ED
:1055A000BBDFCE010196C6DFF80181938F01F5CFF5
:1055B00081E09981911180E02196E6E00C94C3335B
:1055C000529A5A9A089552985A9AEA9AE9E6F0E05D
:1055D00080818F7C80830895615091E001C0990F94
:1055E0006A95EAF720E031E0992361F0492F4823DA
:1055F00019F05A9A232701C05A9840E24A95F1F7C8
:105600009695F2CF222311F05A9A01C05A9880E25F
:105610008A95F1F75A980895FF920F931F93CF93AD
:10562000DF93EC018C01060F111DC017D10731F07B
:10563000F9907ADF68E08F2DCFDFF7CFCDB7DEB7F7
:10564000E5E00C94C4331F920F920FB60F92112411
:105650000F931F932F933F934F935F936F937F937A
:105660008F939F93AF93BF93EF93FF93CF93DF936A
:105670001F92CDB7DEB719824FDFCE0101965ADFF8
:10568000082F069506950695902F96959570202FD4
:105690002570920F292F237096959695920F8770FB
:1056A00089135BC08981811158C0083008F055C04A
:1056B00080E18A95F1F75A9A529A82E08A95F1F739
:1056C00000C05A9888E0089F80011124D801AD5F7E
:1056D000BE4F1696ED91FC9117973097A9F0609107
:1056E000D8017091D90114962D913C911597260FF0
:1056F000371F11968D919C911297680F791F139601
:105700004C9113978C910995F801ED5FFE4F6381E1
:10571000662349F08091D8019091D9012481358187
:10572000820F931F79DF00DF80E18A95F1F75A98A5
:1057300052985A9A80E18A95F1F7F801ED5FFE4F91
:105740006081662349F08091D8019091D90121812F
:105750003281820F931F16DFDFDE0F90DF91CF9132
:10576000FF91EF91BF91AF919F918F917F916F9139
:105770005F914F913F912F911F910F910F900FBE0D
:105780000F901F9018950F931F93CF93DF9388303E
:1057900091050CF067C0EC01F894529A5A9885E094
:1057A0008A95F1F700009C2F969595702C2F257007
:1057B000920F892F83709695969523E0CC0FDD1F6D
:1057C0002A95E1F7980F8E01092BAEDE84E08A95C9
:1057D000F1F700C068E0802FFFDE80E18A95F1F7E5
:1057E00052985A9A4A9902C000C0FCCF87E090E0D4
:1057F0004A9B08C0019721F4529A5A9A789432C071
:1058000000C0F6CFFE01ED5FFE4F6381662379F0A5
:105810008091D8019091D90124813581820F931F05
:10582000B1DE811104C0529A5A9A78941CC074DE79
:1058300080E28A95F1F75A98529A80E18A95F1F7B9
:10584000CD5FDE4F6881662349F08091D801909149
:10585000D90129813A81820F931FDEDE65DE7894BB
:1058600081E001C080E0DF91CF911F910F910895F9
:10587000809104040895089508959B019091340641
:105880009430E9F48F708093E9008FEF9091E800F5
:10589000815095FD06C095ED9A95F1F700008111B4
:1058A000F5CF8091E80085FF0AC0BA01C90140E048
:1058B00050E004D28091E8008E778093E80008954C
:1058C00043E050E0BC0184E0D8CF0895CF93DF934C
:1058D000EC0148E050E0BC0181E0CFDF88E0FE0150
:1058E000ACEFB3E001900D928A95E1F7DF91CF9193
:1058F0000895603229F4BC0140E250E082E0BDCF5F
:105900000895A0E2B0E0E6E8FCE225C78091340605
:10591000843001F583E08093E9008091E80082FF04
:1059200019C08091E80085FF09C040E050E060E2C6
:1059300070E0CE01019603D291E001C090E0809129
:10594000E8008B778093E800992321F060E2CE0194
:10595000019655D8A096E2E01AC7809133068111CE
:1059600007C074D3CBD38091E20084608093E200BF
:10597000089510923306089556CB0895609130062D
:1059800081E0611101C080E039CB08959091340627
:1059900081E0943009F080E06091300634CB0895C6
:1059A00042E061EC81E0CBD242E261EC84E0C7D21C
:1059B00042E261EC82E0C3D242E260EC83E0BFD21B
:1059C0009091340681E0943009F080E060913006D7
:1059D00023CB089580913606833009F462C030F4F9
:1059E000813071F0823009F49AC008958A3009F448
:1059F00087C08B3009F46DC0893009F0A7C01FC083
:105A000080913506813A09F0A1C08091E800877F36
:105A10008093E8008091390690913A06892B21F411
:105A200068E08CEF93E003C060E080E090E070E01D
:105A3000C7D18091E8008B778093E800089580912A
:105A40003506813209F082C08091390690913A067C
:105A5000009719F0029709F079C08091E800877FDC
:105A60008093E8008091E80082FD05C080913406B3
:105A70008111F8CF6BC02091F3008091F20090E08B
:105A8000922B029731F48091F100813011F0863031
:105A900021F48091F100809304048091E8008B77D9
:105AA00052C080913506813A09F050C08091390684
:105AB00090913A06892B09F049C08091E800877FD0
:105AC0008093E8008091E80080FFFCCF8091520134
:105AD00035C0809135068132C9F5809139069091A3
