:100000000C94CF060C94EC060C94EC060C94403443
:100010000C94EC060C94EC060C94EC060C94EC0698
:100020000C94EC060C94EC060C94971B0C94D91AC7
:100030000C942E2C0C94EC060C94EC060C94EC0610
:100040000C94EC060C94EC060C94EC060C94EC0668
:100050000C94EC060C94191D0C94EC060C94EC0614
:100060000C94EC060C94EC060C94EC060C94EC0648
:100070000C94EC060C94EC060C94EC060C94EC0638
:100080000C94EC060C94EC060C94EC060C94EC0628
:100090000C94EC060C94EC060C94EC060C94EC0618
:1000A0000C94EC060C94EC060C94EC06970EB10E36
:1000B000B80E0F100F10F00E070F1A0F7B0F800FE6
:1000C0000F100F100F10880FD3124713DB12A51259
:1000D000A912DF12AC12E212ED12B7123D13BB12DD
:1000E000F112BF12F5121F13C312F9122913C9120C
:1000F000FF120913B012E612B312E912CE12041362
:10010000151335133713A112D712501379137F1318
:100110006A13701385138B13911323142314521431
:100120005214DC14F8140C160C16FD1471158215FB
:100130008215E5180C19C11A0C19C11A58197B1926
:10014000C11A7C1A8C1A00DA0281FFD9F1DB20A4D3
:10015000A62EAF00A0C0D30000A1C8D30000AED52A
:1001600080A81F408D142000FD377A585A000004E3
:10017000E6D6B4460200210116000000742FE5A364
:10018000E008E2024C5D003D8889C65436C3174F33
:10019000E4E62B87DC61F128B5AEA0A33C3CF45F1C
:1001A0007424B52C3D20C7689B3A8E08CE16E28F8A
:1001B000DD74FFA04F08D43D201DD0558F11BBB179
:1001C0003287318A341491884A492E35E0342D0C17
:1001D000400E9A3CEAF71ADE8FB7A230CF5983F26D
:1001E00023EF20330CC056779F9CED4D7DAF3FD65B
:1001F000C289956075A12F2E891DDC43DF675F8161
:10020000D38DC5C3D81411649D6290F38B2C365DD9
:100210000B6F74C04E46B3DED00F56EE8AE2DAB7EB
:10022000FB9EFD0D52C588DC45FF874E8E61CF38A1
:10023000B24884655A4D7476CD19495E5DD5F1A4F6
:10024000BAB0B017AFD23C9471A8793419EDC73663
:100250007C4DB86CFF0F9FC4D682F61E028C6E04D4
:100260000164DC13F769236B5C1B173425A3AACC4C
:10027000B1CE1B6458512974EBCF67BC05AF680140
:10028000AB1F9DBAF8424C73DA53FA234F3ED1FCB0
:10029000DE9F32459070FE604F3037942A16C7A813
:1002A0009A52BA8BD32488E60234B33230E25B022E
:1002B000F96739FB000ED8394232BA69E6C7B6B4DD
:1002C000B1109460026B794FB8BDC9E9DA58763243
:1002D000299FB653855DFDDEF3B603CD39B7DC4DFE
:1002E000A942249A5411D726B6B55B33ADEBADF5D0
:1002F000D7D48445A32FAECFE7FD52418C7535D1BD
:10030000ED6688C5C3B66ED8A73473063DC8E06EE7
:10031000BAE463C7C59C31D05BE096CC2FBE1F53B7
:10032000F74A885C950AFE0A7AB34C3248230B5789
:10033000D3C22EFF6C14DF96681887B11377178825
:10034000D21F2EF65EF6EA81BD9E780C99ADFBAE0B
:100350008ACB3F227CC2541095BA3303810447A84C
:10036000821B9EBE3EE2CEBBBFD790D6CCA1CDDED7
:1003700015224B703556F3C0AEF2CA6FB306516CFE
:10038000763356767F419828CEB0EB9E5CBB68AC46
:100390009CF7C21DFD6BEB2C49B7166F54BB28525E
:1003A000D4BC222279F621D7640A4DFF6E6B661108
:1003B00040C16B4059A09581608C237F04137E97C8
:1003C00070EC23369BC1F35CD589B57D7896442DBE
:1003D00057F1A400522FF7134D662E810001E80457
:1003E000E311000063CCEC15B1C467FB0200000010
:1003F0000004595A05010902A10185020901A10061
:1004000005091901290815002501950875018102C2
:100410000501093009311581257F9502750881068E
:1004200009381581257F950175088106050C0A3864
:10043000021581257F950175088106C0C005010957
:1004400080A101850319012AB700150126B700957F
:100450000175108100C0050C0901A1018504190175
:100460002AA002150126A002950175108100C00581
:10047000010906A1018506050719E029E7150025F0
:10048000019508750181020507190029EF1500255E
:100490000195F07501810205081901290595057579
:1004A000019102950175039101C00660FF0961A1E8
:1004B000010962150026FF00952075088102096375
:1004C000150026FF00952075089102C00501090658
:1004D000A101050719E029E7150025019508750117
:1004E00081029501750881010507190029FF150092
:1004F00026FF0095067508810005081901290515D4
:10050000002501950575019102950175039101C0C2
:1005100009025B00030100A0FA09040000010301C5
:10052000010009211101000122440007058103088F
:10053000000109040100020300000009211101006B
:100540000122220007058203200001070503032082
:10055000000109040200010300000009211101004B
:100560000122B600070584032000011201000200E9
:1005700000000832FC87020100010203011C03761F
:1005800000690061006C003A0066003600340063C8
:1005900000320062003300630000000C0353006F60
:1005A0000066006C00650000001A034A006F0073CB
:1005B00000650066004100640061006D0063006931
:1005C000006B0000000403090407087F0807003ED1
:1005D0005B4F5B3E003E6B4F6B3E001C3E7C3E1C07
:1005E00000183C7E3C18001C577D571C001C5E7F89
:1005F0005E1C0000183C180000FFE7C3E7FF000086
:100600001824180000FFE7DBE7FF0030483A060E29
:1006100000262979292600407F05050700407F052F
:10062000253F005A3CE73C5A007F3E1C1C0800084E
:100630001C1C3E7F0014227F2214005F5F005F5F5E
:100640000006097F017F00006689956A006060608E
:1006500060600094A2FFA2940008047E04080010C9
:10066000207E20100008082A1C0800081C2A080800
:10067000001E10101010000C1E0C1E0C0030383E16
:10068000383000060E3E0E0600000000000000009C
:10069000005F000000000700070000147F147F14B3
:1006A00000242A7F2A120023130864620036495668
:1006B000205000000807030000001C224100000039
:1006C00041221C00002A1C7F1C2A0008083E080842
:1006D0000000807030000008080808080000006072
:1006E0006000002010080402003E5149453E000011
:1006F000427F4000007249494946002141494D333B
:10070000001814127F10002745454539003C4A491E
:10071000493100412111090700364949493600464F
:100720004949291E00000014000000004034000068
:100730000000081422410014141414140000412273
:100740001408000201590906003E415D594E007C23
:100750001211127C007F49494936003E4141412235
:10076000007F4141413E007F49494941007F0909DD
:100770000901003E41415173007F0808087F0000D5
:10078000417F4100002040413F01007F0814224189
:10079000007F40404040007F021C027F007F040831
:1007A000107F003E4141413E007F09090906003E9D
:1007B0004151215E007F09192946002649494932E5
:1007C0000003017F0103003F4040403F001F2040E5
:1007D000201F003F4038403F0063140814630003AB
:1007E00004780403006159494D4300007F414141B1
:1007F00000020408102000004141417F0004020172
:100800000204004040404040000003070800002070
:1008100054547840007F28444438003844444428E5
:1008200000384444287F0038545454180000087E8F
:1008300009020018A4A49C78007F08040478000032
:10084000447D4000002040403D00007F10284400CF
:100850000000417F4000007C04780478007C08049C
:10086000047800384444443800FC18242418001844
:10087000242418FC007C0804040800485454542420
:100880000004043F4424003C4040207C001C2040E5
:10089000201C003C4030403C004428102844004CC0
:1008A0009090907C004464544C4400000836410011
:1008B000000000770000000041360800000201023D
:1008C0000402003C2623263C0000000000000040FB
:1008D0004040F0F8F8FF38FFF8F83FF8F8FF38FF2D
:1008E000F8F8F040404000000000000080C0C0C0A8
:1008F000800000C0C08000000080C0C000C0C000F8
:100900000080C0C00000000000C0C0C0C0C000C067
:10091000C000000000000000000000000000000017
:1009200000000000000000000000000000000000C7
:1009300000000000000000000000000000000000B7
:100940000000000000000000C0F0F8FC3E1E0601A0
:100950000000007F4141417F007F4141417F000015
:1009600080C0E07E5B4F5BFEC00000C000DCD7DED5
:10097000DEDED7DC00C00000000000000000000048
:10098000000000000000000000000000000000491E
:100990004949FFFFFFFFE0DFBFBF00BFBFDFE0FF50
:1009A000FFFFFF49494900000000001F3F6060E071
:1009B000BF1F007F7F071E381E077F7F007F7F0ECF
:1009C0001F3B716000000000007F7F0C0C0C007E5C
:1009D0007E007F7E0303007F7E03037E7E03037F12
:1009E0007E000F3E703C063C703E0F00327B494952
:1009F0003F7E007F7E0303001E3F69696F26000073
:100A00000000000000000000030F1F3F3C787060F2
:100A10000000007F4141417F007F4141417F003024
:100A20007B7F7830202030787F3B0003000F7F0FE2
:100A30000F0F7F0F00030000000000000000000007
:100A400000000000000000000000000000000001A5
:100A50000101070F0F7F0F7F0F0F7E0F0F7F0F7F9B
:100A60000F0F07010101000000000000000000005E
:100A70000101000000000000000000000000000074
:100A80000000000000000000000000000000000066
:100A90000000000000000000000000000000000056
:100AA0000000000000000000000000000000000046
:100AB0000000000000000000000000000000000036
:100AC0000000000000000000000000000000000026
:100AD0000000000000000000000000000000000016
:100AE0000000000000000000000000000000000006
:100AF00000000000000000000000000000000000F6
:100B000000000000000000000000AF00AE35001E35
:100B1000001F00200021002200290014001A0008F4
:100B200000150017002B0004001600070009000A3A
:100B300000E1001D001B00060019000500E300E2B3
:100B400000E00022522800A80035002700260025DA
:100B500000240023002A00130012000C0018001CBF
:100B600000340033000F000E000D000B00E50038CC
:100B7000003700360010001100E700E600E4002313
:100B8000522C00000035001E001F00200021002212
:100B900000290014001A00090013000A002B0004A9
:100BA000001500160017000700E1001D001B0006DD
:100BB0000019000500E300E200E00001002800A8A1
:100BC000003500270026002500240023002A0033DA
:100BD000001C0018000F000D00340012000C00086B
:100BE0000011000B00E50038003700360010000E41
:100BF00000E700E600E40001002C00000001003ADC
:100C0000003B003C003D003E0035001E001F002060
:100C1000002100220001001E021F022002210222E8
:100C20000201002E002D002E022F023002010001D1
:100C300000010001000100010044004300420041A6
:100C40000040003F00450027002600250024002327
:100C5000003102270226022502240223020100316C
:100C6000003302330030002F0001000100010001B9
:100C7000000100010001000100010001000100016C
:100C8000000100490046006500000000000100E28C
:100C900000E000E1000000390001007A007B007CE8
:100CA000007D0000000100010001000100010001C1
:100CB000000100010001000100010001002A000103
:100CC000000100520001004B002A004C004F00516F
:100CD0000050004E00010000000100000001000073
:100CE00000010001000100010001000100000000FE
:100CF00000000000000000000000000000000000F4
:100D000000000000000000000000000000000000E3
:100D1000007E0F00D4FFFFFFC70000007800000036
:100D200000000000002A2B28000000000000000046
:100D3000000000000000000029000000002C1E340C
:100D400020212224342627252E362D3738271E1F12
:100D5000202122232425263333362E37381F04053D
:100D6000060708090A0B0C0D0E0F101112131415AB
:100D7000161718191A1B1C1D2F3130232D35040589
:100D8000060708090A0B0C0D0E0F1011121314158B
:100D9000161718191A1B1C1D2F3130354C00112441
:100DA0001FBECFEFDAE0DEBFCDBF11E0A0E0B1E0C3
:100DB000E6EDFCE602C005900D92AA3FB107D9F717
:100DC00026E0AAEFB1E001C01D92AC32B207E1F714
:100DD0000E94EE060C9469360C940000ADE3B0E07E
:100DE000E4EFF6E00C94753585B7806885BF85B76C
:100DF000806885BF84B7877F84BF0FB6F894A895B5
:100E000080916000886180936000109260000FBE46
:100E100090E080E80FB6F8948093610090936100B1
:100E20000FBE8EE59DE19093FB018093FA010E9435
:100E30008E290E941D1B0E943C1B8091E200846051
:100E40008093E2007894809169028823A1F0109148
:100E5000E9001F709091EC00892F817090FD80E86F
:100E6000182B1092E9008091E80083FD0E9402187F
:100E70001F701093E90082E084BD93E095BD9AEF66
:100E800097BD80936E001092FC011092FD011092AC
:100E9000FE011092FF010E943B2D811102C00E94B1
:100EA000C22E8091D80080618093D8002AE12A95D3
:100EB000F1F700C08091D900182F117080FD04C097
:100EC0000E941D1B1092690210931E0410931F04B0
:100ED0001093000111110E94FB3388E0E0E0F4E080
:100EE000DF011D928A95E9F78091000191E0892741
:100EF00080931C028091000190931F028091000159
:100F000080910001811106C084EF80934B0185EF31
:100F100080934C0160E080E00E94332F61E080E02C
:100F20000E94332FEFE8F1E03197F1F700C00000A5
:100F300010E080911F02181790F460E0812F0E944A
:100F4000172F082F61E0812F0E94172FE12FF0E06B
:100F5000E35EFD4F880F082B00831F5FEACF80916F
:100F6000000180910001882311F090E001C095E01C
:100F700090930B0285E0891B80930A0205E811E03B
:100F80003AE8E32E31E0F32ED8018D918D018F3FA9
:100F900011F00E94DC1FE016F106B1F70AE811E03B
:100FA00020E9E22E21E0F22EF80181918F018F3F9E
:100FB00011F00E94DC1FE016F106B1F78AE0EBE4C5
:100FC000F2E0DF01282F1D922A95E9F7E0E0F2E038
:100FD000DF011D928A95E9F780E090E00E94CD350F
:100FE000853E9E4F21F40E943B2D811163C065EE2A
:100FF0007EEF80E090E00E94013660E082E090E0C9
:101000000E94E33581E080930C0261E083E090E090
:101010000E94E33560E074E184E090E00E940136D4
:1010200060E086E090E00E94E33560E087E090E0D9
:101030000E94E33540E050E0BA0188E090E00E9471
:10104000F53560E083E290E00E94E33560E08CE0FB
:1010500090E00E94E33560E08DE090E00E94E3358F
:1010600019821A821B821C821D821E821F82188690
:1010700048E050E067E170E0CE0101960E94D33570
:1010800040E050E0BA018FE190E00E94F53580E049
:101090000E941C2D0E94C22E40E050E0BA018FE059
:1010A00090E00E94F53540E050E0BA0183E190E025
:1010B0000E94F53582E090E00E94C53580930D02D4
:1010C00084E090E00E94CD3590932704809326041D
:1010D0000E949C21EFEFF6E721E0E150F040204034
:1010E000E1F700C000000E949C2180914B0280FF2C
:1010F00008C06FEF7FEF80E090E00E9401360E9411
:10110000081D83E090E00E94C5350E94C62683E05A
:101110008093420280E280932B060E948B326BE028
:1011200070E08DE591E00E942529882389F1809166
:10113000420265E070E081FD28C088E591E00E94F0
:101140002529882329F16DE070E086E491E00E9472
:1011500025298823E9F00E944E1DDC01CB01805A2D
:101160009541AF4FBF4F8093D2039093D303A09389
:10117000D403B093D5030E94102981E08093D70354
:101180008093D6031092430203C083E591E0D7CF4A
:1011900080911E04811102C00E94FE3381E091E023
:1011A0009093230480932204BE01655D7F4F79AF45
:1011B00068AF22242394312C80916902853009F094
:1011C00043C010E400E182E1F82E8091690285308D
:1011D00009F036C080916902843029F10E943229D9
:1011E0001092280488E190E00FB6F894A8958093B7
:1011F00060000FBE1093600083B7817F846083BF5F
:1012000083B7816083BF7894889583B78E7F83BFCF
:101210000FB6F894A8958091600088618093600073
:10122000109260000FBE0E949C21EBE4F2E08191DD
:101230008111FCC6A5E5B2E0AE17BF07C1F7C5CF67
:101240000E948C270E94062D0E949C211EE0E12E08
:1012500012E0F12EEBE4F2E0FBAFEAAFDF01F701C1
:1012600091918D91892722E0E831F20719F08823C6
:10127000B9F306C0811104C00E94C926D12C3CC01C
:1012800080901E04BBE4CB2EB2E0DB2E10E077246E
:101290007394D6019D906D01F701A080A92411F1EE
:1012A00000E0BB24B3948A2D8B21B1F08820A1F0FB
:1012B0000AAB1BAB0E94222C9DAB8CAB7EAA91E0AB
:1012C000892D8B2109F490E09FAB4AA95BA96CA9F9
:1012D0007DA98EA90E9496160F5FBB0C063019F7E8
:1012E000D7019C921F5FBFEFEB1AFB0A1A3089F6F9
:1012F0000E94F31FDD24D39480911E04882309F4F7
:101300003FC080911C0490911D04892BA9F180910C
:101310001802909119020E943F1D8C0187E0E8ADF0
:10132000F9AD11928A95E9F7BE01655D7F4F809115
:101330001C0490911D040E94722980179107C0F42B
:1013400080911C0490911D0499278830910540F4E8
:10135000A4E0880F991FAA95E1F7865B9C4F02C015
:1013600080E090E0DC0115962C9122FF0E94732D05
:1013700080911E04882321F00E94A629C82E01C056
:10138000C12C80912002882351F01092200280917C
:101390000204809303048091000480930104E12CF3
:1013A00080911F02E81608F042C061E08E2D0E9475
:1013B000172F182F60E08E2D0E94172FE12FEE0FB0
:1013C0008E2B0E2D10E0D801A35EBD4FEC912E2F79
:1013D000237030E0482F50E02417350731F1EE0F2D
:1013E000EE0FE82BEC9380911C028E0DEF70F0E075
:1013F000E057FE4F065E1D4FF080F8019081F90E18
:10140000F082F1E0FF1514F460E004C02FEFF21653
:101410001CF461E00E94542F8F2DFF0C990B62E0A9
:1014200070E00E942B36D8018C93E394B9CF809161
:101430001E04882319F00E94A629C82ACC2021F076
:101440000E94F31FDD24D3948091D703882309F4ED
:1014500054C180914402909145020E943F1DC29761
:1014600008F440C00E94222C9093450280934402CD
:1014700080E00E9450310E944C290E94102982E095
:101480000E94503185E591E00E94373183E00E944F
:101490005031809121020E945A10813059F038F069
:1014A000823059F0833061F48EE691E00BC08BE519
:1014B00091E008C081E691E005C088E691E002C0B5
:1014C00084E791E00E94373186E00E9450318AE73C
:1014D00091E00E94373187E00E94503180E891E02E
:1014E0000E9437318091CA039091CB03892B31F44C
:1014F0008091D603882309F400C1E8C08091D70306
:101500008823B1F3809143028111F2CF0E944C29CC
:101510002091CA033091CB032115310549F380E0B6
:10152000682E712C7101082E02C0EE0CFF1C0A946B
:10153000E2F7A70142235323452B11F48F5FF0CF2D
:10154000909142029301F5E0220F331FFA95E1F7E3
:1015500090FF13C0E5E036952795EA95E1F7220F55
:10156000220F220F20930D0110921001295F20936A
:101570000E0183E08093110111C0220F232F221F3F
:10158000330B31958295880F807680930D012093DF
:101590001001815E80930E012093110124E630E05A
:1015A00047E050E06BE071E088E70E94C032892B91
:1015B00009F09ECF8091420280FF67C080E2E2E2A4
:1015C000F2E0DF011D928A95E9F735E0660C771CA1
:1015D0003A95E1F7E4EAF1E0FDAFECAF40EA51E023
:1015E00068EA462E61E0562EACADBDAD8D91BDAF23
:1015F000ACAFFA019191AF019301290F311DB901EF
:10160000655D7B4F4B0190E08E5D9D4FFC0107E0D7
:101610009F01281B390BB22C01C0BB0C2A95EAF79D
:10162000B401C12CDB011D91BD011B21202F2C1900
:101630002770A22E022E000C330BB12F01C0BB0F5E
:10164000AA94EAF7AB2E31952195310927703327FB
:1016500001C016952A95EAF7A12A1081A12AA08235
:10166000C39428E0C212DECF015031960F3F81F6BD
:101670006CAD7DAD4616570609F0B6CF04E610E016
:1016800020E230E042E252E00DC0C30125E0880FC5
:10169000991F2A95E1F7AC01455D5B4F04E610E028
:1016A00020E230E060E488E70E945733892B09F09C
:1016B0001FCFE094F0948091CA039091CB03E8226D
:1016C000F922F092CB03E092CA0312CF0E944E1D82
:1016D0000091D2031091D3032091D4033091D5030C
:1016E000DC01CB01801B910BA20BB30B8F3F9F4FF3
:1016F000AF4FBF4710F40E943229D1100E944C29ED
:1017000086E0E1E1F4E08E010F5F1F4FD801019008
:101710000D928A95E1F7B0901204D0901304F090E6
:101720001404E0901504C090160410921304109253
:1017300014041092150410921604D11003C0FF2057
:1017400009F447C080910F04909110040E943F1D3E
:101750009C0190910A04992309F48CC42531310528
:10176000C0F19F3F19F09F5F90930A04DD2061F064
:101770000E94E92D1D1414F491E001C09FEF899F90
:10178000802D112480931304FF2061F00E94E92D25
:101790001F1414F09FEF01C091E0899F802D112448
:1017A0008093140480911304882399F0A09014046A
:1017B000AA2079F00E94092E811101C081E0809356
:1017C00013048A2D0E94092E811101C081E08093AB
:1017D0001404E11003C0CC2009F447C080910D042B
:1017E00090910E040E943F1D9C0190910B0499233F
:1017F00009F445C421353105C0F19F3F19F09F5FC1
:1018000090930B04EE2061F00E94C72D1E1414F477
:1018100091E001C09FEF899F802D112480931504D2
:10182000CC2061F00E94C72D1C1414F09FEF01C062
:1018300091E0899F802D11248093160480911504D6
:10184000882399F0A0901604AA2079F00E94092E0E
:10185000811101C081E0809315048A2D0E94092E18
:10186000811101C081E08093160480911204B812A6
:101870001AC080911304882311F08D1114C0809137
:101880001404882311F0F8120EC0809116048823E6
:1018900011F08C1108C090911504992331F081E06A
:1018A0009E1104C002C081E001C080E080FD15C02F
:1018B0008091130481110FC08091140481110BC019
:1018C00080911504811107C081E090911604911157
:1018D00003C080E001C081E080FD0E949D2DBA829E
:1018E000DB82FC82ED82CE8286E0F801A1E1B4E0E9
:1018F00001900D928A95E1F70E94062D9091460283
:10190000891721F0809346020E944E1D8091690242
:10191000843009F051CC83E08093E9008091E800A5
:1019200082FF4ACC8091E80085FF21C00E946E1C96
:1019300081111BC080E2E82EF12C680109C0809162
:10194000F100D6018D936D01B1E0EB1AF10869F059
:101950008091E80085FDF3CF8091E8008B7780933C
:10196000E8000E946E1C882399F391E001C090E08A
:101970008091E8008B778093E800992309F41CCCD0
:10198000E0905502F09056028981E114F10461F073
:101990008E3F09F044C38A81833008F4BCC185506E
:1019A000833008F03CC3B7C18B3009F49BC110F5FC
:1019B000853009F46DC0B0F48230C1F130F481306B
:1019C00009F02BC31A8289E094C2833009F453C012
:1019D000843009F022C34C816B818A810E94D22E0F
:1019E0009D8346C3873009F418C308F016C30E94CC
:1019F000632E15C3803109F4B6C060F48D3009F44C
:101A000054C008F450C08E3009F453C08F3009F42C
:101A10007BC003C3823109F4ACC008F4A7C0833192
:101A200009F4D1C08E3F09F476C1F7C28A818230B1
:101A300009F417C3833051F0813009F0EEC20E94DF
:101A40004E1D9B838C837D836E83E9C28091080445
:101A500090910904892B09F4E2C2FE013396CE016C
:101A60000D96AAADBBAD2D91BBAFAAAF2193E817E0
:101A7000F907B9F7D4C28A81823009F0CEC26B81EE
:101A80007C818D819E810E9445360E94172DC7C2A0
:101A90002D813E813227232732274C816B818A8119
:101AA0000E943C2EBCC280E162C081E08A8388E84B
:101AB00020C2EA80FB80FE24EF24FE24AC80B12CFF
:101AC000BDE1AB16B10408F0AAC26801C70188588D
:101AD0009D4F9601201B310B2A153B0508F09FC234
:101AE000E8E8EE16E1E0FE0630F40E94C535D601C6
:101AF00014968C9302C0F6011482FFEFEF1AFF0ACE
:101B00002FEFC21AD20AE2CF809108049091090403
:101B1000892B09F484C2EA80FB80FE24EF24FE2492
:101B2000CC80D12C3DE1C316D10408F078C2580115
:101B3000C70188589D4F9501201B310B2C153D0581
:101B400008F06DC268E8E61661E0F60628F4D501F3
:101B500014966C910E94E335BFEFEB1AFB0AEFEF8E
:101B6000AE1ABE0AE5CF0E94172E59C284E08A83BE
:101B700056C2EA80FB80FE24EF24FE24AC80B12C08
:101B8000FDE1AF16B10408F04AC26801C7018896AA
:101B90009601201B310B2A153B0508F040C220EEB0
:101BA000E21621E0F20630F40E94C535D601149603
:101BB0008C9302C0F6011482FFEFEF1AFF0A2FEF99
:101BC000C21AD20AE3CFEA80FB80FE24EF24FE246F
:101BD000AC80B12C3DE1A316B10408F020C237015E
:101BE00068E2660E711C70EEE71671E0F70608F009
:101BF00016C280EE91E08E199F098A159B0508F4A4
:101C00000EC28091080490910904892B11F068019B
:101C100060C0E0FE0FC0C70187960E94C53590E006
:101C2000982F88272D81822B81159C4731F48FEFC7
:101C30008D8303C0C12CD12C03C0CC24C394D12CE0
:101C4000C7018A0D9B1D450180FF1BC0B1E08B1AA7
:101C50009108E5E04E2E512C4C0E5D1E480C591C8F
:101C6000C3018A0D9B1D0E94C535F201208130E021
:101C7000322F2227282B21153C4719F48FEFD20150
:101C80008C93F801EC0DFD1D2FEFCF01801B910B04
:101C90008815990508F0BBCF848190E0982F88279C
:101CA0003581832B81159C4711F42483258332963B
:101CB000ECCFE0EEEE16E1E0FE0628F4D601149635
:101CC0006C910E94E335BFEFEB1AFB0AEFEFCE1ADF
:101CD000DE0AC70188969601201B310B2A153B05A9
:101CE00040F39DC18091080490910904892B09F467
:101CF00096C140E250E0B80182E00E94A11CFFEFD3
:101D000021EE34E0F15020403040E1F700C0000007
:101D10000E94081D84C1EA818E2F90E08E309105CB
:101D200008F07DC1FC01EA5AFF4F0C943F3688E071
:101D3000EDE4F1E0DE01919601900D928A95E1F7D4
:101D400080E2D8011D928A95E9F786E0898388E0D0
:101D5000FE01B196DE01159601900D928A95E1F78C
:101D60005EC18CE8898382E08A831B821C8257C112
:101D70008C8190E0982F88272B81820F911D092E4E
:101D8000000CAA0BBB0B65E0880F991FAA1FBB1F95
:101D90006A95D1F7AC01BD01405E5F4F6F4F7F4F39
:101DA000481759076A077B0708F439C18C38E2E005
:101DB0009E07A105B10508F032C14D38F2E05F077A
:101DC0006105710520F04CE852E060E070E0481BCE
:101DD000590BBC0168597E4FC8010E94AC351FC128
:101DE00040E250E06FEF70E0C8010E9462368091DF
:101DF00008048983EA821B821C8285E08D831E820F
:101E000083E08F83188688E089871A8608C121E0DD
:101E100030E0309356022093550282E390E0909395
:101E20004A02809349020E94222C90934802809398
:101E30004702F5C0EF2809F454C0E8EAF1E06CEA83
:101E400071E02CEA31E0EE24E394F12CDB018D917A
:101E5000BD0190E0855B9D4FDC018C91482F50E0E7
:101E6000C101019002C0880F991F0A94E2F78423F0
:101E7000952341E050E0892B11F440E050E0E4224A
:101E8000F5222E173F0711F78091470290914802E3
:101E90000E943F1D85369105F0F0EF28E1F00E9489
:101EA000222C90934802809347028091490290919E
:101EB0004A02019790934A0280934902892B89F440
:101EC0001092560210925502E1E0F0E0F0930904FE
:101ED000E093080406C082E390E090934A02809366
:101EE0004902809108048983809155028A838091F8
:101EF00049028B8394C010920904109208048FC089
:101F000040E250E06FEF70E0C8010E94623687C087
:101F10008B81813059F018F0823001F180C080E26D
:101F2000D8011D928A95E9F788E078C08C819AE003
:101F3000D92E7E01B1E2EB0EF11CF7012D2D11928D
:101F40002A95E9F7B7010E94272E8983F701DE0160
:101F5000129601900D92DA94E1F761C06C818AE0EB
:101F6000FE013596DE01919601900D928A95E1F77A
:101F700089A19AA181153CE7930741F420910804B7
:101F800030910904232B11F480E090E09AA389A3F7
:101F90008BA19CA181157CE7970741F4209108044F
:101FA00030910904232B11F480E090E09CA38BA3D3
:101FB0008DA19EA18115ACE79A0741F420910804F8
:101FC00030910904232B11F480E090E09EA38DA3AF
:101FD0008FA198A58115BCE79B0741F420910804C7
:101FE00030910904232B11F480E090E098A78FA38F
:101FF000683070F4EAE06E9FB0011124685D7D4F97
:102000004AE050E0CE0181960E94073680E001C090
:102010008FEF89830E948E2902C08FEF898340E26F
:1020200050E0B80182E00E94A11CC6C880916802FD
:10203000882309F4CAC809BDF9BC09B400FEFDCF64
:102040008091D8008F7D8093D8008091E0008260DD
:102050008093E0008091E00081FDFCCF0E948C27FE
:10206000B4C887E290E00E94C5351B821C821D82A5
:102070008E83D5CF2B30310508F075CBAACB2B3012
:10208000310508F0BCCBF1CB0E948C272FEF84E305
:102090009CE0215080409040E1F700C000009AE0B1
:1020A00088E10FB6F894A895809360000FBE9093D6
:1020B0006000FFCF982F92959F7019F0892F24E030
:1020C00001C020E0982F9695969511F02E5F892FEC
:1020D000982F969509F02F5F822F0895A6E0B0E023
:1020E000E4E7F0E10C94843526E0FC01DE01119672
:1020F00001900D922A95E1F7FC01258189819A8151
:10210000222359F0662349F00E94E423182F682FF8
:1021100089819A810E94252603C00E94F125182FEB
:1021200069817A81812F0E9462202696E3E00C94D7
:10213000A0359C013A9521153F4130F5BC01662739
:102140007270AC01442754709C012227387094FFB0
:102150000FC090FF02C080E101C080E0672B09F052
:102160008062452B09F08064232B79F08068089504
:10217000892F8170672B09F08260452B09F08460FC
:10218000232B19F08860089580E00895A4E0B0E062
:10219000ECECF0E10C947635FC012481222309F467
:1021A000C1C57C0161E00E946E108C01F701858140
:1021B000882331F1E0911C04F0911D04309701F166
:1021C0000E171F07E9F0FF27E830F10540F454E04F
:1021D000EE0FFF1F5A95E1F7E65BFC4F02C0E0E00F
:1021E000F0E085818460858311830083CF010E94A4
:1021F000732D10921A0461E0C7010E946E108C01C9
:10220000F7018581882309F4C0C0C8019757803839
:10221000910508F001C1D02EFFE0F01708F49BC231
:102220008FEF93E00E94C535811195C208E712E057
:10223000DD2071F0011524E0120709F48CC2C801F9
:102240000E94C535811101C0DA940F5F1F4FF0CF96
:1022500044E0542EAE014F5F5F4F3A0144244A944C
:10226000F301252D11922A95E9F768013FEFC31A72
:10227000D30AC8010E94C5358983882309F46BC23B
:10228000813009F07EC0580142E0A40EB11CC601A5
:102290000E94C535382E8A83882309F45CC28FEFEB
:1022A000830D833060F4680153E0C50ED11CC50175
:1022B0000E94C5358B83811164C08601D1CF8BEF1D
:1022C000830D833078F5480183E0880E911CC501A9
:1022D0000E94C5358B83811102C06401EECF680175
:1022E00094E0C90ED11CC4010E94C5358C8388239B
:1022F00021F32B813C812130EFEF3E0718F0922F24
:1023000080E001C0C901F6E03F1631F027E0321647
:1023100031F00E94702BD1CF0E94362BCECF0E947D
:10232000A72ACBCF34E0331611F06501C6CFC50123
:102330000E94C535B82E680144E0C40ED11CC80106
:1023400003960E94C535BB2009F405C2882309F411
:1023500002C2282F30E021503109429EA001439E45
:10236000500D11248B2D90E00197840F951F01973C
:1023700008F4A3CFEFE9FFE03197F1F700C00000C8
:10238000F6CFC3010E94623198CF680127E5D21AC7
:102390003FEFC316D10411F008F03EC060E473E0D3
:1023A0008C2D0E94272E892BB9F5C60134E0880FA9
:1023B000991F3A95E1F7FC01E65BFC4F2281213041
:1023C000C9F42091400330914103232B29F120913E
:1023D000420330914303232BF9F0209144033091C1
:1023E0004503232BC9F42091460330914703232B47
:1023F00049F012C0223081F420914403309145030A
:10240000232B51F0FC01E15BFC4F20812E7F2083C8
:10241000865B9C4F0E94732DC80197558F3F910595
:1024200011F008F062C05801BB2448E0A416B104C2
:102430000CF091C1C50124E0880F991F2A95E1F79E
:10244000FC01E65BFC4F6F01F7012581AC01415BAC
:102450005C4F5A01FA01808120FB80F98083F701EB
:102460008581882341F10E94222C90931902809348
:102470001802F60182818F5F828390911A04809105
:102480001B04892B83838091330384834681578186
:1024900066857785C6010E94542DF501808181FFF4
:1024A00003C090E080E002C0902F812F90931C0425
:1024B00080931D041AC0F60144855585668577858D
:1024C000C6010E94542DF501808181FF0EC0C60116
:1024D0000E945A2D80911C0490911D040817190721
:1024E00021F410921D0410921C044801A12CB12C5F
:1024F000F801E851FC47E730F10508F4E7C0F701BF
:102500008581882309F43BC110921904C8019057B2
:10251000839708F00CC184E090E00E94CD35909341
:10252000270480932604F401E150F047E232F105DC
:1025300020F4EC59FF4F0C943F36809126048160C3
:10254000ACC0809127048860B4C08091260482606A
:10255000A4C08091260420C08091260488609DC07C
:10256000809127041EC0809127048260A2C08091C0
:102570002604806192C08091260480628EC0809182
:10258000260480648AC00E948C278091260480687B
:1025900084C080912604886084607FC08091270475
:1025A0008260816086C0809126048E7F76C0809193
:1025B0002704877F7EC0809126048D7F6EC0809126
:1025C000260420C080912604877F67C0809127045D
:1025D0001EC0809127048D7F6CC0809126048F7E61
:1025E0005CC0809126048F7D58C0809126048F7B2B
:1025F00054C00E948C27809126048F774EC0809112
:102600002604877F8B7F49C0809127048D7F8E7F32
:1026100050C08091260482FB222720F991E0922766
:1026200090FB82F990FB83F938C080912704982FA2
:10263000909591708E7F892B90FB81F93AC08091A3
:10264000260486FB222720F991E0922790FB86F949
:1026500024C00E948C278091260487FB222720F922
:1026600091E0922790FB87F918C061E001C060E01B
:102670008EE090E00E94E3351EC08091260484FB2A
:10268000222720F991E0922790FB84F906C08091DF
:102690002604982F909590FB80F9809326040BC018
:1026A0008091270483FB222720F991E0922790FB59
:1026B00083F980932704609126047091270484E0B5
:1026C00090E00E9401360E948C2745C0EA57FF4FD8
:1026D0000C943F3606E221EE41EE6AE17CE705C04C
:1026E00007E225EE45EE6BE17CE7C7010E94792FFA
:1026F00032C006E221EE40EE68E17CE7F6CF07E269
:1027000025EE44EE69E17CE7F0CF06E221EE42EEF1
:102710006CE17CE7EACF07E225EE46EE6DE17CE76F
:10272000E4CF08E221E045EE6EE17CE7DECF063142
:10273000FCE71F0709F09EC280911B048A7A91E092
:1027400009F490E090935702811117C089E20E942A
:10275000852C0E943A2780910803877009F4E2C211
:10276000F7018581882309F4DDC28091270482FF67
:10277000D9C282E00E948C26D5C285E3E8CF06311B
:102780002CE7120709F46CC20737FCE71F0709F4AE
:10279000BAC208372CE7120709F4BBC2F7018581DA
:1027A00000811181882349F0C8010E94E423D82EBA
:1027B000682FC8010E94252604C0C8010E94F12587
:1027C000D82EB8018D2D0E9462200E947F208C019E
:1027D000A82EF701D580C680C2949FE0C9228091BF
:1027E0000803877001F1DD20F1F0812F807F8034B4
:1027F00069F080E2800F8830B0F0812F807E8032D7
:1028000029F4F1E0F01778F4CC2069F080912704E6
:1028100082FF09C082E00E948C26809108038770A5
:10282000BB24B3948111B12C912E92948FE0982205
:10283000892D90E08C30910508F0EEC1FC01E35742
:10284000FF4F0C943F36812F807F1F70882311F03B
:102850001295107FDD20B9F0112309F4C6C180E282
:10286000800F883010F0A11006C090911B04192B26
:1028700010931B0405C090911A04192B10931A048D
:102880000E943A27B2C1802F0E94DF27112309F44A
:10289000C3C1005E812F083070F1AA2061F10E944F
:1028A00058232BC0812F807F1F70803211F012952A
:1028B000107F802FAA2029F021E0A21609F462C01F
:1028C0006DC08091270482FD1BC0DD2069F01123BB
:1028D00039F090911B04192B10931B040E943A2786
:1028E00080E00E94C33098C180E00E94DF2711235E
:1028F00009F492C1812F0E945F230E943A278CC164
:10290000DD2061F1CC2009F44DC031E0C31212C0CA
:10291000809133038123181709F47EC10E94222C71
:10292000909332038093310390913303192B1093CA
:10293000330372C145E0C4126FC1812F0E94D527B5
:10294000812F0E94ED2690910503812F892318176E
:1029500009F462C1192B109305035EC1CC2041F02C
:1029600051E0C51259C180911B04812309F454C15F
:10297000812F0E94CE27812F0E94ED26812F0E9459
:102980006D234AC1DD2029F085E08C1508F444C18F
:1029900009C094E09C1508F43FC10AC0DD2031F065
:1029A000C11023C1812F0E94D52736C1C11021C17A
:1029B000812F0E94CE2730C1812F86958695837006
:1029C00019F0813059F028C1DD2019F0C801937049
:1029D00002C080E090E00E94E12C24C1DD2019F0CB
:1029E000C801937002C080E090E00E94BC2C1AC124
:1029F0006D2D802F0E94EB2F15C1812F8370A9F5BB
:102A0000D1100EC1402F429546954770440F440F98
:102A1000802F8F7090E09C01042E01C0220F0A9439
:102A2000EAF704FF08C08FE090E001C0880F4A95E4
:102A3000EAF7809501C080E0169516951370123064
:102A400069F088F490910C02113019F0822B8923DF
:102A500002C0922B892B0E94C626E2C0822B909145
:102A60000C028927F8CF822BF6CFDD2019F0812FB9
:102A7000817001C08695882309F4D2C0402F429509
:102A800046954770440F440F802F8F7090E09C0153
:102A9000042E01C0220F0A94EAF704FF08C08FE059
:102AA00090E001C0880F4A95EAF7809501C080E068
:102AB000169516951370123059F078F49091210202
:102AC000113019F0822B892309C0922B892B06C063
:102AD000822B90912102892701C0822B0E945A26C5
:102AE0009FC01F70DD2039F0812F0E94BA26802FF1
:102AF0000E94D52795C0802F0E94CE27812F0E944B
:102B00007F268EC0802F92EFA91691F19A1538F08A
:102B1000E0EFAE1659F0F1EFAF1619F161C023EFF7
:102B2000A21669F134EFA316C1F05AC0DD2081F07E
:102B300044E04C1508F470C01F7181E090E0012E54
:102B400001C0880F0A94EAF790912102892722C0D8
:102B500055E05C1508F460C0EFCF8091270482FD3A
:102B60001CC0DD2039F0812F8F710E94BA2654C01D
:102B7000DD20C9F3812F8F710E947F264DC0DD209B
:102B800041F01F7181E0012E01C0880F0A94EAF71D
:102B900001C080E00E945A263FC0DD2091F0809164
:102BA00008038770843039F40E946623812F8F7167
:102BB0000E947F2653C084E08C1508F44FC063E068
:102BC00006C094E09C1540F40E94662364E0812FC7
:102BD0008F710E94342842C081E00E948C263EC042
:102BE000DD2029F0CC2009F4BECF802F7ACECC2076
:102BF00009F2893341F4EFEFF7EE23E0E150F040C2
:102C00002040E1F704C08FE39CE90197F1F700C091
:102C10000000802F0E94DF2788EF890D843010F498
:102C20000E94062DBB20A9F08091080380FD11C0F1
:102C3000F70115828695869586950E94BA26C7016A
:102C40000E94C610809108038695869586950E94FD
:102C50007F2660E0C7010E946E1064C0B12CE0CFF7
:102C600080915702811104C089E20E94572C71CDD6
:102C700085E3FBCF07373CE7130709F442C0083769
:102C80004CE7140709F441C00330FCE71F0729F1A2
:102C900040F401153CE7130791F001301C4719F18E
:102CA0007DCD0B355CE7150741F10C358CE7180736
:102CB000E1F00A351C4709F071CD81E01FC00E9488
:102CC0008C27EFEFF4E32CE0E150F0402040E1F7F7
:102CD00000C000000E94081D3ECD6FEF7FEF80E036
:102CE00090E00E9401360E9444108091270482FBEC
:102CF000882780F991E0892701C080E00E94A326FF
:102D00004DCD81E003C081E005C082E00E94BA267B
:102D100003C082E00E947F2643E062E081E00E94DF
:102D20005D2619CD2496E1E10C949235ABE1B0E03B
:102D3000ECE9F6E10C9483354E8B5F8B688F798FCD
:102D40008A8F9B8F911110921A048E01015F1F4F81
:102D500087E0D8011D928A95E9F786E0FE01769614
:102D6000D80101900D928A95E1F78091270482FFA6
:102D700026C00E94222C2091060330910703821B5B
:102D8000930B8838934140F08091080382FB992788
:102D900090F981E0892701C080E080FF03C082E0D4
:102DA0000E948C260E94222C209131033091320304
:102DB000821B930B8838934110F00E944D238B891E
:102DC000882321F061E0C8010E946E1087E0FE01B7
:102DD0003F96DE01189601900D928A95E1F7CE019B
:102DE00008960E94432481113BC087E0FE0138967B
:102DF000DE01119601900D928A95E1F76C856623AC
:102E000079F12091CB0230E0C901019687709927B2
:102E10004091040350E084179507A1F06D8397E07B
:102E2000929FD001939FB00D1124A453BD4FFE017A
:102E3000319601900D929A95E1F78093CB020E9412
:102E400077230EC00E948C271092CB0210920403AD
:102E5000E4ECF2E087E0DF011D928A95E9F719C002
:102E600017E0809104039091CB02891791F0189F8D
:102E7000C001112484539D4F0E944324882349F0AC
:102E80008091040390E00196877099278093040352
:102E9000E8CF6B96E4E00C949F3580916B0287FF3E
:102EA00011C08091E80082FD05C080916902811106
:102EB000F8CF11C08091E8008B770BC08091690238
:102EC000882349F08091E80080FFF8CF8091E800E6
:102ED0008E778093E8000895982F973068F5909347
:102EE000E900981739F07091EC002091ED005091B5
:102EF000F00003C0242F762F50E021FD02C09F5F19
:102F0000ECCF3091EB003E7F3093EB003091ED0041
:102F10003D7F3093ED003091EB0031603093EB005A
:102F20007093EC002093ED005093F0002091EE00A0
:102F300027FDE5CF80E008958F708093E90081E060
:102F4000089520917102309172022617370748F0D8
:102F50006115710539F42091E8002E772093E8007F
:102F600001C0B901FC0120E06115710579F1809182
:102F700069028823F1F18530F1F18091E80083FD49
:102F80003CC08091E80082FD2EC08091E80080FF67
:102F9000EBCF2091F3008091F20090E0922B61152D
:102FA000710551F08830910538F421912093F1009A
:102FB000615071090196F3CF21E0089709F020E0F4
:102FC0008091E8008E778093E800CECF2111CFCF9B
:102FD0000AC080916902882361F0853061F0809198
:102FE000E80083FD0AC08091E80082FFF2CF80E014
:102FF000089582E0089583E0089581E00895809126
:103000005E020895AAE2B0E0E8E0F8E10C948435AD
:10301000EBE6F2E083E792E02091F10021938E1736
:103020009F07D1F780916C02833009F463C030F4BC
:10303000813071F0823009F49DC0B4C08A3009F447
:1030400089C08B3009F46EC0893009F0ABC020C054
:1030500080916B02813A09F0A5C08091E800877FDA
:103060008093E80080916F0290917002892B21F487
:1030700068E08FE592E003C060E080E090E070E0FF
:103080000E94A1178091E8008B778093E8008AC0A6
:1030900080916B02813209F085C080916F0290911E
:1030A0007002009719F0029709F07CC08091E80047
:1030B000877F8093E8008091E80082FD05C08091C1
:1030C00069028111F8CF6EC02091F3008091F20067
:1030D00090E0922B029731F48091F100813011F051
:1030E000863021F48091F10080935E028091E800A7
:1030F0008B7754C080916B02813A09F053C0809164
:103100006F0290917002892B09F04CC08091E80009
:10311000877F8093E8008091E80080FFFCCF80915A
:10312000120137C080916B028132E1F580916F020C
:1031300090917002892BB1F58091E800877F809390
:10314000E8000E944D1780916D02809312010E9449
:103150008C2728C080916B02813221F58091E80094
:10316000877F8093E8000E944D1780916E028093C4
:103170005D0218C080916B02813AA1F48091E80051
:10318000877F8093E8008091E80080FFFCCF8091EA
:103190005D028093F1008091E8008E778093E800D3
:1031A0000E944D178091E80083FFEBC180916B0274
:1031B00090916C02492F50E04A30510508F0E1C16E
:1031C000FA01E756FF4F0C943F36803821F08238E1
:1031D00009F0D7C108C080916702909168029923D5
:1031E00089F082600FC080916F028F70873008F085
:1031F000C8C18093E9008091EB0085FB882780F9A6
:103200001092E9009091E800977F9093E8008093F6
:10321000F1001092F1007CC1282F2D7F09F0B1C17F
:10322000882319F0823061F0ACC180916D02813049
:1032300009F0A7C1933009F080E0809368022EC0A6
:1032400080916D0281112AC080916F028F702FEFE3
:10325000280F263008F095C18093E9002091EB00FB
:1032600020FF1CC0933021F48091EB00806214C0D9
:103270009091EB0090619093EB0021E030E0A90188
:1032800002C0440F551F8A95E2F74093EA0010925E
:10329000EA008091EB0088608093EB001092E900D7
:1032A0008091E800877F8093E8000E944D1769C1F4
:1032B000811167C110916D021F778091E3008078C2
:1032C000812B8093E3008091E800877F8093E80062
:1032D0000E944D178091E80080FFFCCF8091E300B1
:1032E00080688093E300111102C082E001C083E096
:1032F0008093690246C18058823008F042C1209113
:103300006D0230916E022C3D53E0350779F583E074
:103310008A838AE289834FB7F894DE01139620E00E
:103320003EE051E2E32FF0E050935700E49120FF9C
:1033300003C0E295EF703F5FEF708E2F90E0EA30B0
:1033400010F0C79601C0C0968D939D932F5F2431D6
:1033500049F74FBF8091E800877F8093E8006AE2D9
:1033600070E0CE0101960E94A117C0C080916F024B
:1033700090917002432F552743305105B1F068F406
:103380004130510509F40CC14230510509F0F9C032
:103390008BE590E0E0E1F5E057C04132510589F15D
:1033A0004232510509F43CC0ECC0C9019927813073
:1033B0009105B9F070F082309105D9F0039709F0CA
:1033C000E0C0EDE7F5E0E4918E2F90E0EDE7F5E069
:1033D00038C0E5ECF5E0E4918E2F90E0E5ECF5E007
:1033E00030C0E9EAF5E0E4918E2F90E0E9EAF5E0FB
:1033F00028C0EBE9F5E0E4918E2F90E0EBE9F5E0F1
:1034000020C08330910508F0BCC0880F991FFC01D3
:10341000E754FE4F0190F081E02D89E090E014C068
:103420008330910508F0ADC0FC01EE0FFF1FED5495
:10343000FE4F0190F081E02DDC01A055BE4F8C9134
:1034400090E0009709F49DC02091E800277F209329
:10345000E80020917102309172022817390708F4B0
:10346000C90140E0009789F120916902222309F403
:103470003DC02530D9F12091E80023FD37C02091CF
:10348000E80022FD2FC02091E80020FFEBCF409103
:10349000F3002091F20030E0342B009759F02830EF
:1034A000310540F444914093F100319601972F5F2C
:1034B0003F4FF3CF41E02830310509F040E0209143
:1034C000E8002E772093E800CDCF4111CDCF0AC080
:1034D00080916902882351F0853041F08091E800A5
:1034E00083FD04C08091E80082FFF2CF8091E80064
:1034F0008B778093E80045C0803809F042C0809106
:10350000E800877F8093E80080916A028093F10051
:103510008091E8008E77C7CE811133C080916D0213
:1035200090916E029927029764F58091E800877F59
:103530008093E80010916D0210936A020E944D176B
:10354000111106C08091E30087FD02C081E001C037
:1035500084E08093690242E061EC81E00E946C1794
:1035600042E261EC84E00E946C1742E261EC82E08E
:103570000E946C1742E260EC83E00E946C1780911D
:1035800069028091E80083FF10C08091E800877F86
:103590008093E8008091EB0080628093EB0005C08F
:1035A00082E190E0EBE6F5E04FCFAA96E3E00C94E1
:1035B000A0351F920F920FB60F9211242F933F93B5
:1035C0004F935F936F937F938F939F93AF93BF932B
:1035D000CF93DF93EF93FF93C091E900CF70809179
:1035E000EC00D82FD17080FDD0E81092E9008091D6
:1035F000F000877F8093F00078940E940218109268
:10360000E9008091F00088608093F000CD2BCF70AE
:10361000C093E900FF91EF91DF91CF91BF91AF91FE
:103620009F918F917F916F915F914F913F912F91DA
:103630000F900FBE0F901F901895E8EDF0E080817D
:103640008E7F80831092E2001092DA001092E100E7
:10365000A0EEB0E08C9181608C9380818F77808325
:1036600019BCA7EDB0E08C918E7F8C9380818F7E0A
:10367000808310925C020895A0E0B0E0E2E4FBE1F8
:103680000C947F35C8EDD0E088818F7E8883E7ED8C
:10369000F0E080818160808384E082BF81E080935C
:1036A0005C0288818E7F888302EE10E0F801108230
:1036B0001092DA0081EEC82ED12CF601108288819A
:1036C0008F77888388818068888388818F7D8883CD
:1036D00019BC1092690210926A021092680210924C
:1036E000670290EEE92EF12CF70180818B7F8083B9
:1036F00088818160888342E060E080E00E946C17EE
:10370000F60180818E7F8083F801808181608083D3
:10371000808188608083F70180818E7F80838881AB
:1037200080618883CDB7DEB7E8E00C949B351F92AB
:103730000F920FB60F9211242F933F934F935F93E5
:103740006F937F938F939F93AF93BF93EF93FF9369
:103750008091E10082FF09C08091E20082FF05C0F4
:103760008091E1008B7F8093E1008091DA0080FFFF
:103770002AC08091D80080FF26C08091DA008E7F19
:103780008093DA008091D90080FF18C080E189BD64
:1037900082E189BD09B400FEFDCF81E0809369021A
:1037A00080915C0281110FC00E941D1B0E943C1B76
:1037B0008091E20084608093E20005C019BC109201
:1037C000690210925C028091E10080FF17C0809135
:1037D000E20080FF13C08091E2008E7F8093E200C0
:1037E0008091E20080618093E2008091D800806245
:1037F0008093D80019BC85E0809369028091E10034
:1038000084FF30C08091E20084FF2CC080E189BD3C
:1038100082E189BD09B400FEFDCF8091D8008F7D83
:103820008093D8008091E1008F7E8093E1008091A9
:10383000E2008F7E8093E2008091E20081608093BD
:10384000E20080916A02882311F084E007C0809131
:10385000E30087FD02C081E001C083E0809369023C
:10386000809169028091E10083FF27C08091E2008E
:1038700083FF23C08091E100877F8093E10082E095
:103880008093690210926A028091E1008E7F80939A
:10389000E1008091E2008E7F8093E2008091E2005F
:1038A00080618093E20042E060E080E00E946C175B
:1038B0008091F00088608093F000FF91EF91BF91BC
:1038C000AF919F918F917F916F915F914F913F91B8
:1038D0002F910F900FBE0F901F9018952091E4002C
:1038E0003091E50095E64091EC00842F817040FF17
:1038F00023C08091E80080FD1DC08091690288236B
:1039000099F0853099F08091EB0085FD11C04091D0
:10391000E4005091E5002417350729F3915011F088
:103920009A01E1CF84E0089582E0089583E008954C
:1039300081E0089580E008954091E80042FFDDCFE6
:1039400008950F931F93CF93DF938B01EA0190911A
:103950006902943079F58F708093E9008FEF909130
:10396000E800815095FD06C095ED9A95F1F70000AD
:103970008111F5CF8091E80085FF1CC00E946E1C6C
:10398000882361F08091E8008E778093E80012C070
:10399000F80181918F018093F1002197209791F395
:1039A0008091E80085FDF4CF8091E8008E778093C8
:1039B000E800E4CFDF91CF911F910F91089543E08C
:1039C00050E0BC0184E00E94A11C089546E050E054
:1039D000BC0184E00E94A11C089540E250E0BC01BB
:1039E00084E00E94A11C0895CF93DF93EC0148E08E
:1039F00050E0BC0181E00E94A11C88E0FE01AFE51F
:103A0000B2E001900D928A95E1F7DF91CF91089590
:103A100087E797E790930108809300089AE088E190
:103A20000FB6F894A895809360000FBE9093600045
:103A3000FFCF78941F920F920FB60F9211248F939D
:103A40009F93AF93BF938091580290915902A09198
:103A50005A02B0915B020196A11DB11D80935802DC
:103A600090935902A0935A02B0935B02BF91AF9119
:103A70009F918F910F900FBE0F901F9018959C01F2
:103A80004FB7F8948091580290915902A0915A0230
:103A9000B0915B024FBF821B930B08952FB7F89430
:103AA000609158027091590280915A0290915B0284
:103AB0002FBF089581E080932002089580E008954B
:103AC0009091260492FF10C041E0282F24712430E9
:103AD00009F040E031E0282F2871283009F030E06B
:103AE000431711F02CE0822793FF10C041E0282FEC
:103AF0002471243109F040E031E0282F2871283169
:103B000009F030E0431711F02CE0822730912704B0
:103B100030FF10C051E0282F2171213009F050E012
:103B200041E0282F2871283009F040E0541711F0A7
:103B300029E0822731FF10C041E0282F2171213177
:103B400009F040E031E0282F2871283109F030E0F9
:103B5000431711F029E0822794FD877E089582386B
:103B6000910569F1B0F48133910509F475C048F409
:103B70008932910509F467C08A32910509F471C050
:103B800008958533910509F459C089339105B9F039
:103B90000895833E910589F138F4803E9105D1F076
:103BA000823E910529F10895863E9105C9F1873E2F
:103BB0009105D9F1843E910509F06CC027C0209190
:103BC000260420FD57C021FD55C02091270423FD68
:103BD0005BC008958091260480FD48C08091270431
:103BE00080FF48C08091260484FD46C083EE51C00A
:103BF0008091260482FF3CC0F5CF8091260482FD8F
:103C000037C08091270480FD35C0ECCF8091270418
:103C100081FF36C08091260484FD2EC087EE39C016
:103C20008091260483FF2AC0F5CF8091260483FD6E
:103C300025C08091270481FD23C0ECCF809126040C
:103C400085FD22C01FC08091260485FD1BC0809188
:103C5000270483FF19C00AC08091260486FD16C080
:103C600017C08091260486FD13C010C089E311C0DF
:103C700082EE0FC080EE0DC080E00BC086EE09C062
:103C800084EE07C085E305C089E203C08AE201C073
:103C900081E390E00895A0E0B0E0E1E5FEE10C945E
:103CA0007D357C015B016A018091AB028A3018F09E
:103CB00001E010E002C00AE010E0C1E0D0E0B50190
:103CC000C701F6010995811115C021960C171D0732
:103CD00094F0CC9F9001CD9F300D300D112480E0E9
:103CE00090E045E34A95F1F70000019682179307AB
:103CF000C1F7E5CF81E0CDB7DEB7EAE00C949935A6
:103D00000F931F93CF93DF93EC0145E050E065E9FB
:103D100072E00E944C360091860210918702209139
:103D2000880230918902EFB7F8944091580250917F
:103D3000590260915A0270915B02EFBF401B510B18
:103D4000620B730B443651056105710510F4892B24
:103D500009F1809124019091250181579D4F409157
:103D6000230150E04630510510F045E050E0BE011F
:103D70000E94593682E090E00E94E634882359F090
:103D80000E944E1D60938602709387028093880282
:103D90009093890281E0DF91CF911F910F91089557
:103DA000A1E0B0E0E6EDFEE10C947935C62E4A01C3
:103DB0005901682E880F7708C3010E94E6348823D2
:103DC00009F473C0C30123E0880F991F2A95E1F716
:103DD000FC01ED5EFE4F438150E04115510511F0AD
:103DE00041E050E0FC01ED5EFE4F6481758161575A
:103DF0007D4FCE0101960E945936F40140815181D8
:103E0000628173812FB7F894809158029091590282
:103E1000A0915A02B0915B022FBF841B950BA60B99
:103E2000B70B84369105A105B10538F4B701C80177
:103E30000E94002F99818917D1F10C2C000CDD080C
:103E4000C6010E94E634782E8823E1F0E114F104E3
:103E5000C9F0960183E0220F331F8A95E1F7F9013B
:103E6000ED5EFE4F438150E0E416F50608F4A7012D
:103E7000F901ED5EFE4F6481758161577D4FC5018B
:103E80000E945936B701C8010E94002F91E0298194
:103E9000281390E0D92ED72089F00E944E1DF401FE
:103EA000608371838283938309C0D12C02C0DD2497
:103EB000D394A701B801C5010E9459368D2D2196D2
:103EC000EEE00C949535A8E0B0E0E9E6FFE10C9453
:103ED000813588E0E82EF12C0BE912E09E012F5F7E
:103EE0003F4F4BE852E064E083E00E94D01E182F61
:103EF000882389F190919A0280918A02981759F14A
:103F000020E090919E0280919D028917C9F0E92FCF
:103F1000F0E0ED56FD4F848587FB662760F99F5FD3
:103F2000937090939E0290919C029F5F90939C024D
:103F30008F770E94542F21E08111E3CF10E002C05F
:103F4000222329F085E090E00E94E6341823809136
:103F50009A0280938A02812F2896E6E00C949D3580
:103F6000A5E0B0E0E6EBFFE10C947F356B0185E066
:103F7000E82EF12C00E912E09E012F5F3F4F42E84E
:103F800052E061E080E00E94D01E882349F095E075
:103F9000FE013196ADE7B2E001900D929A95E1F7FE
:103FA00095E0EDE7F2E0D60101900D929A95E1F7E8
:103FB0002596E8E00C949B35F894E82FE295EF7095
:103FC000F0E031A1282F2F7081E090E001C0880F30
:103FD0002A95EAF7982F9095932391A392A1892B84
:103FE00082A3789408950F931F9380911E048823D1
:103FF00019F00E944E1D0EC00E944E1D0091FC0142
:104000001091FD012091FE013091FF01600F711FA1
:10401000821F931F1F910F910895A4E0B0E0E3E188
:10402000F0E20C9485354091A7025091A80260916E
:10403000A9027091AA022FB7F8948091580290912A
:104040005902A0915A02B0915B022FBF841B950BBD
:10405000A60BB70B84369105A105B10570F10E943E
:10406000F31FDC01CB010296A11DB11D89839A8348
:10407000AB83BC83809144019091450181579D4F52
:104080004091430150E04530510510F044E050E0CC
:10409000BE016F5F7F4F0E94593686E090E00E941C
:1040A000E634882359F00E944E1D6093A702709356
:1040B000A8028093A9029093AA0281E02496E2E0EC
:1040C0000C94A1352091550230915602232BA1F476
:1040D000703F39F4603F81F480913603909137034B
:1040E00008957A3048F4663038F4843028F4462F46
:1040F000672F0E94D22E089580E090E008951F93CC
:10410000CF93DF930E94AF1DEC01C11580E5D80766
:10411000E8F5C11590E4D90708F0A8C0C03ED10564
:1041200030F5CD3CD10508F094C0C83AD10578F4FB
:10413000C53AD10508F083C0C130D10509F47CC06F
:1041400008F4F2C0C430D10508F0F1C0EDC0C33CA2
:10415000D10508F0E9C0C85AD0E0CC0FDD1FCE531E
:10416000DE4F0990D881C02DCE019464E1C0C11505
:1041700080E2D80708F0CBC0C11591E0D90708F05C
:104180006BC0C83ED10508F4D2C0CEC0C03682E5AF
:10419000D80728F5C03492E5D90708F079C0C032B5
:1041A00082E5D80708F06CC0C11592E5D90708F47C
:1041B00081C04C2F4695469580E2489FA00111246E
:1041C000C37021E030E0C90102C0880F991FCA9571
:1041D000E2F7EA01C82BD92BCE019D68A9C0C03AED
:1041E00082E5D807B8F48C2F8F71C03892E5D907D3
:1041F00008F07BC08695869590E2899F90011124F6
:10420000C37081E090E002C0880F991FCA95E2F761
:104210009A6868C0C03C82E5D80708F46DC0C03E0B
:1042200092E5D90708F080C0CF71DD27DC2FCC27BD
:10423000CE01806F906A7CC081E090E079C0C55A61
:10424000D0E0C154DE4F8881C82FD0E0CE01906409
:104250006FC0CE0190656CC08D2F0E94601D182F1D
:10426000CE0199270E94AF1D1F715CC0CE01992716
:104270000E94AF1DCC27DF70D06A8C2B9D2B58C0BD
:10428000CF71D0E0DC2FCC27CE01816F906A50C077
:104290008C2F8F718695869590E2899F90011124CD
:1042A000C37081E090E002C0880F991FCA95E2F7C1
:1042B0009C6818C08C2F8F710E94601D95E0D69568
:1042C000C7959A95E1F7CF70D0E0DC2FCC27282F47
:1042D00030E084FF05C084E0220F331F8A95E1F7A8
:1042E000D069CE01822B932B23C090E0D82FCC270E
:1042F000CE01846F906A1CC08C2F8F710E94601D4C
:104300008F7190E0D82FCC27CE01906211C08D2FF5
:104310008F710E94601D182FCE0199270E94AF1D3A
:104320001F719062912B04C080E090E001C0CE012B
:10433000DF91CF911F910895AFE0B0E0E2EAF1E2A2
:104340000C947835AE014F5F5F4F7A018AE0DA0155
:104350001D928A95E9F705E811E06A018AE8682E5E
:1043600081E0782EAA24A394B12C20E9822E21E0AA
:10437000922EF80180818F3F09F440C0F894E82F15
:10438000E295EF70F0E021A18F70A50102C0440F0B
:10439000551F8A95E2F7CA01922F982B91A392A1FB
:1043A0008095892382A3789400C0EAE8F1E0512C3B
:1043B00031E021912F3F89F0A22FA295AF70B0E09C
:1043C00090968C9190E02F7002C0959587952A95D4
:1043D000E2F780FD02C0832F01C080E0582A330F2E
:1043E0008E169F0631F7D8018C918F3F11F00E94F5
:1043F000DC1FB0EABA95F1F7F60150820F5F1F4F4C
:10440000FFEFCF1ADF0A6016710609F0B2CF4AE05B
:1044100050E0B70180E092E00E944C36892B99F081
:104420008AE0F701A0E0B2E001900D928A95E1F7F1
:1044300081E0809375020E94222C909374028093F5
:104440007302D12C27C0809175028823D1F300918B
:104450000B0280917302909174020E943F1D059798
:1044600080F310E0055B1D4F45E050E060E072E036
:10447000C8010E944C36892B09F4EDC085E0E0E0CC
:10448000F2E0D80101900D928A95E1F7DD24D394F2
:104490001092750280911E04E0910B02882309F4AA
:1044A00079C07E012BE0E20EF11C85E0D7011D9260
:1044B0008A95E9F70E2F10E0055B1D4F8091AB0246
:1044C0008A3048F440EB5FE1B701C8010E944B1EFF
:1044D0008823A9F10AC080917602909177020E9408
:1044E0003F1D843F914070F73BC040E85EE1B7015B
:1044F000C8010E944B1E882311F143E65FE1B7011A
:10450000C8010E944B1E8823D1F04DE050E2B70154
:10451000C8010E944B1E882391F01092AB0280913B
:104520000A0290E045E050E0B701855B9D4F0E9494
:104530004C3621E020937C02892BF1F486C08091D7
:10454000AB028F3F19F08F5F8093AB028091AB027B
:104550008A3028F30E94222C90937702809376026F
:1045600080917C02882309F470C085E0F7011192E4
:104570008A95E9F710927C02A0910A02B0E0A55B4F
:10458000BD4F85E0FE013B9601900D928A95E1F7C3
:1045900081E05CC000910A0210E0055B1D4FF0E075
:1045A000E55BFD4F85E0A0E9B2E001900D928A95B0
:1045B000E1F765E070E080E992E00E94002F8093CF
:1045C0008F0285E0E5E9F2E0D80101900D928A952D
:1045D000E1F788E0E0E0F4E0ABE9B2E001900D92B1
:1045E0008A95E1F768E070E08BE992E00E94002F85
:1045F00080939A028090A3029090A402A090A502BA
:10460000B090A6028091780290917902A0917A02EE
:10461000B0917B0288169906AA06BB06B1F080927B
:10462000780290927902A0927A02B0927B020E9464
:104630004E1D861A970AA80AB90A8092FC01909228
:10464000FD01A092FE01B092FF0180E08D292F961E
:10465000EFE00C949435D12C1BCF20910403909162
:10466000CB0257E02917A9F030E0529FF001539F89
:10467000F00D1124E453FD4F7181761306C0708153
:10468000781303C07581741306C02F5F3F4F2770E6
:10469000E9CF80E0089581E0089580913303882375
:1046A00031F01092330310923203109231030895C7
:1046B000809590911A04892380931A040895809517
:1046C00090911B04892380931B0408951092080382
:1046D0001092070310920603089590910503292F65
:1046E000282321F0809598239093050308958091C5
:1046F00004039091CB02891719F08F5F8770FBCF6D
:104700000895A0E0B0E0E7E8F3E20C9480358091F2
:10471000CA0282958F7009F052C08091C902882325
:1047200009F44DC0C091040387E0D82E8091CB02DC
:10473000C81709F444C0D0E0DC9E8001DD9E100D56
:104740001124F801E453FD4F84818823A9F191815C
:104750008091C502981330C090818091C402981353
:104760002BC08581811128C0E280F3808091C60230
:104770009091C702E81AF90A60E084EC92E00E9486
:104780006E1064EC72E00E947229E816F906A0F43B
:104790008091CA028F7080618093CA02F801EE5244
:1047A000FD4F80818F708061808384EC92E00E9455
:1047B000C6100E94772303C02196C770B7CFCDB72C
:1047C000DEB7E7E00C949C35CF92DF92FF920F9317
:1047D0001F93CF93DF936C010091210280910C0213
:1047E000082BC3E0D0E010E0C8010C2E02C0959564
:1047F00087950A94E2F780FD04C02197A8F7F12C71
:1048000009C0FC2EB6018C2F0E9462200E947F20DE
:10481000019799F38F2DDF91CF911F910F91FF9009
:10482000DF90CF900895CF93DF93EC010E94E423B3
:10483000BE010E9462200E947F20DF91CF910895E7
:10484000FC0124812223D9F0808191810E941324CC
:1048500092959F70963079F010F4925001C09A5062
:10486000923068F4803F69F018F4883E40F409C043
:10487000843F29F406C0883E20F0813F11F080E09B
:10488000089581E00895A4E1B0E0E9E4F4E20C9435
:1048900078358C0186E0F801DE011F9601900D92BB
:1048A0008A95E1F7F8017480E58084ECA82E82E017
:1048B000B82E8091C802811122C0772009F454C01B
:1048C000EE2009F44EC0C8010E942024F82E88234F
:1048D00009F447C087E0F801A4ECB2E001900D9222
:1048E0008A95E1F78091C802813031F48091C40249
:1048F0009091C5020E9413240E9481236DC1F8018A
:10490000C280D380F090C9028091C6029091C70204
:10491000FF2009F4FAC0508061804601881A990A84
:1049200060E084EC92E00E946E1064EC72E00E9401
:1049300072298816990608F0A2C07720A9F0809104
:10494000CA02382F307F2091C502F80191813323AC
:1049500071F0291709F463C0C8010E942024811155
:1049600067C0C8010E94C610FF24F39435C1291303
:1049700014C02091C402908129130FC0E1100DC012
:104980008F7080618093CA0284EC92E00E94C6100E
:104990008091CA02F80186831EC1E1103AC040E04E
:1049A000662D852D0E942D2340E0662D852D0E94C9
:1049B0002D23E82E81110FC15F86688A8F85988923
:1049C0000E941324292F22952F70243020F49F70E9
:1049D000223028F009C02A50223080F014C09923D8
:1049E00049F0811107C013C0992321F0F801968185
:1049F000907F69F0805E883030F409C0803F38F0E5
:104A0000815F833020F0C8010E94C610EF2CFE2C7D
:104A1000E3C08091CA0281608093CA02DCC0209109
:104A2000C402F8019081291397CFE11095CFB2C04D
:104A3000EE2009F496CF2091CA02822F82958F70C2
:104A400090E002978CF08091C4029091C502998702
:104A50008887DB86CA868091C8028C871D862E8750
:104A6000CE0108960E94C61087E0F801A4ECB2E0DF
:104A700001900D928A95E1F70E94812375CF809174
:104A8000CA02982F907F51F484EC92E00E94C610E5
:104A900087E0F50111928A95E9F79DC0772009F426
:104AA00063CF2091C502F801918129130CC0209198
:104AB000C4029081291307C0E11005C08683C80194
:104AC0000E94C61082C0C8010E942024882309F4D5
:104AD00048CFEE2009F445CF2091CA02822F82955B
:104AE0008F7090E002970CF4BFCF8091C402909138
:104AF000C5029A838983DC82CB828091C8028D8330
:104B00001E822F83CE010196ADCF4601881A990AE5
:104B100060E084EC92E00E946E1064EC72E00E940F
:104B200072298816990608F050C0772009F41CCF26
:104B3000FE2CEE2009F415CF9091C502F801818179
:104B4000981335C09091C4028081981330C0809131
:104B5000C6029091C702C81AD90AF8ECCF16D10440
:104B6000E8F48091CA0280FD19C082958F70482FA9
:104B700050E04115510591F02091CA02F8012683B9
:104B80004F30510541F08F5F982F9295907F822F83
:104B90008F70892B8683C8010E94C61087E0F801B8
:104BA000A4ECB2E001900D928A95E1F715C0C8011E
:104BB0000E942024811158CF8091CA028160809385
:104BC000CA02C8010E94C61007C087E0F501119211
:104BD0008A95E9F701C0F12C8F2D6496EFE00C94D3
:104BE0009435292F9A3078F5863068F590E036E0D4
:104BF000239F800D911D1124682F677023E09695E7
:104C000087952A95E1F7FC01EE0FFF1FE80FF91FCA
:104C1000E455FD4F40E050E080E0219130E0062E69
:104C200002C0369527950A94E2F721703327042EA7
:104C300001C0220F0A94EAF7822B4F5F5F4F433087
:104C4000510559F7089580E00895292F9A3088F585
:104C5000863078F590E036E0239F800D911D112479
:104C6000282F277051E001C0550F2A95EAF723E05D
:104C7000969587952A95E1F7FC01EE0FFF1FE80F47
:104C8000F91FE455FD4F20E030E070E04081CB019A
:104C9000022E02C0969587950A94E2F7817081955D
:104CA00084278523842781932F5F3F4F233031054D
:104CB00069F708958093210208959091210221E0DF
:104CC00030E0F90101C0EE0F8A95EAF7D90102C080
:104CD000AA0FBB1F6A95E2F7BD016E2B01C0220F20
:104CE0004A95EAF7892F8623681303C0892F822B00
:104CF00003C02095822F89230E945A26089521E01F
:104D000030E001C0220F8A95EAF7209580912102B8
:104D100082230E945A260895909108038095892342
:104D200080930803282F277069F4981759F0909101
:104D3000270492FF07C08695869586950E947F2658
:104D40000E94662308959091270492FB222720F960
:104D5000281779F080FB92F990932704609126043C
:104D60007091270484E090E00E94013682E00E9466
:104D70008C26089521E030E001C0220F8A95EAF7E1
:104D800080912102822B0E945A26089580930C0262
:104D90000895A6E0B0E0EFECF6E20C9483350E94B3
:104DA000222C8C0180913403909135030817190748
:104DB00081F019821A820E94222C682F49815A811F
:104DC000792F80E090E00E949616109335030093AF
:104DD00034032696E4E00C949F3590913303292FF9
:104DE000282379F08095892380933303882319F051
:104DF0000E94222C02C080E090E0909332038093C6
:104E000031030895CF93C0911B0480911A04C82BDD
:104E100080913303882359F10E94222C2091310381
:104E200030913203821B930B8838934110F00E941B
:104E30004D2380913303C82B80911201882341F0C8
:104E40008091260487FF04C02EE182EE93E003C028
:104E500026E08AED93E0FC0180E0215028F091915A
:104E60009923D9F38F5FF9CF81110E944D238C2FA5
:104E7000CF91089580911201882351F180912604E9
:104E800087FF26C00E9402278093E10340E250E0A2
:104E900069E073E080EE93E00E944C36892BD9F1F3
:104EA00080E2E0EEF3E0A9E0B3E001900D928A9594
:104EB000E1F7E0912204F0912304309761F186E05C
:104EC0008093E0030480F581E02D80EE93E022C022
:104ED0000E9402278093D80348E050E069E273E023
:104EE00088ED93E00E944C36892BA9F088E0E8ED2C
:104EF000F3E0A9E2B3E001900D928A95E1F7E09129
:104F00002204F0912304309731F00280F381E02DE8
:104F100088ED93E00995089510921B048091120189
:104F2000882341F08091260487FF04C08EE1E2EEE1
:104F3000F3E003C086E0EAEDF3E0DF011D928A951D
:104F4000E9F780E090E00E94E12C80E090E00E9490
:104F5000BC2C10921A040E943A27E1E1F4E086E0AA
:104F6000DF011D928A95E9F710920A0410920B0452
:104F700010920C040E949D2D0895882321F00E9418
:104F800058230E943A270895882339F090911A04F3
:104F9000892B80931A040E943A270895882321F0D0
:104FA0000E945F230E943A270895882339F0909148
:104FB0001B04892B80931B040E943A2708958823A1
:104FC00081F19CEF980F913A18F40E94572C0DC074
:104FD00090E2980F983060F4877091E001C0990FCB
:104FE0008A95EAF7892F0E945F230E943A27089545
:104FF0009BE5980F933028F480E090E00E94E12C2C
:10500000089598E5980F9B3128F480E090E00E9485
:10501000BC2C089593E3980F933118F460E00E943C
:10502000EB2F08951F93CF93DF93182FEB010E946E
:10503000C330209741F08FE99FE00197F1F700C05E
:1050400000002197F6CF812F0E94DF27DF91CF91BB
:105050001F910895893319F06AE070E002C060E59D
:1050600070E00E94122808959091270492FF10C0CA
:1050700098E0899F90011124262B209308030E9419
:10508000BA260E94222C909307038093060308956A
:105090000E94BA2608951F93CF93DF93162F8A306C
:1050A00011F481E003C08D3021F480E00E94DF28FC
:1050B00082C0C0912904D0912A0496E0FE01ACEC94
:1050C000B3E001900D929A95E1F7803E30F086E0D2
:1050D000FE0111928A95E9F70BC0F6E08F9FB001AF
:1050E000112467537A4F46E050E0CE010E94AC3560
:1050F000111137C0C0912904D0912A0446E050E034
:10510000BE018CEC93E00E944C36892BC9F19E01C4
:105110002B523440A90185E0569547958A95E1F7D1
:1051200081E090E0BC0102C0660F771F4A95E2F76C
:105130004091CA035091CB03462B572B2B5F3F4F17
:1051400065E0369527956A95E1F702C0880F991FAB
:105150002A95E2F7842B952B9093CB038093CA0377
:105160000FC0E0912904F0912A049F012A5F3F4F6C
:105170002E173F0709F4BECF808180958193F8CF29
:105180009E012552344040912B06642F70E0C901E6
:105190000E946135481B463010F4240F311D211543
:1051A00082E0380710F020E030E0255D3B4F30937F
:1051B0002A0420932904DF91CF911F910895CF9362
:1051C000E82F2091290430912A042B523440409139
:1051D0002B06642F70E0C9010E946135481B842FA3
:1051E000EE2359F066E00E941F36C82FC150B0F080
:1051F00060E080E20E944B28F9CFA901480F511DC1
:105200004115524018F080E020E030E0280F311DB9
:10521000255D3B4F30932A0420932904CF910895B4
:10522000EBE2F4E080E092E0DF019C011D9221506E
:105230003040E1F7F0932A04E09329048FEF9FEFC9
:105240009093CB038093CA030895AB0124E630E02A
:10525000BC0188E70E940B3321E0892B09F020E094
:10526000822F08958091D7039091D603882389F0E7
:10527000992369F062E070E08BE09BE00E942529B1
:10528000811103C08091D60308951092D6039091A6
:10529000D60381E0892708958091D7038823F9F008
:1052A0000E944E1DDC01CB01805A9541AF4FBF4F8C
:1052B0008093D2039093D303A093D403B093D503E8
:1052C0008091D60381110BC062E070E089E09BE021
:1052D0000E942529882319F081E08093D6038091CC
:1052E000D6030895AAE0B0E0E8E7F9E20C9485352A
:1052F0009C0137552F3F310509F050F4BE016F5F17
:105300007F4F0E94272E892B19F489859A8502C028
:1053100088EC90E02A96E2E00C94A135EAE4F3E010
:1053200080E090E061E87BE248EA5BE221EE3AE26D
:10533000778366835187408733872287978786875D
:10534000019670968830910599F70895A4E3B0E02E
:10535000ECEAF9E20C94753580E096E0592E5E0196
:1053600025E2A20EB11C28E0222EFE01BB96FAAB6C
:10537000E9AB3E01F9E16F0E711C8E01015E1F4F1A
:105380007E012DE0E20EF11C33E0432E6E0133E18D
:10539000C30ED11CFE013196FCABEBAB4E01F7E026
:1053A0008F0E911C9091030420910204291709F497
:1053B000CAC0E92FF0E0EC5FFB4F808187FB22271A
:1053C00020F98F779F5F937090930304909101046D
:1053D0009F5F90930104811159C0222369F1EBA9C9
:1053E000FCA9252D11922A95E9F75982332433948B
:1053F0003A820E94222C8160682F9C838B83498192
:105400005A817C818D8191E00E949616F401252DB0
:1054100011922A95E9F75F8238860E94222C8160DA
:10542000682F9A8789874F8158857A858B859C85D7
:105430000E94961689EA83C0F701252D11922A95BC
:10544000E9F75D864E860E94222C8160682F988B3A
:105450008F874D855E857889898991E00E949616AF
:10546000F601252D11922A95E9F75B8A4C8A0E9454
:10547000222C8160682F9E8B8D8B4B895C897E8965
:105480008F89988D0E9496168AEA59C0813009F05A
:1054900058C0222351F1F301252D11922A95E9F7E5
:1054A000598E5A8E0E94222C8160682F9C8F8B8F80
:1054B000498D5A8D7C8D8D8D91E00E949616F80154
:1054C000252D11922A95E9F75F8E58A20E94222C71
:1054D0008160682F9AA389A34F8D58A17AA18BA1CF
:1054E0009CA10E9496168EE42AC0F501252D1192EA
:1054F0002A95E9F75DA22EA20E94222C8160682FD6
:1055000098A78FA34DA15EA178A589A591E00E94DF
:105510009616E9A9FAA9252D11922A95E9F75BA615
:105520002CA60E94222C8160682F9EA78DA74BA5D8
:105530005CA57EA58FA598A90E9496168BE40E9473
:105540002A2881E02FCFE496E2E10C949135A6E081
:10555000B0E0EDEAFAE20C9483358C0190933703C6
:1055600080933603011580E21807B8F4802F0E945B
:10557000DF27C801805E9109089718F00115110511
:1055800031F4C8010E9499100E94CE2716C0C801AC
:105590000E9499100E94BD2710C080EF89838A83E2
:1055A0000E94222C8160682F9C838B8349815A81C1
:1055B0007C8181E090E00E9496162696E4E00C94AF
:1055C0009F350F931F93CF93DF938C01EB0160E422
:1055D00073E08C2F0E94272E892B09F042C08FE3A5
:1055E0009CE90197F1F700C00000DD27C85CDC4FA3
:1055F0008881F80112821882833079F048F4813072
:1056000041F1823071F5809142039091430309C0CA
:10561000843051F08530E9F024C0809144039091AA
:1056200045030097B1F01BC080914603909147035A
:105630000097A9F4209140033091410380914203E7
:10564000909143032115310541F0009741F4C901C0
:1056500006C08091400390914103009711F00E9491
:10566000A72ADF91CF911F910F910895A6E0B0E096
:10567000ECE3FBE20C9483358C0190933703809329
:105680003603011580E21807B8F4C801805E91095D
:10569000089718F00115110531F4C8010E949910FE
:1056A0000E94D52705C0C8010E9499100E94C427F6
:1056B000802F0E94C33010C080EF89838A830E94AC
:1056C000222C8160682F9C838B8349815A817C8145
:1056D00081E091E00E9496162696E4E00C949F35B6
:1056E000CF93DF93EC010E94362B8FE39CE9019767
:1056F000F1F700C00000CE010E94A72ADF91CF91F0
:1057000008950F931F93CF93DF938C01862F60E44E
:1057100073E00E94272E892BB1F4C0914003D091F1
:105720004103209781F0F8018281833039F4CE0162
:105730000E94702BCE010E94702B02C0843018F0A2
:10574000CE010E94702BDF91CF911F910F91089590
:105750000F931F93CF93DF938C01EB0160E473E011
:105760008C2F0E94272E892B09F067C0DD27F801B6
:105770008281813039F4958192FD13C090FF11C070
:1057800082E00FC0823041F4F801858182FD06C0BD
:1057900080FD06C083E005C086E003C085E001C04F
:1057A00084E0C85CDC4F88838330B1F028F481301A
:1057B00071F0823031F041C08430A9F0853079F148
:1057C0003CC080914203909143030097A1F58091E2
:1057D00040039091410320C0809144039091450380
:1057E0000097E9F028C08091460390914703009705
:1057F00011F58091400390914103009749F00E9478
:10580000702B8091420390914303009781F013C065
:105810008091420390914303009779F00CC08091EE
:10582000400390914103009741F00E94702B8091BA
:105830004003909141030E94362BDF91CF911F913D
:105840000F9108952FB7F8948091580290915902C2
:10585000A0915A02B0915B022FBF08951F920F9240
:105860000FB60F9211248F939F93AF93BF938091A4
:105870002804811113C08091580290915902A0917F
:105880005A02B0915B024196A11DB11D809358024E
:1058900090935902A0935A02B0935B02BF91AF91CB
:1058A0009F918F910F900FBE0F901F901895909120
:1058B0001201992321F09091260497FD03C0E8ED91
:1058C000F3E01DC0E82FE695E695E695EE31E0F4AD
:1058D000F0E0E052FC4F877021E030E0A90102C007
:1058E000440F551F8A95E2F7CA018095928189235A
:1058F00082830895319653E0EE3DF50729F09281B9
:105900008913F8CF1282F6CF08959091120199234E
:10591000D1F09091260497FF16C0E82FE695E69502
:10592000E695EE3140F5F0E0E052FC4F877021E063
:1059300030E0A90102C0440F551F8A95E2F7CA0161
:105940009281892B16C0AAEDB3E0EFEF90E02D9184
:10595000821789F0EF3F19F4211101C0E92F9F5FF1
:105960009630A9F7EF3F39F00E2E000CFF0BE852EE
:10597000FC4F828308950895A3E0B0E0E2ECFCE2DE
:105980000C9485352091240430912504281739077B
:10599000A1F09093250480932404E0912204F091D7
:1059A0002304309751F024E029839B838A83008469
:1059B000F185E02DCE01019609952396E2E00C9445
:1059C000A135A3E0B0E0E7EEFCE20C948535209130
:1059D00020043091210428173907A1F09093210465
:1059E00080932004E0912204F0912304309751F039
:1059F00023E029839B838A830084F185E02DCE01F7
:105A0000019609952396E2E00C94A13580911E043D
:105A1000882359F0E0912204F0912304309729F073
:105A20000190F081E02D0995089580E0089587E2C6
:105A300090E00E94E3350895CF93C82F811102C0F2
:105A40006FEF01C06EEB84E290E00E94E335C1117C
:105A500002C06FEF01C06BE385E290E00E94E33586
:105A6000C11102C06FEF01C06FE786E290E00E94B3
:105A7000E335CF91089584E290E00E94C5358E3BD6
:105A800081F485E290E00E94C5358B3351F486E2C3
:105A900090E00E94C53591E08F3709F090E0892FA2
:105AA00001C080E0817008954115510511F0FA019F
:105AB00009950895CF93DF93EC014A855B856E8548
:105AC0007F850E94542D8B810E9458238C810E94D7
:105AD0005F230E943A2786E0FE0111928A95E9F73A
